:020000021000EC
:10C0000000000220193F0200413F0200433F0200AE
:10C01000453F0200473F0200493F02000000000088
:10C020000000000000000000000000004B3F020084
:10C030004D3F0200000000004F3F0200513F020050
:10C0400095830300533F0200BD23030049330300DF
:10C05000413F0300533F0200C12203003545030066
:10C06000533F0200314403004D440300533F02009C
:10C07000533F020025480200533F0200533F020095
:10C08000E5470300F9710200533F0200533F0200ED
:10C09000533F0200533F0200C10A0300533F020016
:10C0A000533F0200533F020069440300533F020024
:10C0B000533F0200533F0200000000000000000058
:10C0C000533F0200533F0200533F0200533F020020
:10C0D000533F0200533F0200533F0200017E030022
:10C0E000533F0200000000000000000000000000BC
:10C0F00000000000533F020000000000533F020018
:10C10000000000000000000000000000000000002F
:10C11000000000000000000000000000000000001F
:10C12000000000000000000000000000000000000F
:10C1300000000000000000000000000000000000FF
:10C1400000000000000000000000000000000000EF
:10C1500000000000000000000000000000000000DF
:10C1600000000000000000000000000000000000CF
:10C1700000000000000000000000000000000000BF
:10C1800000000000000000000000000000000000AF
:10C19000000000000000000000000000000000009F
:10C1A000000000000000000000000000000000008F
:10C1B000000000000000000000000000000000007F
:10C1C000000000000000000000000000000000006F
:10C1D000000000000000000000000000000000005F
:10C1E000000000000000000000000000000000004F
:10C1F000000000000000000000000000000000003F
:10C2000010B5054C237833B9044B13B10448AFF390
:10C2100000800123237010BDC02B0020000000000F
:10C22000BC20040008B5034B1BB103490348AFF31E
:10C23000008008BD00000000C42B0020BC200400CA
:10C24000A3F5803A704700BF174B002B08BF134B74
:10C250009D46FFF7F5FF00218B460F461348144A11
:10C26000121A1CF019F90E4B002B00D098470D4BF9
:10C27000002B00D098470020002104000D000D483D
:10C28000002802D00C48AFF300801CF0C3F8200057
:10C29000290000F0E3F91CF0A9F800BF0000080035
:10C2A000000000000000000000000220C02B002061
:10C2B000D0470020000000000000000080B400AF64
:10C2C000BFF34F8F00BF064BDB6803F4E062044905
:10C2D000044B1343CB60BFF34F8F00BF00BFFDE79C
:10C2E00000ED00E00400FA0576DF704700BF184655
:10C2F0008FDF704700BF184680B584B000AF78600C
:10C300007B68002B0AD0074B43F00103FB607B687E
:10C310009B01BB60FB68B868984700E000BF10371E
:10C32000BD4680BDE0C2030080B483B000AF0346C9
:10C33000FB714FF08042FB79C2F8203500BF0C370B
:10C34000BD465DF8047B704780B582B000AF786071
:10C350007B68002B0AD04FF47A70FFF7CDFF7B6823
:10C36000013B7B607B68002BF5D100E000BF083704
:10C37000BD4680BD80B586B000AF0346FB71FB793A
:10C38000022B21D11A4A1B4BD31ADB081B0443F0A2
:10C3900003031949184609F0C7F814F001FB786146
:10C3A0007B693B613B69002B02D0386909F0BEFF15
:10C3B0000AF072FB78617B69FB60FB68002B05D09B
:10C3C000F86809F0B3FF01E001230CE000BF084A60
:10C3D000084BD31ADB081B0443F003030749184634
:10C3E00009F0A2F8012318461837BD4680BD00BFEA
:10C3F000042204009C21040060C0030090C00300DC
:10C4000080B582B000AF03463960FB71FB79032B26
:10C4100005D1A920FFF788FF00200DF0CBFC00BF5D
:10C420000837BD4680BD000080B584B000AFF8601D
:10C43000B9607A6072B600BF09F004FB00BF09F072
:10C44000D5F80346002BFAD1104A114BD31ADB085A
:10C450001B0443F001030F49184609F065F80E4B21
:10C460001B6803F00103002B00D000BE074A084BF5
:10C47000D31ADB081B0443F002030849184609F0ED
:10C4800053F86420FFF760FFFFF718FF0422040051
:10C490009C21040004C20300F0ED00E018C2030078
:10C4A00080B582B000AF0AF051FA78607B683B60DB
:10C4B0003B68002B02D0386809F038FF00BF08370E
:10C4C000BD4680BD80B588B000AF7860396000237C
:10C4D000FB617B681B88562B47D0562B55DC3B2BCA
:10C4E00033D03B2B51DC212B19D0212B4DDC102BD1
:10C4F00001D0112B49E07B689A882A4B1A80294B7E
:10C500001B881946284810F06DFDF861FB69FB6037
:10C51000FB68002B3BD0F86809F008FF37E00023E8
:10C520003B7200237B727B689B8807F108021146EF
:10C530001846FFF7DDFEF861FB693B613B69002BA4
:10C5400027D0386909F0F2FE23E07B689B8813212D
:10C550001846FFF7C9FEF861FB69BB61BB69002B98
:10C5600019D0B86909F0E2FE15E07B689B881321B9
:10C570001846FFF7B9FEF861FB697B617B69002B08
:10C580000BD0786909F0D2FE07E000BF06E000BFDB
:10C5900004E000BF02E000BF00E000BF00BF2037A2
:10C5A000BD4680BD28260020F02B002080B586B037
:10C5B00000AF14F0A3F978617B693B613B69002B04
:10C5C00002D0386909F0B2FE00237B603B1D19469A
:10C5D000012014F0A9FA78617B69FB60FB68002BED
:10C5E00002D0F86809F0A2FE3B1D184614F0BAFB11
:10C5F00078617B69BB60BB68002B02D0B86809F02A
:10C6000095FE00BF1837BD4680BD80B582B000AF33
:10C610004FF40041002008F0D9FC78607B683B6053
:10C620003B68002B02D0386809F080FE08F056FC09
:10C6300000BF0837BD4680BD80B582B000AF0DF0A9
:10C6400061FB78607B683B603B68002B02D03868F8
:10C6500009F06CFE00BF0837BD4680BD80B582B0D2
:10C6600000AFFFF7D2FF264A264BD31ADB081B0484
:10C6700043F003032449184608F056FF204A214B93
:10C68000D31ADB081B0443F003032049184608F0C3
:10C690004BFF1B4A1B4BD31ADB081B0443F003035D
:10C6A0001B49184608F040FF154A164BD31ADB0801
:10C6B0001B0443F003031749184608F035FF104ADE
:10C6C000104BD31ADB081B0443F003030F49184631
:10C6D00008F02AFF13F02AFE78607B683B603B6815
:10C6E000002B02D0386809F021FEFFF7A5FFFFF705
:10C6F0005DFFFFF7D5FE00F0D3FC00F07BFDFCE70B
:10C70000042204009C21040080C2030084C20300B0
:10C71000BCC20300C8C2030080B584B000AF78601B
:10C720007B68002B0AD0074B43F00103FB607B685A
:10C730009B01BB60FB68B868984700E000BF1037FA
:10C74000BD4680BDE0C3030080B582B000AF786015
:10C750007B68002B0AD04FF47A70FFF7DDFF7B680F
:10C76000013B7B607B68002BF5D100E000BF083700
:10C77000BD4680BD80B584B000AFF8607A603B6094
:10C780000B46FB72FB6803F00803002B0AD0194A22
:10C79000194BD31ADB081B0443F00303174918464F
:10C7A00008F0C2FEFB6803F01803002B0DD0114AFD
:10C7B000114BD31ADB081B0443F00303104918463E
:10C7C00008F0B2FE0F4B01221A70FB6803F0200341
:10C7D000002B0AD0074A084BD31ADB081B0443F08E
:10C7E00003030949184608F09FFE00BF1037BD46F5
:10C7F00080BD00BF042204009C21040004C3030088
:10C8000014C303008130002024C3030080B582B02C
:10C8100000AF03460A46FB711346BB711F4A204B0B
:10C82000D31ADB081B0443F003031E49184608F023
:10C830007BFEFB79092B0AD1184A194BD31ADB0866
:10C840001B0443F003031849184608F06DFEFB79FA
:10C85000092B1FD1BB79002B0ED0104A104BD31AD5
:10C86000DB081B0443F003031049184608F05CFE84
:10C870000F4B01221A700DE0084A094BD31ADB084E
:10C880001B0443F003030B49184608F04DFE084B08
:10C8900000221A7000BF0837BD4680BD0422040084
:10C8A0009C21040038C3030040C3030048C30300B5
:10C8B0008830002050C3030080B582B000AF03462B
:10C8C0003960FB80FB88B3F5A07F03D0B3F5A27F6E
:10C8D00007D00AE0002000F0B5F9064B01221A70DB
:10C8E00003E0044B02221A7000BF00BF0837BD46A8
:10C8F00080BD00BF8030002080B483B000AF78607E
:10C9000000BF0C37BD465DF8047B70472DE9B04F82
:10C9100084B000AF87ED000B0023FB600023FB60B9
:10C920000FE0354AFB68DB001344D3E90023D7E965
:10C9300000011FF031F90346002B06D1FB680133DB
:10C94000FB60FB68322BECD900E000BFFB68013BC9
:10C950002A4ADB001344D3E90045284AFB68DB0080
:10C960001344D3E90001FB68013B244ADB00134474
:10C97000D3E900231EF0E6FC02460B46904699469A
:10C98000FB68013B1C4ADB001344D3E90023D7E9D1
:10C9900000011EF0D7FC02460B4692469B46164A03
:10C9A000FB68DB001344D3E90001FB68013B124A3A
:10C9B000DB001344D3E900231EF0C4FC02460B46FF
:10C9C000504659461EF0A0FF02460B4640464946D7
:10C9D0001EF070FE02460B46204629461EF0B4FCAF
:10C9E00002460B4643EC172BB0EE470AF0EE670AFF
:10C9F0001037BD46BDE8B08FC82700203026002084
:10CA00002DE9B04F84B000AF87ED000B0023FB6031
:10CA10000023FB600FE0354AFB68DB001344D3E9D9
:10CA20000023D7E900011FF0B7F80346002B06D119
:10CA3000FB680133FB60FB68322BECD900E000BFE0
:10CA4000FB68013B2A4ADB001344D3E90045284A2E
:10CA5000FB68DB001344D3E90001FB68013B244A77
:10CA6000DB001344D3E900231EF06CFC02460B46A6
:10CA700090469946FB68013B1C4ADB001344D3E90E
:10CA80000023D7E900011EF05DFC02460B469246EA
:10CA90009B46164AFB68DB001344D3E90001FB68A0
:10CAA000013B124ADB001344D3E900231EF04AFC89
:10CAB00002460B46504659461EF026FF02460B46DC
:10CAC000404649461EF0F6FD02460B4620462946E2
:10CAD0001EF03AFC02460B4643EC172BB0EE470A19
:10CAE000F0EE670A1037BD46BDE8B08F3026002053
:10CAF000C827002080B588B000AF78600023FB8194
:10CB00000023BB814FF000024FF00003C7E904236C
:10CB10004FF000024FF00003C7E9062348F6EB335D
:10CB2000BB8107F10E0207F10C031946002001F04A
:10CB300083FC00BF002001F055FC0346002BF9D018
:10CB400048F29B53BB8107F10E0207F10C03194613
:10CB5000002001F071FCB7F90E3018461EF040FDC0
:10CB60004FF000024FF07E531EF0A4FD02460B462C
:10CB7000C7E906234FF000024FF00003D7E9060192
:10CB80001FF00AF80346002B05D04FF000024FF0CB
:10CB90000003C7E906234FF00002284BD7E906013E
:10CBA0001FF018F80346002B01D0012341E000BF1D
:10CBB000002001F017FC0346002BF9D048F6EB33B8
:10CBC000BB8107F10E0207F10C031946002001F0AA
:10CBD00033FCB7F90E309B101BB218461EF000FD57
:10CBE0004FF00002164B1EF065FD02460B4643EC6B
:10CBF000172BB0EE470AF0EE670AFFF787FE87EDC6
:10CC0000040BD7E90423D7E906011EF09DFB024679
:10CC10000B4643EC172BB0EE470AF0EE670AFFF71E
:10CC2000EFFEB0EE407AF0EE607A7B6883ED007B39
:10CC3000002318462037BD4680BD00BF00406F402E
:10CC40000000A03F80B582B000AF0346FB71FB79C6
:10CC500019460B2000F014FF00BF0837BD4680BD09
:10CC600080B584B000AF87ED010A78681EF0CAFC79
:10CC70004FF000020E4B1EF047FE02460B461046D8
:10CC800019461EF0EFFF034644F6382202FB03F379
:10CC9000FB60FB68002B01D10123FB600123FA68D4
:10CCA0000021044817F052FB00BF1037BD4680BD7D
:10CCB00000005940FCC2030080B58EB002AF0121D4
:10CCC000042000F0CDFE0121052000F0C9FE012165
:10CCD000292000F0C5FE01210F2000F0C1FE002137
:10CCE0000B2000F0BDFE0121002000F0FBFC002322
:10CCF00000931C2302220321012000F0D9FD05230B
:10CD000004222921012000F037FF4F4A40218020D2
:10CD100001F09EF803230F220121002001F03AFBCD
:10CD20000023FB844FF000024FF00003C7E90A2301
:10CD30000023BB8448F6EB33FB8407F1240207F1A0
:10CD400026031946002001F077FB00BF002001F008
:10CD500049FB0346002BF9D04EF2EB53FB8407F15D
:10CD6000240207F126031946002001F065FB374A2B
:10CD7000374BD31ADB081B0443F00303B7F9242015
:10CD80003449184608F0DFFB00BF002001F02AFB01
:10CD90000346002BF9D04FF2EB53FB8407F124023A
:10CDA00007F126031946002001F046FBB7F92430AD
:10CDB00018461EF015FC4FF00002274B1EF07AFCBF
:10CDC00002460B46104619461DA3D3E900231EF068
:10CDD00071FC02460B46C7E90A23381DD7E90A232E
:10CDE0001E491BF0CBFF194A194BD31ADB081B0451
:10CDF00043F003033A1D1A49184608F0A4FB00BF8C
:10CE0000002001F0EFFA0346002BF9D007F12402CD
:10CE100007F126031946002001F00EFB0B4A0C4BCC
:10CE2000D31ADB081B0443F00303B7F924200D4990
:10CE3000184608F088FB00BF3037BD4680BD00BFF4
:10CE40006666666666E62540CDDC010004220400C5
:10CE50009C21040058C303000000B03F60C30300DE
:10CE600068C303006CC30300B0B52DED028B88B01E
:10CE700000AF834B1B78022B0CD0022B00F3EF800A
:10CE8000002B00F0EB80012B00D0E8E07C4B00226F
:10CE90001A70E4E04FF000024FF00003C7E90023EE
:10CEA0000020FFF7CFFE3B461846FFF723FE034660
:10CEB000002B11D0734B002283F8202072481BF006
:10CEC00071FA70494FF000024FF00003C1E90223EC
:10CED0006C4B00225A6221E06A4B012283F8202029
:10CEE000D7E9000162A3D3E900231EF0E3FB024669
:10CEF0000B4614461D46634BD3E902015EA3D3E9FA
:10CF000000231EF0D7FB02460B46204629461EF0A2
:10CF10001BFA02460B465B49C1E90223594BD3E990
:10CF200002014FF00002594B1EF054FE0346002B45
:10CF300018D0544B93F82030002B13D0544A554B43
:10CF4000D31ADB081B0443F003044E4BD3E902233E
:10CF5000104619461EF086FE03461A464E492046E4
:10CF600008F0F1FA474B93F82030002B5ED0454B88
:10CF700093F82D3083F00103DBB2002B56D0414BE8
:10CF8000D3E90623104619461EF08CFE08EE100A5F
:10CF90003C4BD3E90223104619461EF083FE07EEF0
:10CFA000900A78EE677AC7ED067A0023FB61364B6C
:10CFB0007B61BB693B617B6993ED007AD7ED047AB5
:10CFC00027EE277A7B69D3ED016A7B69D3ED037A7B
:10CFD00066EEA77A37EE277A7B69D3ED026A7B6922
:10CFE000D3ED047A66EEA77A37EE277A7B69D3ED24
:10CFF000057A77EE277AC7ED037A7B69DA687B6971
:10D000001A617B693A69DA607B69FA685A61D7ED1F
:10D01000037AFCEEE77A17EE903AFB61FB69642B2A
:10D0200001D96423FB61174AFB695362154B5B6AA4
:10D03000002B02D00120FFF705FE124B5B6A07EEC2
:10D04000903AF8EE677AB0EE670AFFF709FE1348E8
:10D0500017F06EF90A4B00221A7000E000BF00BF03
:10D060002037BD46BDEC028BB0BD00BFAFF30080E2
:10D07000000000A09999A93F000000606666EE3F9D
:10D0800080300020283000205830002000407F40B1
:10D09000042204009C21040078C30300FCC20300A6
:10D0A00080B588B000AFFFF707FE454A012145482B
:10D0B00009F08AFC0346FB61FB69BB61BB69002B7D
:10D0C00002D0B86909F032F93F4B002221211846FD
:10D0D00009F09CFC40F2666202213C4809F088F8A5
:10D0E00078617B69002B01D109F0FEF83220FFF74F
:10D0F0002BFB374B002283F824202421344802F0F4
:10D1000039FB0121324802F04BFB324806F042FE67
:10D11000304B1B682E49184606F052FE2D4B1B68FB
:10D120002B4A136000222C494FF0FF3006F0B2FD6D
:10D13000FA220121294800F0D2FC04233B7100238C
:10D140007B710023BB710323FB7100233B613B1DFB
:10D15000234A1946234817F05FF838613B69FB60A2
:10D16000FB68002B02D0F86809F0E0F801230122E7
:10D1700000211C4817F0EAF8012345F6101201219E
:10D18000184817F0E3F8184B184A9A64164B4FF0FA
:10D190000002DA64144B4FF080421A6501211448F2
:10D1A0001BF006F9104904A3D3E90023C1E90623C3
:10D1B00000BF2037BD4680BD0000000000E0754084
:10D1C000F9C80100F8C2030008300020E8C20300DB
:10D1D0000C2D0020082D002075C701008430002090
:10D1E000B9C80100FCC203002830002000009643AB
:10D1F0005830002080B590B004AFA14802F0E0FAAA
:10D2000040F2DC5200219F4800F069FC0346002BED
:10D2100000F096809C4B1B7883F00103DBB2002B5F
:10D2200000F08E80002387F82F3084E097F82F30AD
:10D23000934A42339B001344DB79C3F38113DBB27F
:10D24000002B73D197F82F308D4A42339B00134443
:10D250005B68C3F389239BB21A46322302FB03F3B4
:10D260007B627B6A42F6E06293425FD17B6A874AC7
:10D27000A2FB03239B097B62854A864BD31ADB08FA
:10D280001B0443F0030097F82F207B6A824908F0C3
:10D290006DF97B4AB2F848314FF4967161F3090396
:10D2A000A2F84831764AD2F848314FF4967161F3CA
:10D2B0009323C2F84831724A92F84A316FF3C71388
:10D2C00082F84A316E4A92F84B3143F0010382F8FA
:10D2D0004B316B4A92F84B316FF3410382F84B317B
:10D2E000674A92F84B316FF3820382F84B31644AFC
:10D2F00092F84B316FF3C30382F84B3197F82F301C
:10D300000133DBB203F00703D9B25D4A92F84B3127
:10D3100061F3061382F84B312221594806F0FCF8DC
:10D32000594B01221A705D4816F0E6FF97F82F302E
:10D33000013387F82F3097F82F30052B7FF676AF23
:10D34000514B1B78002B7FD0FFF78EFD544BD3E958
:10D3500000235449C1E906234FF4FA7200215248D0
:10D3600000F0BDFB0346002B00F086804D4BD3E957
:10D370000223104619461EF095FC0346BB62494B3A
:10D38000D3E90201474BD3E906231DF0DBFF024638
:10D390000B4643EC172BB0EE470AF0EE670A1DF080
:10D3A000C3FF51EC100B4FF00002404B1EF0F4FB9A
:10D3B0000346002B08D03B4BD3E906231046194601
:10D3C0001EF070FC0346BB6200F07EFD344BD3E9D7
:10D3D0000023381D36491BF0D1FC381D0123029370
:10D3E000012301931023009340230022314900F0D0
:10D3F0003BFEB86A1EF006F902460B46381D2E4960
:10D400001BF0BCFC381D0123029301230193202350
:10D41000009340230022274900F026FE214B5A6A40
:10D420003B1D264918461BF0A9FC381D0123029319
:10D430000123019332230093402300221D4900F071
:10D4400013FE00F033FD17E0FA220021164800F029
:10D4500046FB0346002B0FD000F036FD002302935D
:10D4600001230193202300934023002211491448F3
:10D4700000F0FAFD00F01AFD00BF3037BD4680BD58
:10D480000C2D00208430002082300020D34D62100B
:10D49000042204009C21040088C30300FCC2030092
:10D4A00060290020283000208C3000200000084037
:10D4B000B0C3030090CB0300BCC30300C8C3030088
:10D4C000D4C3030080B584B000AF78607B68002BC4
:10D4D0000AD0074B43F00103FB607B689B01BB60F4
:10D4E000FB68B868984700E000BF1037BD4680BDB4
:10D4F00030C4030080B582B000AF7860396039680D
:10D50000786815F0F4FF034618460837BD4680BD1D
:10D5100080B582B000AF78607B68002B0AD04FF4F2
:10D520007A70FFF7CFFF7B68013B7B607B68002B45
:10D53000F5D100E000BF0837BD4680BD80B483B0A0
:10D5400000AF78607B681B681F2B02D84FF0A043A8
:10D5500006E07B681B6803F01F027B681A60034BC0
:10D5600018460C37BD465DF8047B70470003005039
:10D5700080B584B000AF7860084611461A4603466D
:10D58000FB700B46BB7013467B703B1D1846FFF7C4
:10D59000D5FFF860FA78BB785B001A437B789B0074
:10D5A0001A433B7E1B0242EA03013B7F1B047A685D
:10D5B0001943FB6802F5E07243F8221000BF1037F0
:10D5C000BD4680BD80B584B002AF78600023019372
:10D5D000002300930023012201217868FFF7C8FF90
:10D5E00000BF0837BD4680BD80B584B000AF78600D
:10D5F0003B1D1846FFF7A2FFF8607B68012202FA84
:10D6000003F31946F86800F04FF800BF1037BD4625
:10D6100080BD80B584B000AF78603B1D1846FFF731
:10D620008DFFF8607B68012202FA03F31946F8685F
:10D6300000F049F800BF1037BD4680BD80B582B00C
:10D6400000AF786039603B68002B03D17868FFF742
:10D65000E0FF02E07868FFF7C7FF00BF0837BD466C
:10D6600080BD80B584B000AF78603B1D1846FFF7E1
:10D6700065FFF860F86800F00AF802467B6822FA55
:10D6800003F303F0010318461037BD4680BD80B494
:10D6900083B000AF78607B68D3F8103518460C373C
:10D6A000BD465DF8047B704780B483B000AF7860FE
:10D6B00039607B683A68C3F8082500BF0C37BD465F
:10D6C0005DF8047B704780B483B000AF7860396048
:10D6D0007B683A68C3F80C2500BF0C37BD465DF87F
:10D6E000047B704780B590B002AF03460A46FB71D9
:10D6F0001346BB7100233B630023FB62FF2387F8C3
:10D700002B30FF2387F82A30FB79002B2CD1374BA5
:10D710003B631F2387F82B301E2387F82A3000BF76
:10D7200097F82A3097F82B2011461846FFF7E2FEAB
:10D7300097F82A303B6197F82B307B614FF0C86334
:10D74000BB6102233B7701237B7707F110010023A4
:10D750000022386B15F086F90346FB62FB6A7B6298
:10D760007B6A002B05D001E001233AE0786A08F0DB
:10D77000DDFD386B15F008FABB79002B30D01C4A60
:10D780001C4BD31ADB081B0443F00303FA791A4934
:10D79000184607F0D8FE00237B631EE00023FB73CE
:10D7A0007B6BD9B207F10F02002300930123386B82
:10D7B00015F03EFC38623B6A002B0BD10C4A0D4B36
:10D7C000D31ADB081B0443F003037A6B0B4918469A
:10D7D00007F0B9FE7B6B01337B637B6B7F2BDDD95D
:10D7E000002318463837BD4680BD00BFE8C303009C
:10D7F000042204009C210400F8C3030014C40300A5
:10D8000080B588B000AFBA607B600346FB730B46FF
:10D81000BB730023FB610023BB61FB7B002B0DD19D
:10D820000B4BBB6100BFB97B7B68BA68B86915F068
:10D8300025FC78617B69002B05D001E0012303E022
:10D840004FF0FF33FB61FB6918462037BD4680BDB2
:10D85000E8C3030080B58AB002AFBA607B600346BC
:10D86000FB730B46BB730023BB61FB7B002B12D108
:10D870000E4BBB6100BF0023FB61B97B97F82830DA
:10D8800000937B68BA68B86915F0D2FB78617B6950
:10D89000002B05D001E0012303E04FF0FF33FB61D3
:10D8A000FB6918462037BD4680BD00BFE8C30300B2
:10D8B00090B587B000AF0446084611461A46234685
:10D8C000FB710346BB710B467B7113463B71002312
:10D8D0007B61FB79304A1B0113443A791A70FB795A
:10D8E0002D4A1B01134401337A791A70FB792A4AB5
:10D8F0001B0113440233BA791A70FB79264A1B01C3
:10D9000013440333FF221A70FB79234A1B0113448B
:10D91000043301221A70FB791F4A1B01134405339B
:10D92000FF221A70FB791C4A1B01134408334FF085
:10D9300080421A60FB79184A1B0113440C3397F894
:10D9400028201A70FB79144A1B0113440D3300225E
:10D950001A70FB79012B15D1104B7B6100BF00239E
:10D960003B61FB791B010C4A99180023002278695E
:10D9700016F062F803463B613B69FB60FB68002BD5
:10D9800005D001E0012303E0F86808F0CFFC3B6913
:10D9900018461C37BD4690BD90300020F0C30300F0
:10D9A00080B58CB000AFB9607A603B600346FB7312
:10D9B0000023FB62FB7B002B06D0012B02D1264B00
:10D9C000FB6202E0012342E000BFFB7B234A1B0114
:10D9D00013440C331B7897F83C209A421FD0FB7BF2
:10D9E0001E4A1B0113440C3397F83C201A70F86A46
:10D9F00016F00AF90023BB62FB7B1B01174A99183A
:10DA000000230022F86A16F017F80346BB62BB6ACF
:10DA10007B627B6A002B02D0786A08F087FCBB68C7
:10DA20003B617B687B613B68BB61BB6BFB6107F162
:10DA3000100300221946F86A16F018FA03463B62F2
:10DA40003B6A002B01D1002301E04FF0FF33184661
:10DA50003037BD4680BD00BFF0C3030090300020CA
:10DA600080B582B000AF786039607868FFF7AAFDB2
:10DA700039687868FFF7E2FD00BF0837BD4680BD12
:10DA800080B582B000AF7860396039687868FFF798
:10DA9000D5FD00BF0837BD4680BD80B582B000AF60
:10DAA00078607868FFF7DDFD034618460837BD4605
:10DAB00080BD80B582B000AF78607868FFF728FD40
:10DAC00000BF0837BD4680BD80B582B000AF78602A
:10DAD0007868FFF7F7FC00BF0837BD4680BD2DE929
:10DAE000B04386B000AFF8600B467A60FB7200234B
:10DAF0003B610023FB75FB7A002B06D008F0EAFFA0
:10DB00000246FB681A60002331E008F0E3FF02469A
:10DB1000FB681B681946104608F0CCFF38617B682B
:10DB200000221C4615464FF000024FF00003EB03A5
:10DB300043EA5443E20312F5FA7843F100094FF443
:10DB40007A724FF00003404649461EF0FBF8024649
:10DB50000B463B69934202D87B68002B06D1012318
:10DB6000FB7508F0B7FF0246FB681A60FB7D18469C
:10DB70001837BD46BDE8B08380B582B000AF78608D
:10DB8000084611461A460346FB700B46BB70134607
:10DB90007B70364AFB781370354ABB781370354A70
:10DBA0007B7813707B68DAB2334B1A7000F036F969
:10DBB000FD2000F007F9122000F0D8F8AE2000F0A8
:10DBC00001F9D52000F0FEF8A02000F0FBF8A82015
:10DBD00000F0F8F83F2000F0F5F8D32000F0F2F85C
:10DBE000002000F0EFF8402000F0ECF8202000F0DA
:10DBF000E9F8022000F0E6F8DA2000F0E3F812205D
:10DC000000F0E0F8D92000F0DDF8252000F0DAF887
:10DC1000DB2000F0D7F8342000F0D4F8A12000F089
:10DC2000D1F8C82000F0CEF8A42000F0CBF8812075
:10DC300000F0C8F8FF2000F0C5F8AD2000F0C2F8F1
:10DC40008E2000F0BFF8D82000F0BCF8052000F0CE
:10DC5000B9F8A62000F0B6F800F063F8AF2000F0A5
:10DC6000B1F800BF0837BD4680BD00BF682900205D
:10DC7000692900206A2900206B29002080B582B024
:10DC800000AF0346FB71FB7903F00F03DBB21846CC
:10DC900000F098F8FB791B09DBB21033DBB21846B1
:10DCA00000F090F800BF0837BD4680BD80B582B057
:10DCB00000AF0346FB71FB7963F04F03DBB21846FC
:10DCC00000F080F800BF0837BD4680BD80B584B045
:10DCD00000AF786039600023FB731AE0FB7B1846C5
:10DCE000FFF7E4FF0020FFF7C9FF0023BB7309E043
:10DCF0007B685A1C7A601B78184600F037F8BB7BAB
:10DD00000133BB7397F90E30002BF1DAFB7B013343
:10DD1000FB73FB7B072BE1D900BF00BF1037BD466B
:10DD200080BD80B582B000AF0023FB7116E0FB79A7
:10DD30001846FFF7BBFF0020FFF7A0FF0023BB71D1
:10DD400005E0002000F012F8BB790133BB7197F9B0
:10DD50000630002BF5DAFB790133FB71FB79072BD9
:10DD6000E5D900BF00BF0837BD4680BD80B584B08F
:10DD700002AF0346FB71104B1B7801211846FFF7D9
:10DD80007FFE0E4B1B7800211846FFF779FE0C4BE7
:10DD90001878F91D0023019300230093002301222A
:10DDA000FFF7FEFD054B1B7801211846FFF768FEC3
:10DDB00000BF0837BD4680BD6829002069290020C2
:10DDC0006B29002080B584B002AF0346FB71104B75
:10DDD0001B7800211846FFF753FE0E4B1B780021DD
:10DDE0001846FFF74DFE0C4B1878F91D00230193E0
:10DDF0000023009300230122FFF7D2FD054B1B787F
:10DE000001211846FFF73CFE00BF0837BD4680BD24
:10DE100068290020692900206B29002080B500AF07
:10DE20000A4B1B7800211846FFF72AFE4FF4FA70C0
:10DE3000FFF73FFE054B1B7801211846FFF720FE38
:10DE40004FF4FA70FFF735FE00BF80BD6A2900204D
:10DE500080B483B000AF03463A60FB800B46BB80C2
:10DE6000114B00221A81104B00225A810E4B0122C5
:10DE70005A750D4AFB8813800B4ABB8853800A4BA6
:10DE800000225A60084B00225A82074B01221A8254
:10DE9000054B0022DA60044A3B68936100BF0C37EF
:10DEA000BD465DF8047B7047D030002080B500AFE0
:10DEB000034B9B694FF480610248984700BF80BDC7
:10DEC000D0300020EC30002080B500AF4FF48062ED
:10DED000002102481AF0E0FA00BF80BDEC300020BB
:10DEE00080B485B000AF0346FB800B46BB80134671
:10DEF0007B80B7F90630002BC0F2AB80B7F9063053
:10DF00007F2B00F3A680B7F90430002BC0F2A1806C
:10DF1000B7F904303F2B00F39C80514B5B68032B17
:10DF20001DD0032B27D8012B02D0022B0CD022E0CE
:10DF3000FB88FB81BB88FB80FB89BB80FB88C3F12E
:10DF40007F039BB2FB8016E0FB88C3F17F039BB28B
:10DF5000FB80BB88C3F13F039BB2BB800BE0FB8817
:10DF6000FB81BB88FB80FB89BB80BB88C3F13F037F
:10DF70009BB2BB8000BF7B88022B49D0022B69DC9F
:10DF8000002B22D0012B65D1B7F90620B7F9043058
:10DF9000002B00DA0733DB1018B20346DB01134411
:10DFA000304AD35C5AB2BB8803F00703012101FA5F
:10DFB00003F35BB2134359B2B7F906200346DB0102
:10DFC0001344C9B2274AD15444E0B7F90620B7F93F
:10DFD0000430002B00DA0733DB1018B20346DB01F4
:10DFE0001344204AD35C5AB2BB8803F007030121D3
:10DFF00001FA03F35BB2DB435BB2134059B2B7F9EA
:10E0000006200346DB011344C9B2164AD15421E06D
:10E01000B7F90620B7F90430002B00DA0733DB101C
:10E0200018B20346DB0113440E4AD35C5AB2BB88D4
:10E0300003F00703012101FA03F35BB2534059B225
:10E04000B7F906200346DB011344C9B2054AD1548F
:10E0500000E000BF1437BD465DF8047B704700BF89
:10E06000D0300020EC300020B0B594B004AFF860A0
:10E07000B96011461A460B46FB801346BB80FB680D
:10E08000FB630023BB6300237B6301233B63FB68CB
:10E09000FB6339E0FB6B1A78BB685B789A4229D343
:10E0A000FB6B1A78BB689B789A4223D8FB6B1B7872
:10E0B0009AB2BB685B789BB2D31AFB82BB685A6882
:10E0C000FB8A9B0013441B781A46BB6B1344013335
:10E0D000BB63BB685A68FB8A9B0013445B781A4693
:10E0E0007B6B934206D2BB685A68FB8A9B00134441
:10E0F0005B787B63FB6B1B780A2B02D13B6B013394
:10E100003B63FB6B0133FB63FB6B1B78002BC1D1C3
:10E11000BB6B002B02D0BB6B013BBB637B6B3A6BD1
:10E1200002FB03F37B6397F85430012B1ED1B7F940
:10E13000043018461DF054FA04460D46B86B1DF025
:10E140003FFA4FF000024FF080431DF0DDFB024626
:10E150000B46204629461DF0F5F802460B461046B0
:10E1600019461DF057FD0346BB8009E097F854306F
:10E17000002B05D1BA88BB6B9BB2D31A9BB2BB8074
:10E1800097F85830012B1ED1B7F9503018461DF0C2
:10E1900027FA04460D46786B1DF012FA4FF0000284
:10E1A0004FF080431DF0B0FB02460B462046294647
:10E1B0001DF0C8F802460B46104619461DF02AFD10
:10E1C0000346A7F8503097F85830022B07D1B7F81C
:10E1D00050207B6B9BB2D31A9BB2A7F85030BB8800
:10E1E000FB85B7F85030BB85FB68FB63BB689B6859
:10E1F000BB6254E0FB6B1A78BB685B789A423DD3F4
:10E20000FB6B1A78BB689B789A4237D8FB6B1B78FC
:10E210001A46BB685B78D31A7B62BB685A687B6A14
:10E220009B0013441B783B62BB685A687B6A9B0067
:10E2300013445B78FB61BB685A687B6A9B0013449C
:10E240005B88BB61BB6999B23B6A9AB2FB6998B2C1
:10E250000023039301230293B7F92C300193B7F9FC
:10E260002E3000930346B86A00F022F83B6A9AB257
:10E27000FB8D13449BB201339BB2FB85FB6B1B7878
:10E280000A2B09D1BB685B685B789AB2BB8D1344DB
:10E290009BB2BB85BB88FB85FB6B0133FB63FB6BD0
:10E2A0001B78002BA6D100BF00BF4037BD46B0BDD4
:10E2B00080B586B000AFF860084611461A4603469E
:10E2C0007B810B463B811346FB800023FB750023BB
:10E2D000BB7555E000233B7545E0FB7D5A1CFA7584
:10E2E00003F00703DBB2002B07D17B895A1C7A812C
:10E2F0001A46FB6813441B787B7597F91530002B81
:10E3000012DA97F914309AB23B8C13449BB218B2CC
:10E3100097F916309AB2BB8C13449BB21BB23A8D5C
:10E320001946FFF7DDFD15E0BA8D3B8D9A4211D0FD
:10E3300097F914309AB23B8C13449BB218B297F9F8
:10E3400016309AB2BB8C13449BB21BB2BA8D1946DD
:10E35000FFF7C6FD7B7D5B007B7597F91430DBB260
:10E360000133DBB23B7597F914203B899A42B4DB49
:10E370000023FB7597F91630DBB20133DBB2BB75B6
:10E3800097F91620FB889A42A4DB00BF00BF18371C
:10E39000BD4680BD90B482B000AF04460846114629
:10E3A0001A462346FB710346BB710B467B7113462D
:10E3B0003B71FB790849BA79CA54FB7907497A79E4
:10E3C000CA54FB7906493A79CA54002318460837DB
:10E3D000BD4690BC704700BFEC340020F4340020F0
:10E3E000FC34002080B584B000AF0346FB710023ED
:10E3F000FB60FB790E4AD35C00211846FFF740FB17
:10E40000FB790C4AD35C1846FFF747FBF860FB79B1
:10E41000074AD35C01211846FFF732FBFB68002B4B
:10E4200001D0002300E0012318461037BD4680BD0F
:10E43000F4340020FC34002080B58AB002AF0346DB
:10E44000B9607A60FB730023FB610023BB6100238A
:10E450007B61BB681B881B0A9BB2DBB23B76BB6847
:10E460001B88DBB27B760023FB7600233B77FB7BAC
:10E47000234AD35C00211846FFF702FBFB7B214AAD
:10E48000D05C07F1140307F1180101220192042264
:10E4900000920422FFF784FA0346FB61FB7B184AD3
:10E4A000D35C01211846FFF7EBFA3B7D1B021AB241
:10E4B0007B681A807B68B3F900207B7D1BB2134315
:10E4C0001AB27B681A80BB7D9BB21B029AB2BB68F2
:10E4D0001A80BB681A88FB7D9BB213439AB2BB6853
:10E4E0001A80FB69002B05D07B6800221A80BB686C
:10E4F00000221A80FB6918462037BD4680BD00BF48
:10E50000F4340020EC34002080B582B000AF786095
:10E510007B6893F84F30002B00F094807B680022DA
:10E5200083F844207B6893F82430184605F01DFBDF
:10E530000346002B08D07B6893F825007B683E33A8
:10E5400005223E2101F08DF97B6893F85930002BAC
:10E5500009D07B68002283F84520786801F09EF995
:10E56000786802F0F5F97B6893F850301A2B51D88F
:10E5700001A252F823F000BFE5E50100EDE501003E
:10E58000F5E50100FDE5010005E6010015E60100E5
:10E5900015E6010015E6010015E6010015E601008B
:10E5A00015E6010015E6010015E6010015E601007B
:10E5B00015E6010015E6010015E6010015E601006B
:10E5C00015E6010015E6010015E6010015E601005B
:10E5D00015E6010015E6010015E6010015E601004B
:10E5E0000DE60100786800F031F817E0786800F077
:10E5F00037F813E0786800F047F80FE0786800F02B
:10E60000B9F80BE0786800F027F907E0786800F0C7
:10E6100086FF03E0786800F08EF900BF7B68002277
:10E6200083F842207B680022DA877B6893F84430C5
:10E63000002B3FF46DAF7B6893F84530002B3FF41F
:10E6400067AF00E000BF0837BD4680BD80B483B02F
:10E6500000AF786000BF0C37BD465DF8047B7047A3
:10E6600080B582B000AF78607B6803F51B731846F5
:10E6700005F0E9F90346002B02D0786800F05BF959
:10E6800000BF0837BD4680BD80B582B000AF78605E
:10E690007B68012283F844207B6803F51E731846CB
:10E6A00005F0D1F90346002B09D07B6803F51E73F2
:10E6B000184605F0A6F97B68002283F854207B6891
:10E6C00093F83E3003F04003DBB2002B4DD07B6863
:10E6D00003F51E73184605F094F97B6893F825003E
:10E6E0007B683D3301223D2101F0BBF87B6893F844
:10E6F0003D30C3F3C203DBB2052B02D0062B08D09A
:10E700000FE07B68012283F84E20786800F0B0F9B2
:10E710002CE07B68022283F84E20786800F0A8F98C
:10E7200024E07A6892F832306FF3000382F83230D6
:10E730007B6893F825007B6832330122082101F0C1
:10E7400073F8012005F087FA7A6892F8323043F0C6
:10E75000010382F832307B6893F825007B683233FE
:10E760000122082101F060F800E000BF00BF083777
:10E77000BD4680BD80B582B000AF78607B68012265
:10E7800083F84420786800F034FC7B6893F84030CC
:10E7900003F04003DBB2002B5AD17B6893F848307A
:10E7A000002B28D1786800F08BFA7B6893F84E3004
:10E7B000012B01D1022200E001227B6883F84E2068
:10E7C000786800F0CEFA03461A467B6883F8462044
:10E7D0007B6893F84630002B03D1786800F0ABF8E3
:10E7E00037E07B6803F51573184605F00AF97B6876
:10E7F000052283F848207B6893F84730022B28D104
:10E80000786800F0FFFC786800F019FB0346002BE5
:10E8100016D07B6893F84A30012B08D97B6893F8AF
:10E820004A30042B03D8786800F080F911E07B6847
:10E8300093F84A30002B0CD1786800F0BDF908E05D
:10E840007B6803F52D730A21184605F0BFF800E038
:10E8500000BF0837BD4680BD80B582B000AF78608C
:10E860007B68012283F844207B6893F8423003F0F0
:10E870002003DBB2002B1AD07B6893F86030002BAA
:10E8800015D17B6893F85F30002B10D17B68B3F80B
:10E89000523003F5D2739BB21946786800F0DEFA65
:10E8A0000346002B03D1786800F045F826E07B682A
:10E8B00093F86030002B02D1786800F09AFB7B68F7
:10E8C00093F85930002B0DD07B6893F86030002B03
:10E8D00008D17B6893F84830002B03D1786800F0AA
:10E8E0002AF80BE07B6893F84830052B06D07B684C
:10E8F00093F848301946786800F063FA0837BD4647
:10E9000080BD80B582B000AF78607B68012283F85B
:10E9100044200121786804F0EBFD7B6803F51B734C
:10E920001E21184605F052F8786800F081FC00BFFF
:10E930000837BD4680BD80B582B000AF78607B6887
:10E94000012283F844200221786804F0D1FD786820
:10E9500000F06EFC7A6892F832306FF3000382F8B0
:10E9600032307B6893F825007B683233012208211E
:10E9700000F05AFF7A6892F82C306FF3861382F811
:10E980002C307B6893F825007B682C33012204210E
:10E9900000F04AFF7A6892F838306FF3861382F8F5
:10E9A00038307B6893F825007B68383301220E21CC
:10E9B00000F03AFF7B6893F8303003F00C03DBB2D1
:10E9C000042B10D07A6892F83030012161F3830370
:10E9D00082F830307B6893F825007B683033012261
:10E9E000062100F021FF7B681B79022B08D17A6891
:10E9F00092F83230012161F3420382F8323013E0A1
:10EA00007B681B79012B07D17A6892F8323043F08A
:10EA1000060382F8323007E07A6892F83230022139
:10EA200061F3420382F83230192005F014F97A6854
:10EA300092F8323043F0010382F832307B6893F869
:10EA400025007B6830330322062100F0EDFE7B6851
:10EA500003F51B73184604F0D4FF7B6803F51E739F
:10EA60006421184604F0B2FF00BF0837BD4680BDE0
:10EA700080B582B000AF78607B68002283F84420C4
:10EA80000321786804F034FD7B6893F854305A1CF5
:10EA9000D1B27A6882F85410142B03D9786800F048
:10EAA00058FC40E0786800F017FB7A6892F8323042
:10EAB0006FF3000382F832307B6893F825007B689F
:10EAC00032330122082100F0AFFE7A6892F8343028
:10EAD0006FF3861382F834307B6893F825007B68E7
:10EAE000343301220A2100F09FFE786800F0A7F974
:10EAF0000346002B03D07B68012283F855207B68F6
:10EB000093F825007B6840330122402100F0A9FEE4
:10EB10007B6893F8403003F00303DBB2002B02D193
:10EB20007868FFF708FF0837BD4680BD80B582B022
:10EB300000AF78607B68012283F844207B68002264
:10EB400083F854201221786804F0D2FC786800F031
:10EB5000C3FA7A6892F82C3043F0400382F82C30E4
:10EB60007B68B3F852309B08124AA2FB03235B096F
:10EB70009BB2DBB2013BDBB203F03F03D9B27A6850
:10EB800092F82C3061F3050382F82C307B6893F8FF
:10EB900025007B682C330122042100F045FE7B68B0
:10EBA00003F51B736421184604F010FF00BF0837FB
:10EBB000BD4680BD4FE0044E80B582B000AF7860A6
:10EBC0007B68012283F844207B6840F65662A3F8F4
:10EBD00052207B68002283F854200421786804F0D6
:10EBE00087FC786800F078FA7B6893F84E30012B48
:10EBF00001D1012000E002207B6893F8253000223B
:10EC0000194605F089F8786800F0ABF803461A4613
:10EC10007B6883F846207B6893F84630194678680D
:10EC200000F0CFF800220121786801F083FC7B68B6
:10EC300003F51B73184604F0E4FE00BF0837BD4619
:10EC400080BD80B582B000AF78607B6893F84D30AE
:10EC5000032B18D0032B1EDC012B02D0022B09D072
:10EC600019E07A6892F83030012161F3830382F869
:10EC7000303018E07A6892F83030022161F3830373
:10EC800082F830300FE07A6892F8303043F00C03AD
:10EC900082F8303007E07A6892F830306FF38303FF
:10ECA00082F8303000BF7B6893F825007B683033F2
:10ECB0000122062100F0B8FD00BF0837BD4680BD27
:10ECC00080B582B000AF78607B6893F82A3003F09B
:10ECD0000803DBB2002B0ED07A6892F82A3043F09A
:10ECE000040382F82A307A6892F82A306FF3C3035B
:10ECF00082F82A3015E07B6893F82A3003F0040389
:10ED0000DBB2002B0DD07A6892F82A306FF38203C1
:10ED100082F82A307A6892F82A3043F0080382F8A1
:10ED20002A307B6893F825007B682A330122022170
:10ED300000F07AFD00BF0837BD4680BD80B582B0C7
:10ED400000AF78607B6893F84B30002B04D1786873
:10ED500000F007F8034600E0052318460837BD46D3
:10ED600080BD80B584B000AF7860192004F073FFD7
:10ED70007B6893F825007B6840330122402100F036
:10ED800070FD7B6893F84030C3F30103DBB2022BC4
:10ED90000CD0022B0DDC002B02D0012B03D008E09D
:10EDA0000023FB7308E00223FB7305E00323FB73DE
:10EDB00002E00423FB7300BFFB7B18461037BD46FF
:10EDC00080BD80B483B000AF78600B46FB70FB78E9
:10EDD000042B10D0042B13DC022B02D0032B05D004
:10EDE0000EE07B68012283F84C200EE07B68022253
:10EDF00083F84C2009E07B68032283F84C2004E070
:10EE00007B68002283F84C2000BF00BF0C37BD4652
:10EE10005DF8047B704780B582B000AF78600B4628
:10EE2000FB70FB78032B06D87B68FA7883F84D20BB
:10EE30007868FFF706FF00BF0837BD4680BD80B584
:10EE400082B000AF786041F28E21786800F006F859
:10EE5000034618460837BD4680BD000080B584B023
:10EE600000AF78600B467B800023FB7300233B736D
:10EE70003B7B43F040033B737B889B082C4AA2FBFF
:10EE800003235B099BB203F03F03DAB23B7B62F3DF
:10EE900005033B733B7B03F03F03DBB2002B0CD03D
:10EEA0003B7BC3F30503DBB2013BDBB203F03F0363
:10EEB000DAB23B7B62F305033B737B6893F82C204B
:10EEC0003B7B9A420DD07B6893F8250007F10C0339
:10EED0000122042100F0A8FC0123FB73232004F08D
:10EEE000BAFE7B6893F8250007F10B03012240214D
:10EEF00000F0B7FCFB7A03F02003DBB2FB72FB7A75
:10EF0000002B14BF01230023DBB2BB73FB7B012B5F
:10EF100008D17B6893F825007B682C3301220421FB
:10EF200000F082FCBB7B18461037BD4680BD00BF99
:10EF30004FE0044E80B584B000AF78607B68072254
:10EF400083F82A207B6893F825007B682A33012206
:10EF5000022100F069FC7868FFF7F0FE0346FB73BE
:10EF6000FB7B012B07D9FB7B042B04D87B68012298
:10EF700083F84E201CE07B680B2283F82A207B68F4
:10EF800093F825007B682A330122022100F04CFC13
:10EF90007868FFF7D3FE0346FB73FB7B012B07D991
:10EFA000FB7B042B04D87B68022283F84E2000BF31
:10EFB0001037BD4680BD80B483B000AF78607B68F9
:10EFC000052283F846207B68052283F847207B686A
:10EFD000052283F848207B68052283F849207B6856
:10EFE000052283F84A2000BF0C37BD465DF8047B3C
:10EFF000704780B584B000AF78607868FFF79EFEF8
:10F000000346FB737B6893F84B30002B0CD17B6875
:10F0100093F85030042B07D0FB7B032B02D0FB7BF3
:10F02000042B01D10223FB737B6893F84630FA7BF3
:10F030009A420AD07B68FA7B83F846207B6803F506
:10F0400015730F21184604F0C1FC7B6803F5157396
:10F05000184604F0F8FC0346002B0BD07B6893F8AD
:10F0600046207B6883F848207B6803F515731846B3
:10F0700004F0C7FC7B6893F849207B6893F848301C
:10F080009A4210D07B6893F848207B6883F8492027
:10F090007B6803F518736921184604F097FC7B68B8
:10F0A000052283F847207B6803F51873184604F09F
:10F0B000CAFC0346002B0BD07B6893F849207B6881
:10F0C00083F847207B6803F51873184604F099FC11
:10F0D00000BF1037BD4680BD80B582B000AF7860FC
:10F0E0007B6893F8240000230022022104F004FD31
:10F0F0007B68002283F84B207868FFF75CFF7A6812
:10F1000092F83530072161F3030382F835307B68CC
:10F1100093F825007B68353301220B2100F084FB36
:10F120007B6893F84E30002B02D17868FFF702FF1E
:10F130007B6893F84E30012B04D17B68072283F85B
:10F140002A2003E07B680B2283F82A207B6893F84F
:10F1500025007B682A330122022100F065FB7A68D2
:10F1600092F82C3043F0400382F82C307B68B3F8DF
:10F1700052309B08224AA2FB03235B099BB2DBB2FD
:10F18000013BDBB203F03F03D9B27A6892F82C302E
:10F1900061F3050382F82C307A6892F834306FF30B
:10F1A000451382F834307A6892F834306FF30003F4
:10F1B00082F834307B6893F825007B682C33012279
:10F1C000042100F031FB7B6893F825007B68343321
:10F1D00001220A2100F028FB786800F013F87B6810
:10F1E00003F51573184604F00CFC7B6803F51873DF
:10F1F0007821184604F0EAFB00BF0837BD4680BD01
:10F200004FE0044E80B582B000AF78607868FFF7B9
:10F2100057FD7868FFF792FD03461A467B6883F82E
:10F220004A207868FFF74CFD00BF0837BD4680BD17
:10F2300080B582B000AF78607B6893F8240000232B
:10F240000022022104F058FC0121786801F09FFAA5
:10F250007B68FF2283F834207B6893F825007B6865
:10F26000343301220A2100F0DFFA7B68FF2283F8A1
:10F2700038207B6893F825007B68383301220E2103
:10F2800000F0D2FA7A6892F8393043F0010382F83C
:10F2900039307B6893F825007B68393301220F21D0
:10F2A00000F0C2FA7A6892F832306FF3000382F805
:10F2B00032307A6892F830306FF3830382F830305E
:10F2C0007B6893F825007B6830330322062100F029
:10F2D000ABFA7B68002283F82A207B6893F825002C
:10F2E0007B682A330122022100F09EFA786804F03C
:10F2F00043FB7868FFF75FFE7B68002283F84E20AF
:10F300007B6803F51573184604F07BFB7B6803F5F7
:10F310001873184604F075FB7B6893F825300022BB
:10F320001946042004F0F8FC7A6892F8353001217F
:10F3300061F3030382F835307B6893F825007B681E
:10F34000353301220B2100F06FFA00BF0837BD46AC
:10F3500080BD80B582B000AF78607B68012283F801
:10F3600044207B68002283F854207B6893F82400B3
:10F3700000230022022104F0BFFB7B6893F82430B5
:10F380000121184604F0E3FB7A6892F832306FF3FB
:10F39000000382F832307B6893F825007B683233B3
:10F3A0000122082100F040FA1A21786804F0A0F840
:10F3B00003217868FFF72FFD7A6892F82C3024211A
:10F3C00061F3050382F82C307A6892F82C306FF3E1
:10F3D000861382F82C307B6893F825007B682C33E9
:10F3E0000122042100F020FA7B68012283F84B20DF
:10F3F0007A6892F83530072161F3030382F83530DB
:10F400007B6893F825007B68353301220B2100F0DF
:10F410000BFA7B6893F8283023F00F03DBB2802BC4
:10F4200004D17B68472283F82A2003E07B68C72247
:10F4300083F82A207B6893F825007B682A33012211
:10F44000022100F0F1F97B68012283F84E207868F0
:10F45000FFF774FC03461A467B6883F846207B68F6
:10F4600093F84630012B04D97B6893F84630042B7F
:10F4700025D97B68022283F84E207B6893F82830D8
:10F4800023F00F03DBB2802B04D17B688B2283F83F
:10F490002A2003E07B68CB2283F82A207B6893F83C
:10F4A00025007B682A330122022100F0BDF978682B
:10F4B000FFF744FC03461A467B6883F846207B68C6
:10F4C00093F84630012B22D97B6893F84630042B01
:10F4D0001DD87A6892F834306FF3451382F83430CF
:10F4E0007A6892F834306FF3000382F834307B6826
:10F4F00093F825007B68343301220A2100F094F947
:10F500007B6803F51B73184604F07BFA03E0786808
:10F51000FFF711FA00BF00BF0837BD4680BD80B5B8
:10F5200082B000AF78607B68012283F844207B685A
:10F5300093F8423003F02003DBB2002B16D078683A
:10F54000FFF7FCFB03461A467B6883F846207B687E
:10F5500093F84630002B09D17B6893F824300021C2
:10F56000184604F0F4FA7868FFF7E5F900BF0837A9
:10F57000BD4680BD80B48BB000AF786007F1080352
:10F5800000221A605A609A60DA601A615A619A61C0
:10F590003B894FF4967262F309033B81BB68642296
:10F5A00062F39323BB60FB7A43F00203FB72FB7AA6
:10F5B00043F00803FB72FB7A43F02003FB72BB8924
:10F5C0004FF4967262F30903BB81FB68B42262F3C5
:10F5D0009323FB603B7C3C2262F306033B741E23B7
:10F5E0007B747B8A6E2262F348037B82FB7C43F050
:10F5F000C003FB74002387F8273012E097F8273008
:10F6000097F82720920079680A449B0007F12801A7
:10F610000B4453F8203C136097F82730013387F8E8
:10F62000273097F82730062BE8D900BF00BF2C37CA
:10F63000BD465DF8047B704780B48BB000AF786046
:10F6400007F1080300221A605A609A60DA601A61B2
:10F650005A619A613B890A2262F309033B81BB68C4
:10F66000642262F39323BB60FB7A43F00203FB72D4
:10F67000FB7A43F00803FB72FB7A43F02003FB7232
:10F68000BB890A2262F30903BB81FB68B42262F3DF
:10F690009323FB60FB7B43F00203FB73FB7B43F094
:10F6A0000803FB73FB7B43F02003FB73FB7C43F0FD
:10F6B0000203FB74FB7C43F00803FB74FB7C43F008
:10F6C0002003FB74FB7D43F00203FB75FB7D43F0DD
:10F6D0000803FB75FB7D43F02003FB75FB7E43F0C5
:10F6E0000203FB76FB7E43F00803FB76FB7E43F0D0
:10F6F0002003FB76FB7F43F00203FB77FB7F43F0A5
:10F700000803FB77FB7F43F02003FB7797F8233058
:10F7100043F0020387F8233097F8233043F00803BF
:10F7200087F8233097F8233043F0200387F82330FD
:10F73000002387F8273012E097F8273097F8272022
:10F74000920079680A449B0007F128010B4453F8A2
:10F75000203C136097F82730013387F8273097F85B
:10F760002730062BE8D900BF00BF2C37BD465DF817
:10F77000047B704780B582B000AF78600B46FB70A9
:10F78000FB781946786803F037FE0121786800F0AD
:10F7900007F8786800F03DF800BF0837BD4680BD27
:10F7A00080B483B000AF78600B46FB707B68FA785A
:10F7B00083F84F2000BF0C37BD465DF8047B7047CF
:10F7C00080B584B000AF78607B6893F8333043F045
:10F7D0004003DBB2FB737B6893F8A730012B11D198
:10F7E0007B6803F52173184604F02DF90346002BBE
:10F7F00008D07B6893F8250007F10F030122092147
:10F8000000F012F87868FEF77FFE00BF1037BD46A3
:10F8100080BD80B582B000AF78607868FFF78BF864
:10F8200000BF0837BD4680BD90B587B004AF3B60D0
:10F830000346FB710B46BB7113467B71BB797C7928
:10F840007979F8793A68029201930123009323466B
:10F850000A46012104F095F9034618460C37BD46C7
:10F8600090BD90B587B004AF3B600346FB710B467B
:10F87000BB7113467B71BB797C797979F8793A68E9
:10F88000029201930123009323460A46012104F0CA
:10F89000B0F9034618460C37BD4690BD80B582B01E
:10F8A00000AF78607B6893F83E3003F00103DBB271
:10F8B000002B07D17B6893F83E3003F00803DBB2DE
:10F8C000002B19D00121786800F0BEFD7B6893F809
:10F8D0005B30002B0BD07B6803F521731E2118468B
:10F8E00004F074F80A21786803F016FE39E01D214F
:10F8F000786803F011FE34E07B6893F8AA30072B98
:10F900002ED801A252F823F061F9010049F9010053
:10F9100029F9010041F9010061F9010051F90100E3
:10F9200061F9010059F90100786800F03BFD7B683E
:10F93000042283F8C2217B68032283F8AA2010E006
:10F94000786800F06CF80CE0786800F00FF808E0D8
:10F95000786800F024FB04E0786800F09DFB00E08C
:10F9600000BF00BF0837BD4680BD00BF80B582B074
:10F9700000AF78607B6893F8C231012B04D17B68BB
:10F98000022283F8AA2046E07B6893F83F3003F018
:10F990000103DBB2002B04D17B6893F8C431002B48
:10F9A00021D07B6893F85032002B06D0786800F0A5
:10F9B00033FD7B68002283F850227B6893F8C331C3
:10F9C000002B04D10021786800F043F803E07B6845
:10F9D000012283F8C4217A6892F83F306FF3000364
:10F9E00082F83F3017E07B6893F8C231022B12D1C6
:10F9F0007B6893F8C331002B04D17B6893F8C43142
:10FA0000002B04D07B68082283F8C22103E07868C9
:10FA100000F0B5F9FFE700BF0837BD4680BD80B4F0
:10FA200083B000AF78607B6893F83E3003F0080342
:10FA3000DBB2002B07D07B68012283F8AA207B6809
:10FA4000052283F8C22100BF0C37BD465DF8047B58
:10FA5000704780B586B000AF78600B46FB7000231E
:10FA60007B6100233B617B68002283F8C4217B68B3
:10FA700003F52473184603F0C4FF7B6893F8250050
:10FA80007B68413301224121FFF7EBFE7B6893F84D
:10FA9000413003F02003DBB2002B40F06A81FB7899
:10FAA000002B19D17B6893F8250007F10C03032282
:10FAB0004321FFF7D6FE7A7B7B6883F8AC20BA7BC4
:10FAC0007B6883F8AD203B7B184603F0A3FB03461D
:10FAD0001A467B6883F8C0217B6893F8C031FF2BFE
:10FAE00000F049817B6893F8AD3003F07003DBB21E
:10FAF000002B1ED17B6893F8AC3003F01F03DBB200
:10FB00000D2B16D17B6893F8C0311A467B681344DD
:10FB1000002283F846227B6893F8C0311A467B683E
:10FB20001344FF2283F84B227B68012283F8C32110
:10FB300023E07B6893F8AD30C3F34203DBB21A468F
:10FB40007B6893F8C03119467B680B4493F84B32BD
:10FB50009A4212D07B6893F8AD30C3F34203D9B216
:10FB60007B6893F8C0311A467B6813440A4683F8D1
:10FB70004B227B68012283F8C3217B6893F8AD3068
:10FB800003F07003DBB2002B21D17B6893F8AC301B
:10FB900003F01F03DBB2012B19D17B6893F825001A
:10FBA00007F10C0304224321FFF75BFE7B6801226F
:10FBB00083F8AA207B68052283F8C2217B68002293
:10FBC00083F8C32100217868FFF743FFD4E07B6806
:10FBD00093F8AD3003F07003DBB2002B3DD07B68AF
:10FBE00093F825007B6893F8AD30C3F30213DBB2C2
:10FBF0009B00DBB20433DAB27B6803F206234321B5
:10FC0000FFF72FFE00237B611CE000233B6113E024
:10FC10007B699A003B6913447A68134493F806128F
:10FC20007A687B699B001A443B691344B8330A46DF
:10FC30001A703B6901333B613B69032BE8D97B694F
:10FC400001337B617B6893F8AD30C3F30213DBB201
:10FC50001A467B699342D8D308E07B6893F8250065
:10FC600007F10C0304224321FFF7FBFD7B6893F8A7
:10FC7000AD3003F07003DBB2002B30D07B6893F81B
:10FC8000AC3003F01F03DBB20F2B28D17B6893F855
:10FC9000B83023F03F03DBB2002B20D1642003F007
:10FCA000DAFF7B6893F825007B683F3303223F210E
:10FCB000FFF7D7FD7B6893F83F3003F00103DBB219
:10FCC000002B46D07B6893F8413003F02003DBB271
:10FCD000002B3ED100217868FFF7BBFE39E07B683E
:10FCE00093F825007B68403302224021FFF7B9FDDD
:10FCF0007B6893F8403003F04003DBB2002B29D13E
:10FD00007B6893F8413003F02003DBB2002B21D154
:10FD1000322003F0A0FF7B6893F825007B68403316
:10FD200002224021FFF79DFD7B6893F8403003F0ED
:10FD30004003DBB2002B0DD17B6893F8413003F018
:10FD40002003DBB2002B05D17B68012283F8C4219C
:10FD500000E000BF7B6893F8C331002B0CD07B68B8
:10FD600093F8C231022B07D17B68082283F8C221A5
:10FD700002E000BF00E000BF1837BD4680BD80B57F
:10FD800086B000AF78600023BB817B68002283F8D7
:10FD900050227B6893F8C1311946786800F00DFA5B
:10FDA0007B68B3F8AE30BB817B7B03F07003DBB2C2
:10FDB000002B17D13B7B03F01F03DBB20D2B11D1BE
:10FDC0007B6893F8C1311A467B681344002283F89C
:10FDD00046227B6893F8C1311A467B681344FF22A0
:10FDE00083F84B227B6893F8C1311A467B68134431
:10FDF00093F8463203F00703DAB27B7B62F34303E6
:10FE00007B737B7BC3F30213DBB29B00DBB2023359
:10FE1000DBB25BB263F07F0358B27B6893F8C53105
:10FE20005A1CD1B27A6882F8C5111946C2B27B68F1
:10FE30000B4483F8C6217B6893F8C5315A1CD1B2B4
:10FE40007A6882F8C51119463A7B7B680B4483F8BF
:10FE5000C6217B6893F8C5315A1CD1B27A6882F802
:10FE6000C51119467A7B7B680B4483F8C6217B7BDE
:10FE700003F07003DBB2002B2BD000237B6120E06A
:10FE800000233B6117E07B6893F8C5315A1CD1B25F
:10FE90007A6882F8C51119467A687B699B001A4412
:10FEA0003B691344D4331A787B680B4483F8C6212A
:10FEB0003B6901333B613B69032BE4D97B69013327
:10FEC0007B617B7BC3F30213DBB21A467B699342EF
:10FED000D6D3786800F032FA7B6893F825007B6807
:10FEE00093F8C5217B6803F5E3734321FFF79CFC7E
:10FEF0000346002B08D17B68012283F850227B68DF
:10FF0000082283F8C22147E07B6893F8C131194683
:10FF1000786803F0E9FF034603F00303D9B27A6877
:10FF200092F8333061F3420382F833307A6892F802
:10FF3000333043F0010382F833307B6893F82500B7
:10FF40007B68333301220921FFF76EFC7A6892F84F
:10FF5000303043F0010382F830307B6893F825009D
:10FF60007B68303301220621FFF75EFC7A6892F845
:10FF700030306FF3000382F830307B68032283F85F
:10FF8000C2217B68052283F8AA207B6803F52473CD
:10FF90001E21184603F01AFD1837BD4680BD80B5F6
:10FFA00082B000AF78607B6893F83E3003F00403C2
:10FFB000DBB2002B07D17B6893F8423003F01003CB
:10FFC000DBB2002B11D07A6892F83E306FF38203D7
:10FFD00082F83E307A6892F842306FF3041382F868
:10FFE0004230786800F058F84AE07B6893F8423075
:10FFF00003F00203DBB2002B0FD07A6892F8423094
:020000022000DC
:100000006FF3410382F842307B68072283F8C221F4
:100010007B68012283F8AA2032E07B6893F83E30A7
:1000200003F01003DBB2002B0FD07A6892F83E3059
:100030006FF3041382F83E307B68062283F8C221F6
:100040007B68012283F8AA201AE07B6893F83F308E
:1000500003F00103DBB2002B12D07B68062283F889
:10006000C2217B68012283F8AA207B68012283F8E1
:10007000C4217A6892F83F306FF3000382F83F3072
:100080007B6893F8AA30012B02D17868FFF76EFCE9
:1000900000BF0837BD4680BD80B586B000AF786030
:1000A0007B6893F8250007F1100303224321FFF733
:1000B000D8FB7B7C3B73BB7C7B733B7C184603F09B
:1000C000A9F80346BB757B7B03F07003DBB2002B02
:1000D0005AD13B7B03F01F03DBB2012B54D1BB7D14
:1000E000FF2B02D1FF23FB7505E0BB7D7A6813442B
:1000F00093F84632FB757B7BC3F34203DBB21A46AF
:10010000FB7D9A4211D07B6893F8250007F110031C
:1001100004224321FFF7A5FB7B68062283F8C22156
:100120007B68012283F8AA2043E0BB7DFF2B19D016
:10013000BB7D7A681A4492F846220132D1B27A68BD
:1001400013440A4683F84622BB7D7A68134493F829
:100150004622BB7D02F00702D1B27A6813440A46F8
:1001600083F846227B68012283F8AA207B68052257
:1001700083F8C2217B6893F8250007F1100304225D
:100180004321FFF76EFB14E07B68012283F8AA206D
:100190007B68062283F8C221BA897B68A3F8AC2069
:1001A0007B68BA7D83F8C02101217868FFF751FC94
:1001B00000BF00BF1837BD4680BD80B483B000AF1C
:1001C00078600B46FB707B68002283F8C521FB78C2
:1001D000012B02D0022B39D071E07B6893F8C53136
:1001E0005A1CD1B27A6882F8C5111A467B6813444A
:1001F000122283F8C6217B6893F8C5315A1CD1B20C
:100200007A6882F8C5111A467B681344122283F873
:10021000C6217B6893F8C5315A1CD1B27A6882F83E
:10022000C5111A467B6813441B2283F8C6217B68DC
:1002300093F8C5315A1CD1B27A6882F8C5111A46B2
:100240007B6813441B2283F8C62171E07B6893F816
:10025000C5315A1CD1B27A6882F8C5111A467B683A
:100260001344122283F8C6217B6893F8C5315A1CC7
:10027000D1B27A6882F8C5111A467B6813441B22F2
:1002800083F8C6217B6893F8C5315A1CD1B27A68CD
:1002900082F8C5111A467B681344122283F8C621DE
:1002A0007B6893F8C5315A1CD1B27A6882F8C511BF
:1002B0001A467B6813441B2283F8C62138E07B680A
:1002C00093F8C5315A1CD1B27A6882F8C5111A4622
:1002D0007B681344122283F8C6217B6893F8C531EA
:1002E0005A1CD1B27A6882F8C5111A467B68134449
:1002F000122283F8C6217B6893F8C5315A1CD1B20B
:100300007A6882F8C5111A467B681344122283F872
:10031000C6217B6893F8C5315A1CD1B27A6882F83D
:10032000C5111A467B681344132283F8C62100BF07
:1003300000BF0C37BD465DF8047B704780B483B0C6
:1003400000AF78607B6893F8C5315A1CD1B27A68E7
:1003500082F8C5111A467B681344FF2283F8C62130
:100360007B6893F8C5315A1CD1B27A6882F8C511FE
:100370001A467B681344142283F8C6217B6893F8DD
:10038000C5315A1CD1B27A6882F8C5111A467B6809
:100390001344FE2283F8C62100BF0C37BD465DF82A
:1003A000047B704780B584B000AF78607B6893F8B9
:1003B000333043F04003DBB2FB737B6893F8A73024
:1003C000002B04D07B68002283F8A72008E07B681C
:1003D00093F8250007F10F0301220921FFF724FA02
:1003E00000BF1037BD4680BD80B584B000AF7860D7
:1003F0007B6893F8313043F00403DBB2FB737B6816
:1004000093F8250007F10F0301220721FFF70CFAEB
:1004100000BF1037BD4680BD80B584B000AF7860A6
:100420007B6893F8303043F04003DBB2FB737B68AA
:1004300093F8250007F10F0301220621FFF7F4F9D5
:1004400000BF1037BD4680BD80B584B000AF786076
:100450000B46FB700223FB72FB78002B08D07B68F5
:1004600093F8250007F10B0301220C21FFF7DCF9BB
:100470007B68012283F8AA207B68002283F8C221CE
:100480007B68002283F8A7207B68002283F8C521BF
:100490000023FB6010E07A68FB68134403F24623F4
:1004A00000221A707A68FB68134403F24B23FF2280
:1004B0001A70FB680133FB60FB68042BEBD97B6887
:1004C000002283F8C3217B68002283F8C0217B6867
:1004D000002283F8C4217B68002283F862207B68B5
:1004E000002283F85D207B680022C3F844217B68EA
:1004F0000022A3F8B2207B680022A3F8B4200023D6
:10050000FB600FE07A68FB6842339B0013440022D3
:100510005A607B68FA684A32002143F82210FB686F
:100520000133FB60FB68062BECD900BF00BF10371E
:10053000BD4680BD80B582B000AF78600B46FB70D1
:100540001346BB707B6800229A777B680022DA77BB
:100550007B6800229A767B680022DA767B6800222C
:100560001A777B6800225A777B68002283F85F2025
:100570007B68002283F860207B68002283F8642077
:100580007B6893F85A30012B40F0FD800121786898
:10059000FFF75AFF7B6893F84E30012B1CD17A6825
:1005A00092F82B3043F0010382F82B307A6892F8EE
:1005B0002A3043F0040382F82A307A6892F82B300C
:1005C0006FF3410382F82B307A6892F82A306FF388
:1005D000C30382F82A3020E07B6893F84E30022B68
:1005E0001BD17A6892F82B3043F0020382F82B304B
:1005F0007A6892F82A3043F0080382F82A307A6841
:1006000092F82B306FF3000382F82B307A6892F85F
:100610002A306FF3820382F82A307B6893F84E30D9
:10062000002B00F0AC807B68012283F85920BB7856
:10063000012B0CBF01230023DBB21A467B6883F831
:100640005B20BB78012B0CBF01230023DBB21A46D1
:100650007B6883F85C20BB78012B0CBF012300234F
:10066000DBB21A467B6883F861207B6893F85B30C5
:10067000002B20D00621786802F04EFF7A6892F8AD
:100680002B3043F0800382F82B307A6892F82B30BD
:1006900043F0100382F82B307A6892F831306FF310
:1006A000000382F831307A6892F831306FF34103F9
:1006B00082F8313033E01E21786802F02DFF7B682C
:1006C00003F52173184603F09CF97A6892F82B30F1
:1006D0006FF3C71382F82B307A6892F82B306FF3E0
:1006E000041382F82B307A6892F831306FF30003EC
:1006F00082F831307A6892F831306FF3451382F81E
:1007000031307A6892F831306FF3410382F831303A
:100710007A6892F831306FF3861382F831307A6854
:1007200092F82B306FF3820382F82B307A6892F8BC
:1007300030306FF3410382F830307A6892F833300A
:1007400043F0010382F833307B6893F825007B681F
:10075000303304220621FFF767F8FB78002B08D01E
:100760007B6893F825007B682B3301220321FFF778
:100770005BF87B6803F52773184603F042F97B6842
:10078000002283F8452000BF0837BD4680BD80B5F4
:1007900082B000AF78600B46FB707B6893F8313015
:1007A00003F01003DBB2002B0FD07A6892F83130DF
:1007B0006FF3041382F831307B6893F825007B686F
:1007C000313301220721FFF72FF87B68002283F8DD
:1007D0005F207B68002283F860207B68012283F819
:1007E00045207B6893F821207B6883F8A4207B68F0
:1007F00093F821207B6883F8A5207B68002283F88A
:1008000059207B68002283F8AA200021786802F032
:1008100083FE7B68002283F85B207B68002283F8DC
:100820005D207B6840F65662A3F852207B6893F8FF
:100830002530002219464FF4807003F06DFA7B6872
:1008400093F8253000221946102003F065FAFB7852
:10085000002B1DD07A6892F82B306FF3000382F8DA
:100860002B307A6892F82B306FF3410382F82B30EB
:100870007A6892F82B306FF3820382F82B307B6812
:1008800093F825007B682B3301220321FEF7CCFF70
:100890007A6892F83530072161F3030382F8353026
:1008A0007B6893F825007B68353301220B21FEF726
:1008B000BBFF7868FFF798FD7868FFF7ADFD7A68B1
:1008C00092F8343043F0020382F834307B6893F8B6
:1008D00025007B68343301220A21FEF7A5FF7A68E0
:1008E00092F8383043F0100382F838307A6892F882
:1008F000383043F0040382F838307A6892F83830A0
:1009000043F0010382F838307B6893F825007B6858
:10091000383301220E21FEF787FF7A6892F83930CA
:1009200043F0010382F839307B6893F825007B6837
:10093000393301220F21FEF777FF7A6892F84230AF
:1009400043F0200382F8423000BF0837BD4680BD27
:1009500080B582B000AF78607B6893F856307B2B0F
:1009600000F2748101A252F823F000BF550C02007E
:100970005D0B02004D0C02004D0C02004D0C0200FC
:100980004D0C02004D0C02004D0C02004D0C0200FB
:100990004D0C02004D0C02004D0C02004D0C0200EB
:1009A0004D0C02004D0C02004D0C02004D0C0200DB
:1009B0004D0C02004D0C02004D0C02004D0C0200CB
:1009C0004D0C02004D0C02004D0C02004D0C0200BB
:1009D0004D0C02006D0B0200750B02007D0B020036
:1009E000850B0200650B02008D0B0200950B0200C7
:1009F0009D0B0200A50B0200AD0B0200B50B02001F
:100A0000BD0B0200C50B0200CD0B0200D50B02008E
:100A1000DD0B02000D0C0200E50B02004D0C020084
:100A20004D0C0200ED0B0200F50B02004D0C020014
:100A30004D0C0200FD0B0200050C02004D0C0200E3
:100A40004D0C0200150C02004D0C02004D0C020072
:100A50004D0C02004D0C02004D0C02004D0C02002A
:100A60004D0C02004D0C02004D0C02004D0C02001A
:100A70004D0C02004D0C02004D0C02004D0C02000A
:100A80004D0C02004D0C02004D0C02004D0C0200FA
:100A90004D0C02004D0C02004D0C02004D0C0200EA
:100AA0004D0C02004D0C02004D0C02004D0C0200DA
:100AB0004D0C02004D0C02004D0C02004D0C0200CA
:100AC0004D0C02004D0C02004D0C02004D0C0200BA
:100AD0004D0C02004D0C02004D0C02004D0C0200AA
:100AE0004D0C02004D0C02004D0C02004D0C02009A
:100AF0004D0C02004D0C02004D0C02004D0C02008A
:100B00004D0C02004D0C02004D0C02004D0C020079
:100B10004D0C02004D0C02004D0C02004D0C020069
:100B20004D0C02004D0C02004D0C02004D0C020059
:100B30004D0C02004D0C02001D0C0200250C0200A1
:100B40002D0C0200350C02004D0C02004D0C020071
:100B50004D0C02003D0C0200450C0200786800F0CC
:100B60007FF878E0786800F0E9FA74E0786800F0DF
:100B7000F1F870E0786800F0F8F86CE0786800F060
:100B80000FF968E0786800F06EF964E0786800F0CA
:100B9000E3FB60E0786800F009FC5CE0786800F056
:100BA00077FC58E0786800F027FE54E0786800F0A1
:100BB0000DFF50E0786800F0A3FF4CE0786801F08A
:100BC00035F948E0786801F0DAF944E0786801F036
:100BD00055F940E0786801F0C6F93CE0786801F02A
:100BE00029FA38E0786801F0D8FA34E0786801F042
:100BF00039FB30E0786801F0B9FC2CE0786801F04E
:100C0000F1FD28E0786801F0F7FD24E0786801F054
:100C100005FE20E0786800F02EF81CE0786802F00D
:100C20003DFA18E0786802F043FA14E0786802F0C0
:100C300049FA10E0786802F0D0FA0CE0786801F028
:100C400041FE08E0786801F0A7FE04E0786801F052
:100C500023FE00E000BF00BF0837BD4680BD00BFD7
:100C600080B582B000AF78607868FDF74AFE00BFBB
:100C70000837BD4680BD80B584B002AF78607B6820
:100C800093F8A430012B11D17B6893F85B30002BD3
:100C900001D00F2200E024227B6893F8C03100933A
:100CA00000230421786801F01DFF4FE07B6893F872
:100CB0005730002B02D0012B1ED034E07B6893F814
:100CC000F632012B13D17B6803F5217328211846D6
:100CD00002F07CFE7B6893F857300133DAB27B6810
:100CE00083F857207B68002283F8F6222EE07B6889
:100CF000022283F8572029E07B6803F52173184608
:100D000002F0A1FE0346002B1FD07B6803F5217380
:100D1000184602F076FE7B6893F857300133DAB25A
:100D20007B6883F857207B6893F85B30002B01D0F9
:100D30000F2200E024227B6893F8C0310093002347
:100D40001021786801F0CEFE00E000BF00BF083738
:100D5000BD4680BD80B582B000AF7860786801F094
:100D600097FE00BF0837BD4680BD80B584B002AF96
:100D7000786000230093002320220321786801F08B
:100D8000B1FE0346012B07D17B6803F521734FF4B5
:100D9000FA71184602F01AFE00BF0837BD4680BD42
:100DA00080B584B002AF78607B6893F85730002B31
:100DB00016D10023009301231C220D21786801F035
:100DC00091FE0346012B49D17B6803F5217318215D
:100DD000184602F0FBFD7B68012283F8A7203DE066
:100DE0007B6893F8C331002B25D07B68002283F801
:100DF000C3217B6893F8AD3003F07003DBB2002BA6
:100E000014D17B6893F8AC3003F01F03DBB2032BE3
:100E10000CD12021786802F07FFB7B6803F52173F9
:100E20004FF4FA71184602F0D1FD18E01A217868E3
:100E300002F072FB13E07B6803F52173184602F0A1
:100E400002FE0346002B04D01A21786802F064FBEE
:100E500005E07B68012283F8452000E000BF00BF69
:100E60000837BD4680BD80B582B000AF78607B6832
:100E700093F85730022B00F01F81022B00F35481AE
:100E8000002B03D0012B00F0C5804DE17A6892F869
:100E90003530072161F3030382F835307B6893F81E
:100EA00025007B68353301220B21FEF7BDFC7A68F3
:100EB00092F82C3043F0400382F82C307A6892F894
:100EC0002C30012161F3050382F82C307B6893F804
:100ED00025007B682C3301220421FEF7A5FC7B68EA
:100EE000012283F85F207B68002283F85D207B6805
:100EF00093F821207B6883F8A4207B6893F8212055
:100F00007B6883F8A5207B6840F65662A3F85220E0
:100F10007B6893F82530002219464FF4807002F068
:100F2000FBFE7B6893F8253000221946102002F062
:100F3000F3FE7B6803F521734FF42B71184602F022
:100F400045FD7B6893F85C30002B30D07B68002235
:100F500083F85C207B6893F85C3003F00103D9B21E
:100F60007A6892F82B3061F3041382F82B307B6897
:100F700093F825007B682B3301220321FEF754FCF4
:100F80007A6892F831306FF3000382F831307A6872
:100F900092F831306FF3410382F831307B6893F877
:100FA00025007B68313301220721FEF73DFC7B6879
:100FB00093F86130002B1AD07A6892F82A306FF3D8
:100FC000041382F82A307A6892F82A306FF34513B6
:100FD00082F82A307B6893F825007B682A33012247
:100FE0000221FEF721FC7B68002283F861207868EB
:100FF000FFF712FA7868FFF7F7F901217868FFF731
:1010000023FA7B6893F857300133DAB27B6883F8B0
:1010100057208EE07B6893F8423003F02003DBB268
:10102000002B30D040F2EC417868FDF717FF034603
:10103000002B28D17B6893F857300133DAB27B68F4
:1010400083F857207A6892F82C3043F0400382F8F6
:101050002C307A6892F82C300A2161F3050382F86B
:101060002C307B6893F825007B682C330122042107
:10107000FEF7DAFB7B6803F5217340F2FB4118466B
:1010800002F0A4FC55E07B6803F52173184602F0DA
:10109000DAFC0346002B0AD07B6803F5217318465F
:1010A00002F0AFFC1E21786802F036FA41E07B685E
:1010B000012283F845203CE07B6893F8423003F03E
:1010C0002003DBB2002B16D041F28E217868FDF7A9
:1010D000C5FE0346002B0ED07B6803F5217318462E
:1010E00002F08FFC7B6893F857300133DAB27B68EB
:1010F00083F857201DE07B6803F52173184602F042
:10110000A2FC0346002B0AD07B6803F52173184626
:1011100002F077FC1E21786802F0FEF909E07B6896
:10112000012283F8452004E01E21786802F0F4F9DA
:1011300000BF00BF0837BD4680BD000080B582B04B
:1011400000AF78607A6892F82C3043F0400382F860
:101150002C307B68B3F852309B087E4AA2FB0323F5
:101160005B099BB2DBB2013BDBB203F03F03D9B2B8
:101170007A6892F82C3061F3050382F82C307B6892
:1011800093F825007B682C3301220421FEF74CFBE9
:101190007A6892F834306FF3410382F834307B6818
:1011A00093F825007B68343301220A21FEF73CFBCB
:1011B0007A6892F838306FF3041382F838307A681E
:1011C00092F838306FF3C30382F838307A6892F8B7
:1011D00038306FF3820382F838307A6892F838300A
:1011E0006FF3000382F838307B6893F825007B6842
:1011F000383301220E21FEF717FB7A6892F8393056
:101200006FF3000382F839307B6893F825007B6820
:10121000393301220F21FEF707FB7B6893F8283052
:1012200023F00F03DBB2802B18D17B6893F83130A9
:1012300003F00403DBB2002B28D07A6892F8313037
:101240006FF3820382F831307B6893F825007B6866
:10125000313301220721FEF7E7FA17E07B6893F8A4
:10126000333003F02003DBB2002B0FD07A6892F802
:1012700033306FF3451382F833307B6893F82500E1
:101280007B68333301220921FEF7CEFA7B68002206
:10129000C3F844217B680022C3F84C217B680022FC
:1012A00083F860207B68002283F85B207B68002243
:1012B00083F8A6207B6893F85B3003F00103D9B272
:1012C0007A6892F82B3061F3C71382F82B307B6871
:1012D00093F825007B682B3301220321FEF7A4FA43
:1012E00000217868FFF7B0F87A6892F82B3043F065
:1012F000040382F82B307B6893F825007B682B333E
:1013000001220321FEF790FA7A6892F8353043F013
:101310000F0382F835307B6893F825007B683533FE
:1013200001220B21FEF780FA7B68002283F86520FA
:101330007B68002283F863207B6803F521731846DD
:1013400002F05FFB1F21786802F0E6F800BF083763
:10135000BD4680BD4FE0044E80B582B000AF7860DE
:101360007868FDF76CFD0346002B10D07B680022E7
:1013700083F85F202021786802F0CEF87B6803F5BF
:1013800021734FF4AF71184602F020FB0AE07B682E
:1013900003F521730A21184602F018FB7B6801222D
:1013A00083F8452000BF0837BD4680BD80B582B0B8
:1013B00000AF78607B6893F8C331002B3CD07B682A
:1013C000002283F8C3217B6893F8AD3003F07003EB
:1013D000DBB2002B1BD07B6893F8AC3003F01F030B
:1013E000DBB2012B13D10121786801F003FE7B6889
:1013F00093F8AC30C3F38113DBB21A46002178684E
:1014000002F039FD2121786802F086F83BE07B6824
:1014100093F8AD3003F07003DBB2002B33D17B685F
:1014200093F8AC3003F01F03DBB20D2B2BD11B2143
:10143000786802F071F826E07B6893F85D30012B44
:1014400009D17B6893F86430022B04D901217868B4
:1014500002F062F817E07B6893F86430022B0DD835
:101460007B6803F52173184602F0EDFA0346002B62
:1014700004D01A21786802F04FF804E07B6801225A
:1014800083F84520FFE700BF0837BD4680BD000058
:1014900080B58AB000AF786000233B620023FB6117
:1014A0000023BB6100233B610023FB607B680022BB
:1014B00083F864207B680022DA6000237B6228E0E6
:1014C0007B681B687968184602F0AAFC02467B6AB2
:1014D0009B0013441B68C3F389239BB21A467B68A5
:1014E000DB689A420ED97B681B687968184602F05F
:1014F00097FC02467B6A9B0013441B68C3F3892355
:101500009BB201E07B68DB687A68D3607B6A013359
:101510007B627B681B687968184602F067FC0346AB
:101520005B78C3F30213DBB21A467B6A9342C7DBD4
:101530007B68DB68322203FB02F27B68DA600023FF
:101540007B6249E07A687B6A42339B001344DB7913
:10155000C3F38113DBB2002B2BD17A687B6A423351
:101560009B0013445B68C3F389239BB21A46322362
:1015700002FB03F3FB617B68DB68FA699A4227D8B8
:101580007A687B6A42339B0013449B88C3F3090348
:101590009BB21A4613469B0013445B00BB61FB6978
:1015A000BA6902FB03F3914AA2FB03239B097B6107
:1015B00002E000237B6100BF7A693B699A4208D34D
:1015C0007B693B61FB69FB607B6A01333B6200E046
:1015D00000BF7B6A01337B627B6893F8B330C3F34F
:1015E0000213DBB21A467B6A9342ABDB3B6A002BE9
:1015F00040F3EB80FB68002B00F0E7803B6A013B87
:101600007A6842339B001344DB79C3F38113DBB266
:10161000032B0CBF01230023DBB21A467B6883F83F
:10162000A6207B68D3F80C217B68C3F84C217B682B
:101630000022C3F848213B6A03F00703D9B27A6855
:1016400092F84B3161F3061382F84B317B68DB79FA
:1016500003F00103D9B27A6892F84B3161F3C30306
:1016600082F84B317B681B7A03F00103D9B27A68A8
:1016700092F84B3161F3000382F84B317B685B7A5F
:1016800003F00103D9B27A6892F84B3161F3410358
:1016900082F84B317B685B694FF47A7203FB02F28C
:1016A000FB68B2FBF3F3BB607B6893F8A630002BBA
:1016B0001ED0BB684E4AA2FB03231B0903F07F0325
:1016C000D9B27A6892F8483161F3060382F848315A
:1016D000FB68484AA2FB03231B09C3F30A0399B220
:1016E0007A68D2F8483161F35323C2F8483127E0D1
:1016F000BB68404AA2FB0323DB08C3F3090399B28A
:101700007A68D2F8483161F39323C2F848317B6894
:101710001B694FF47A7203FB02F2FB68B2FBF3F32E
:10172000BB60BB68334AA2FB0323DB08C3F3090396
:1017300099B27A68B2F8483161F30903A2F84831E6
:101740007B68DB79002B07D07A6892F84B316FF316
:10175000820382F84B3133E0BA69BB689A4228D2DF
:101760007A6892F84B3143F0040382F84B317B687E
:101770001B687968184602F053FB03461B88C3F3C5
:10178000090399B27A68B2F8483161F30903A2F803
:101790004831BB69174AA2FB0323DB08C3F30903E3
:1017A00099B27A68D2F8483161F39323C2F848318C
:1017B00006E07A6892F84B316FF3820382F84B317E
:1017C0002221786801F0A8FE0CE02021786801F061
:1017D000A3FE7B6803F521734FF4AF71184602F046
:1017E000F5F800BF00BF2837BD4680BDD34D62105D
:1017F0001F85EB51CDCCCCCC80B586B004AF7860E2
:101800007B6893F85730002B02D0012B20D0D8E012
:101810007B6803F5A4720023039300230293012342
:1018200001932223009304230221786801F098FA9F
:101830000346012B40F0C4807B6803F52173182117
:10184000184602F0C3F87B68012283F8A720B7E0AE
:101850007B6893F8C331002B00F09D807B680022E9
:1018600083F8C3217B6893F8AD3003F07003DBB2DB
:10187000002B7AD17B6893F8AC30C3F30403DBB25E
:10188000033B0A2B6CD801A252F823F0B9180200CE
:101890003119020061190200611902006119020088
:1018A0006119020061190200611902006119020048
:1018B00031190200571902007B6893F84B31C3F3CA
:1018C0000213DBB2013B7A6842339B001344DB799D
:1018D000C3F38113DBB2032B0CBF01230023DBB264
:1018E0001A467B6883F8A6207B68012283F85D2076
:1018F0007B68D3F848217B68C3F844217B6803F5F3
:1019000021734FF4FA71184602F060F823217868C9
:1019100001F002FE7B6893F8A630012B4ED17B6864
:1019200003F52A7342F21071184602F04FF845E0B1
:101930007B6893F85D30002B04D02421786801F097
:10194000EBFD3CE02021786801F0E6FD7B68032296
:1019500083F8642033E01B21786801F0DDFD2EE080
:101960001C21786801F0D8FD29E07B6893F8AC3041
:10197000C3F30403DBB2012B08D10121786801F025
:1019800039FB2121786801F0C7FD18E01C21786837
:1019900001F0C2FD13E07B6803F52173184602F0E5
:1019A00052F80346002B04D01A21786801F0B4FDE8
:1019B00007E07B68012283F8452002E000BF00E0D9
:1019C00000BF00BF0837BD4680BD00BF80B582B0F4
:1019D00000AF78607B68002283F845207B6893F82D
:1019E000C331002B72D07B68002283F8C3217B684F
:1019F00093F8AD3003F07003DBB2002B50D17B685D
:101A000093F8AC30C3F30403DBB2062B02D00D2BEA
:101A10003CD040E02421786801F07EFD7B6893F89B
:101A200025107B6803F5A2731A46082002F074F9AA
:101A30007B6893F8A630002B0BD07B68D3F8443139
:101A4000C3F34A239BB21B019AB27B68A3F85220CE
:101A50004FE07B68D3F84C21284B1340B3F5C83FC7
:101A600005D17B6840F65662A3F8522041E07B68BE
:101A7000D3F84C31C3F389239BB21A469200134426
:101A8000DB009AB27B68A3F8522032E01B21786811
:101A900001F042FD2DE01A21786801F03DFD28E0BB
:101AA0007B6893F8AC30C3F30403DBB2012B08D19D
:101AB0000121786801F09EFA2121786801F02CFD5F
:101AC00017E01A21786801F027FD12E07B6803F522
