:020000040007F3
:10E000004E2EEFBD010000000100000001000000E5
:10E010000000000000000000806802003DF8BF140E
:10E0200001000000000000000000000000000000EF
:10E0300000000000000000000000000000000000E0
:10E0400000000000000000000000000000000000D0
:0CE05000000000000000000000000000C4
:10F000004E2EEFBD010000000100000001000000D5
:10F010000000000000000000806802003DF8BF14FE
:10F0200001000000000000000000000000000000DF
:10F0300000000000000000000000000000000000D0
:10F0400000000000000000000000000000000000C0
:0CF05000000000000000000000000000B4
:00000001FF
