:0200000260009C
:10D00000000002200DD4060035D4060037D40600F7
:10D0100039D406003BD406003DD4060000000000D1
:10D0200000000000000000000000000031F90600D0
:10D0300041D406000000000043D4060045D4060099
:10D040002574070047D4060047D40600A5740700DE
:10D0500047D4060047D4060047D4060047D406004C
:10D0600047D4060047D4060047D4060047D406003C
:10D0700047D4060047D4060047D4060047D406002C
:10D08000C108070047D4060047D4060047D406006D
:10D0900047D4060047D40600E13E070047D4060007
:10D0A00047D4060047D4060047D4060047D40600FC
:10D0B00047D4060047D4060000000000000000002E
:10D0C00047D4060047D4060047D4060047D40600DC
:10D0D0005D02070047D4060047D40600856A0700B2
:10D0E00047D406000000000000000000000000001F
:10D0F0000000000047D406000000000047D40600EE
:10D10000000000000000000000000000000000001F
:10D11000000000000000000000000000000000000F
:10D1200000000000000000000000000000000000FF
:10D1300000000000000000000000000000000000EF
:10D1400000000000000000000000000000000000DF
:10D1500000000000000000000000000000000000CF
:10D1600000000000000000000000000000000000BF
:10D1700000000000000000000000000000000000AF
:10D18000000000000000000000000000000000009F
:10D19000000000000000000000000000000000008F
:10D1A000000000000000000000000000000000007F
:10D1B000000000000000000000000000000000006F
:10D1C000000000000000000000000000000000005F
:10D1D000000000000000000000000000000000004F
:10D1E000000000000000000000000000000000003F
:10D1F000000000000000000000000000000000002F
:10D2000010B5054C237833B9044B13B10448AFF380
:10D2100000800123237010BDD826002000000000EC
:10D22000B8C2070008B5034B1BB103490348AFF36D
:10D23000008008BD00000000DC260020B8C2070006
:10D24000A3F5803A704700BF174B002B08BF134B64
:10D250009D46FFF7F5FF00218B460F461348144A01
:10D26000121A0BF0FFF90E4B002B00D098470D4B14
:10D27000002B00D098470020002104000D000D482D
:10D28000002802D00C48AFF300800BF0A9F9200071
:10D29000290000F077F80BF08FF900BF00000800BC
:10D2A000000000000000000000000220D82600203E
:10D2B0005C8C0020000000000000000070470000AF
:10D2C00008B501F00BF800F0F5FD0028FBD10B4D7F
:10D2D000642445F001054FF47A40A847013CFAD197
:10D2E000BFF34F8F0649074BCA6802F4E06213434D
:10D2F000CB60BFF34F8F00BFFDE700BF709007000A
:10D3000000ED00E00400FA0508B50648064B0749A1
:10D31000C01AC008000440F0040000F01DFF002007
:10D3200008BD00BFF0C20700D8C20700D08F0700B9
:10D3300007B50B46064C07490092641AE40824041A
:10D340000246054944F0010000F01DFFFFF7B8FF59
:10D35000F0C20700D8C20700E08F070008B50246F8
:10D36000054B064806491B1ADB081B0443F0010065
:10D3700000F0F6FEFFF7A4FFF0C20700D8C20700D6
:10D380001790070010B503F051FA4FF480510020B8
:10D3900002F070FE08B1FFF7E1FF1548C0F5FC216F
:10D3A00002F068FE01460028F5D11248124C00F048
:10D3B00031FD00F067FC114B1149E41AE408240424
:10D3C00044F0030000F0C8FE0E4802F0F5FC00280F
:10D3D000E1D100F06FFD0028FBD10B4944F00100C2
:10D3E00000F0BAFE00F066FD0028FBD1D3E700BFD5
:10D3F00000D006009D030700F0C20700D8C2070056
:10D4000032900700BDD206003E9007000649074A49
:10D41000074B9B1A03DD043BC858D050FBDC00F0DF
:10D42000CFFAFFF711FF000034C4070008260020E0
:10D43000D8260020FEE7FEE7FEE7FEE7FEE7FEE770
:10D44000FEE7FEE7FEE7FEE70020704738B504463A
:10D450002B482C4D01F093FA2B4B29481C6001F00E
:10D46000A5FA2A4BED1AED082D0438B9284945F0E4
:10D47000010000F071FE0324204638BD254B002139
:10D4800040F603020330C3E9021258601970224BC0
:10D4900022495960224945F00405C3E90212214A94
:10D4A0001A612149214A5A61284600F055FE09F0C7
:10D4B000F7FC8528044601D00028DDD1002009F0C2
:10D4C00033FE04460028D7D108F024FB184806F0A4
:10D4D0007BFF04460028CFD1164807F017F8044612
:10D4E0000028C9D11449284600F036FE06F0D8FFBE
:10D4F00004460028C0D11149284600F02DFEBBE7A4
:10D5000090C3070048C307007C270020D8C207004B
:10D51000B890070020400020084000204DD50600AC
:10D5200041D50600B03F0020D9900700BCC20700DB
:10D53000F0910700CC910700EF900700FC900700E6
:10D54000011F014801F058BA90C3070013B5074CFA
:10D550000A4601AB0146204609F006FC019A044840
:10D56000214607F03FFF02B010BD00BF973F0020EB
:10D57000CC910700083810B506283ED8DFE800F047
:10D58000081E2F3D3D3D0400BDE8104006F0A2BF3F
:10D590001A4B1B481B49C01AC008000440F0030086
:10D5A00000F0DAFD08F092FF08B906F091FF164B83
:10D5B0001B6813B30120BDE8104018470F4B1048FB
:10D5C0001249C01AC008000440F0030000F0C4FD76
:10D5D00006F092FF0C4B1B687BB10220EBE7074B78
:10D5E00007480B49C01AC008000440F0030000F0CF
:10D5F000B3FDBDE8104006F06FBF10BDD8C20700F4
:10D6000048C30700169107007C27002029910700D6
:10D610003B91070007F0D8B808B503781BB9BDE8FF
:10D62000084007F0D1B8094A042100F0B3FF58B10F
:10D63000074B08480849C01AC0080004BDE8084064
:10D6400040F0010000F088BD08BD00BF15D60600FF
:10D65000D8C2070048C30700459107002DE9F047ED
:10D6600099B1022939D123492348012207F0DCFE70
:10D67000224B2349024623481B1ADB081B04BDE842
:10D68000F04743F0020000F06BBD1C481D4B194FE2
:10D690001D4EDFF88490C01AC008000440F0040852
:10D6A00040F001043978184809F092FB824668B9C5
:10D6B000D6E90112484600F0FDF8144801F076F969
:10D6C000054660B91249204600F046FD0A4801228D
:10D6D000394607F0A9FE0028E4D0BDE8F0870246ED
:10D6E0000C494046033500F03BFDC6E9015A86F877
:10D6F00000A0EBE7C83F0020CC91070048C307001B
:10D7000063910700D8C207002040002090C30700A3
:10D7100089910700A491070008400020030A0870BF
:10D720004B70030C000EC8708B7004207047000013
:10D73000F8B54278012A04460F4609D05748584B9D
:10D740005849C01AC008000440F0020000F008FD6B
:10D750002378082B0DD17B883A88013B9BB27B80D4
:10D76000002A00F09A80002B40F0978003237A80F3
:10D7700023704B4B494E3D6922784B49F61AF60807
:10D780003604637846F0040000F0F3FC60232B704D
:10D7900023786B706378AB70012B73D123780B2BDC
:10D7A00079D8DFE803F06B78784378784D5A786B56
:10D7B0000630E91C6068FFF7B1FF0330C2B255FACA
:10D7C00080F1A068FFF7AAFF1044C2B255FA80F1B9
:10D7D000E068FFF7A3FF1044C2B255FA80F1206958
:10D7E000FFF79CFF1044C2B255FA80F16069FFF761
:10D7F00095FF1044C4B2182C34D92C4946F00100CE
:10D8000000F0AAFC2EE02379EB70291DA068FFF739
:10D8100085FF0430C2B255FA80F1E068FFF77EFF61
:10D820001044C2B255FA80F12069E0E76068E91C53
:10D83000FFF774FF0330C2B255FA80F1A068D6E753
:10D84000E91CE068FFF76AFF0330C2B255FA80F1C5
:10D850006068FFF763FF1044EDE7A388EB701B0AD5
:10D860002B7105247B68214628469847A8B146F0CD
:10D8700001000F49BDE8F84000F06EBC2379EB7061
:10D880000424EFE70B2B06D104F05AFCE8700020CB
:10D8900004F050FCF4E70324E4E7F8BD40C30700BC
:10D8A000D8C20700FC9107002492070047920700A6
:10D8B00068920700F0B50E4687B004460D4617463D
:10D8C0000021182268460AF0CDFE16F8013B2D4AC9
:10D8D0008DF80030013B019402920A2B16D8DFE844
:10D8E00003F01C0615151519342942154D00264B59
:10D8F000264822882649C01AC008000440F00400C7
:10D9000000F02EFCB5F8013023806380A368304618
:10D91000984715E06B780493F8E7238863806B7869
:10D92000D5F802200493012B0592EFD1606905F030
:10D93000FDF9EBE7A3680496013FADF8147003937B
:10D94000684604F04DFF07B0F0BD0F4B0F4811497A
:10D95000C01AC008000440F0040000F0FDFBE368BA
:10D96000ADF81030D2E70948074B6A780A49C01A67
:10D97000C008000440F0040000F0F2FB6B788DF862
:10D980001030C3E731D70600D8C2070040C30700F4
:10D9900093920700B0920700C4920700BFF34F8F25
:10D9A0000549064BCA6802F4E0621343CB60BFF33B
:10D9B0004F8F00BFFDE700BF00ED00E00400FA0557
:10D9C00008B54FF08053D3F830210D2A55D14FF0D0
:10D9D00080410022C1F80C21C1F81021C1F838257E
:10D9E000554AD3F80404C2F82005D3F80804C2F855
:10D9F0002405D3F80C04C2F82805D3F81004C2F8A3
:10DA00002C05D3F81404C2F83005D3F81804C2F872
:10DA10003405D3F81C04C2F84005D3F82004C2F83A
:10DA20004405D3F82404C2F84805D3F82804C2F802
:10DA30004C05D3F82C04C2F85005D3F83004C2F8D2
:10DA40005405D3F83404C2F86005D3F83804C2F89A
:10DA50006405D3F83C04C2F86805D3F84004C2F862
:10DA60006C05D3F84434C2F87035D1F80034D807C7
:10DA700044BF6FF00103C1F80034304AD2F8883057
:10DA800043F47003C2F88830BFF34F8FBFF36F8F3A
:10DA90004FF01023D3F80C22D2071DD5284B0122BA
:10DAA000C3F80425D3F80024002AFBD04FF010223D
:10DAB000D2F80C3223F00103C2F80C32204BD3F819
:10DAC0000024002AFBD00022C3F80425D3F8002448
:10DAD000002AFBD0FFF762FFD3F80022002A03DB05
:10DAE000D3F80432002B22DA154B0122C3F80425A7
:10DAF000D3F80024002AFBD04FF010221221C2F8E4
:10DB00000012D3F80024002AFBD04FF01023122279
:10DB1000C3F804220A4BD3F80024002AFBD00022C9
:10DB2000C3F80425D3F80024002AFBD0D2E7054B24
:10DB3000054A1A6008BD00BF00C0004000ED00E0CB
:10DB400000E001400C2600200090D0037047000048
:10DB500007B5044B0093044A402300F032F803B0A9
:10DB60005DF804FB6DDB0600314000202DE9F84331
:10DB700088461446B2B10F4B0F4E0325002743F0E1
:10DB80000109224608EB0701002002F06DF8074466
:10DB9000241A48B933782BB14FF47A40C847013D75
:10DBA00002D13570BDE8F88301233370002CE8D131
:10DBB000F8E700BFF092070030400020704702F005
:10DBC00083B8F0B595B01D46164608460C4601F0E0
:10DBD000C5FB1A9B0D93CDE9086500252B4608224D
:10DBE00005A920460A958DF82C500C9501F0D2FB22
:10DBF000079B0293069B03939DF814308DF81150F8
:10DC000003F00302012A1DD1BDF81420059DC3F3C2
:10DC1000C203C2F383168DF81030B20008230EA998
:10DC2000204601F0B7FBC5F3952508AB00933246BB
:10DC300002AB0EA9284600F0C5FB204601F092FB7E
:10DC400015B0F0BD022AF8D1BDF81650C3F3C203D7
:10DC5000C5F389158DF810300827082D2E4628BFEA
:10DC600008263B4632460EA9204601F093FBAD1B29
:10DC700008AB02AA31460EA8374400F007FC002D7D
:10DC8000EBD1DAE708B5FFF79AFF0448042100F06A
:10DC9000FFFA034B01225A7108BD00BFCCC3070035
:10DCA00010260020037813F0040216D003F00303BB
:10DCB000012B03D0022B09D0012070470A6800888D
:10DCC0000232C0F3831002440A60F5E70B68428811
:10DCD000023303EB92130B60EEE71046704700002F
:10DCE0002DE9F04FDFF828A187B00F460023044646
:10DCF000861C0DF1070015468DF8073000F0E0FC9A
:10DD0000DAF804203A60DAF80830404F03F580630F
:10DD10009B1AA7F10409A7F10808B3421BD30020FE
:10DD2000002D6ED004F00F039B0143F0050363F355
:10DD30000F00DAF80430C3F30902033233444AF81F
:10DD400022009DF80700CAF8043000F0DDFC012035
:10DD500007B0BDE8F08F0121384600F0ECFD4846E1
:10DD600000F004FE404600F001FEDAF808000290E0
:10DD7000C0F3090003300AEB800002A9FFF792FF0D
:10DD8000029B40BBC3F309020AEB8202D1680391F4
:10DD90009A1C0133C3F309030AEB83030292D3F8FD
:10DDA0000CB001F00303012B23D0022B16D08346C5
:10DDB000404600F0DEFD10B1029BCAF8083059461B
:10DDC000384600F0B8FDDAF80830DAF8042003F538
:10DDD00080639B1AA1E7C3F30900CBE7BDF80E30BF
:10DDE000C3F3891303334FEA1B4B02EB93030293F4
:10DDF000DEE7BDF80C30C3F383134FEA1B4B13442B
:10DE0000F5E7A40544F0060093E700BF6051002049
:10DE100044410020064B074810B500221A7001F05B
:10DE200056FA044610B9044801F0BEFA204610BD67
:10DE300044410020A4C307002C93070030B50A4CCE
:10DE400071B10A4A0A49121BD20800239A4201D131
:10DE5000002030BD31F82350854202D00133F5E770
:10DE6000034654F83300F4E7D8C2070090C3070014
:10DE7000C4260020094B013903EBC000032909D84F
:10DE8000DFE801F00A0204060420704700797047B9
:10DE9000407970470020704702207047D8C20700C1
:10DEA000034BD3E90130C31A58425841704700BFB1
:10DEB000444100202DE9F04387B0FFF7F1FF06460B
:10DEC000002840F0F080794C04F58055A861BFF33C
:10DED0004F8FA3680293C3F30903033304EB83005A
:10DEE00002A9FFF7DFFE029B10B1AA69002A5DD0EC
:10DEF000C3F30902991C013304EB8202C3F3090343
:10DF000004EB8303D268DB68049302F00303022B63
:10DF10000392029155D1BDF80E306548C3F38918BC
:10DF20004746502F28BF502707F1080167F38F138A
:10DF3000C1F30901ADF80E3001F0E1F90646002801
:10DF400000F09D8001F00AFA0023082203A9304660
:10DF500001F016FA0299CB43C3F309030133C1F36D
:10DF600009010331B7EB830F4FEA830204EB810110
:10DF700024D95FFA82F90823A7EB0907304601F09C
:10DF8000FFF9FFB209F108034A4903F0FC033A46DE
:10DF9000304601F0F5F9029B08F1030803EB980302
:10DFA0000293AB69002B43D12F6954E062689A4217
:10DFB00091D8A260304607B0BDE8F08308233A4606
:10DFC000E6E7012B5BD1BDF80C303948C3F3831170
:10DFD000062928BF062161F38913023101F00F01E0
:10DFE0008900ADF80C3001F08AF90646002846D0C9
:10DFF00001F0B4F90023082203A9304601F0C0F96A
:10E000000027BDF80C20C2F38312BB00974203F136
:10E010000803C6D202994A1CC1F3090103310292D6
:10E0200004EB81010422304601F0AAF90137E8E748
:10E03000304601F097F9FFF733FF80F00100C6B2D8
:10E04000B8E7FB685B7923B13B6831461B6838460B
:10E050009847FB681F68002FF3D1304601F082F922
:10E060000DF107008DF8077000F02AFBAB690BB9C2
:10E07000029BA3609DF8070000F046FBDBE72C69DC
:10E0800054B90D4B0D480E49C01AC008000440F0A9
:10E09000020000F061F8CEE7236820469B689847AD
:10E0A000E3681C68ECE7002684E700BF44410020D9
:10E0B000A4C3070050410020D8C20700F0C20700E7
:10E0C000149307002DE9F34704460E46924601A932
:10E0D000012218469946FFF703FE1D4F20B3019D0C
:10E0E0004FF00008AA1CC84508EB020125D11948C9
:10E0F000002100F0E5FB80F31000000440EA14402A
:10E10000E4006B1C04F03804C3F30903C5F30905EC
:10E1100044F0010407EB8303033544EA881444EA1E
:10E120008624D86047F825403B781BB1FFF7C2FE34
:10E130000028FBD102B0BDE8F087C1F3090107EB6D
:10E1400081015AF82830CB6008F10108CBE700BF05
:10E15000444100206051002000231A46FFF7B2BF5F
:10E1600007B50123019201AAFFF7ACFF03B05DF8E8
:10E1700004FB07B5CDE9002302236A46FFF7A2FF9F
:10E1800003B05DF804FB1FB5CDE90123069B0393A3
:10E1900001AA0323FFF796FF05B05DF804FB1FB546
:10E1A000CDE90023069B0293079B03936A46042351
:10E1B000FFF788FF05B05DF804FB7FB5CDE90123CB
:10E1C000089B0393099B04930A9B059301AA0523CB
:10E1D000FFF778FF07B05DF804FB00002DE9F74377
:10E1E0000446D01C8846164601A900228008FFF785
:10E1F00077FD254D98B3019FB81C0190C0F309002D
:10E20000C0F58063B6EB830F00F103004FEA83098A
:10E2100005EB80002CD8324641460AF015FA1B481F
:10E22000002100F04DFB80F310007B1CC3F30903B9
:10E23000220C05EB8303C7F3090742EA00400337CA
:10E24000D860E40055F8273004F0380444F00204A4
:10E2500044EA865203F47C131A4345F827202B78AE
:10E260001BB1FFF727FE0028FBD103B0BDE8F08308
:10E270004A4641460AF0E8F9A6EB090208EB090113
:10E2800005F10C00C9E700BF4441002060510020A7
:10E2900030B511490C690346002022463AB9DC68C2
:10E2A00020710C694CB90B61DB681A6030BDD26813
:10E2B0001579854209D01268F0E7E468DA682468C5
:10E2C00014600A69D2681360F0E701300A28E4D1CB
:10E2D0004FF0FF30EAE700BF4451002038B5084B4B
:10E2E00003F58052012514691D7004B938BDE36837
:10E2F0005D71236820465B689847E3681C68F4E713
:10E300004441002030B5C38885B004460D4633B182
:10E31000144A00921449154A284600F092FB217ACB
:10E3200005291DD0637A4BB1A088FFF7A3FD104BE0
:10E33000104953F82020284600F083FB227A0E4B28
:10E34000A08853F8222003920021FFF777FD039A5B
:10E350000A490346284605B0BDE8304000F071BBCD
:10E3600005B030BD5893070040930700389307006D
:10E37000C89307001DA40700EC9307005D930700F6
:10E3800007B503460846197A052911D05B7A2BB1E7
:10E39000094A0A49019000F054FB0198084901908C
:10E3A00000F04FFB019803B05DF804EB00F03EBBBA
:10E3B000002AF8D0F2E700BF589307001DA4070019
:10E3C000559307002DE9F04385B01F460C9D0023AF
:10E3D00095F80C902B7306460C4690462946384615
:10E3E000FFF790FFB8F1060F09D8DFE808F0041234
:10E3F000181F283340003146284600F022FB002237
:10E4000029463846FFF7BCFF85F80C9005B0BDE8FB
:10E41000F08322683146284600F013FBEFE7D4E989
:10E4200000233146284600F00CFBE8E7A368009380
:10E430003146D4E90023284600F003FBDFE7E36818
:10E440000193A36800933146D4E90023284600F0E5
:10E45000F8FAD4E723690293E3680193A368009371
:10E460003146D4E90023284600F0EBFAC7E7636998
:10E47000039323690293E3680193A36800933146F1
:10E48000D4E90023284600F0DCFAB8E708292DE992
:10E49000F84F80460E4617461C463DD8002593F897
:10E4A0000C901D7319461046FFF72CFFDFF890A063
:10E4B000DFF890B0AE4231D918F805205946204611
:10E4C00000F0BFFA0135082DF4D11A491A4DDFF8D2
:10E4D00078A0204600F0B5FA4FF0000B5E4524D935
:10E4E00018F80B207E2A1ED8511C144BC9B2C95CE7
:10E4F00011F0970F08BF2E225146204600F0A1FAD6
:10E500000BF1010BBBF1080FE8D10122214638467F
:10E51000FFF736FF84F80C90BDE8F88F514620468F
:10E5200000F08FFACEE72E22E6E72946204600F0DB
:10E5300088FAE5E7719307006F9307007CC1070035
:10E540006D93070067930700739307004B1C30B56A
:10E55000DB00044612F003009BB20DD1074D2A6088
:10E560001A44074B1A60074B1870074B1870074B7B
:10E570001C80074B198030BD0720FCE704520020A7
:10E5800000520020FC5100200C52002008520020B4
:10E590000A5200202DE9F347DFF8C080B8F80030B8
:10E5A0008B4206460D4617464CD300240DF107005A
:10E5B0008DF8074000F084F8244B254A25481B7845
:10E5C000008892F800C084455FFA8CF138BF4C1C7B
:10E5D000DBB238BFE4B2A3422ED014781178CBB2AC
:10E5E000884286BF0133DBB2002313709DF8070019
:10E5F00000F08AF84FF6FF739C4225D0DFF8609058
:10E60000D9F800204FEAC40A42F8347002EBC40380
:10E61000AEB1A5B1104BB8F800001B682A4604FB48
:10E62000003031460AF010F8D9F800305344002089
:10E630009D8002B0BDE8F0874FF6FF74D6E700205A
:10E640009880F6E70920F4E70420F2E70C52002056
:10E65000FC5100200A5200200052002008520020E5
:10E660000452002070B5104C104D22782B789A423D
:10E6700000D170BD0E480F4A2378126806880E48F4
:10E6800002EBC301006852F83320898803FB0600BF
:10E6900090470A4922780988D3B2914286BF013354
:10E6A000DBB200232370E0E70C520020FC51002075
:10E6B0000852002004520020005200200A5200207C
:10E6C00070B5EFF3108672B60C4A946801239CB9BA
:10E6D00093600B4B0B4DD3F8801029401160C3F8A9
:10E6E0008050D3F8841051604FF0FF32C3F884207B
:10E6F000047006B962B670BD0370FAE710520020CC
:10E7000000E100E0FC06FFBD10B5084B9A685AB165
:10E7100050B9EFF3108172B6054A1C6814605C684A
:10E720005460986001B962B610BD00BF105200205D
:10E7300000E100E030B53AB11368DB430A4D014413
:10E74000814204D1D84330BD4FF0FF33F6E710F8D3
:10E75000012B5340082213F0010418BF2C46013A44
:10E7600084EA5303F7D1EBE72083B8ED10B561B12C
:10E77000B2FBF3F403FB1424A4B244B9C0E90014BF
:10E7800084608281C381204610BD0E20FCE70920F1
:10E79000FAE782B050E8022FC188B2EB324F4FF057
:10E7A000000317BF92B241EA014142EA014104E08D
:10E7B0004268B2EB324F08BF012340E80212002A40
:10E7C000E8D18DF807309DF80730002B0CBF1120E1
:10E7D000002002B0704737B550E8013F9DB2C489B0
:10E7E00025448489A54228BF2D1B0489A54202BF68
:10E7F000BFF32F8F002207E0C5EA030540E801546C
:10E80000002CE9D14FF001028DF803200193019A09
:10E810000A609DF8031001F0FF0321B1006810FAAF
:10E8200082F003B030BD1846FBE70A884B889A4255
:10E8300009D150E8012FC2EA024240E80123002B2F
:10E84000F7D1012070470020704737B550E8023FEC
:10E850001FFAA3F5C488A54202BFBFF32F8F002281
:10E860000DE0C48925448489A54228BF2D1BC3EA35
:10E87000054540E80254002CE8D14FF001028DF824
:10E8800003200193019A0A609DF8031001F0FF0331
:10E8900021B1006800EB124003B030BD1846FBE721
:10E8A0000A884B889A4209D150E8022FC2EA2242D4
:10E8B00040E80223002BF7D1012070470020704769
:10E8C00010B5034653E8000F0A4643E8002494F0CD
:10E8D000000FF7D110BD10B5034653E8000F40EA12
:10E8E000010243E8002494F0000FF6D110BD10B5EA
:10E8F000034653E8002F42EA010043E8000494F085
:10E90000000FF6D110BD10B5034653E8000F00EA22
:10E91000010243E8002494F0000FF6D110BD10B5B9
:10E92000034653E8002F02EA010043E8000494F094
:10E93000000FF6D110BD10B5034653E8002F02EBCF
:10E94000010043E8000494F0000FF6D110BD10B5AB
:10E95000034653E8002FA2EB010043E8000494F0C3
:10E96000000FF6D110BD0121FFF7B5BF0121FFF760
:10E97000BEBF0021FFF7C7BF0021FFF7D0BF10B512
:10E9800090B1D0E9012301689B1ADBB20A60013B18
:10E99000DBB2FF2B026802D10020107110BD11689C
:10E9A0004C1C14600B70F2E70E20F7E737B50446F5
:10E9B00000250DF107008DF80750FFF781FE226852
:10E9C000616813688B4210D9591E116013F8013C1D
:10E9D000228AE56802FB03552268A36811685B1A66
:10E9E0001179DBB2994238BF13719DF80700FFF728
:10E9F0008BFE284603B030BD37B5054600230DF128
:10EA000007000C468DF80730FFF75AFE2A68136896
:10EA1000591C1160E968641A298AB4FBF1F41C706E
:10EA20009DF80700FFF770FE03B030BD10B5826897
:10EA300004462AB143690168006998470023A3602E
:10EA400010BD0EB403B5039921B104AB01AA019323
:10EA500000F076F802B05DF804EB03B070470A29C5
:10EA600038B504460D4602D10D21FFF7F8FFA36823
:10EA70002268591CA160D554D4E901329A4204D3CA
:10EA80002046BDE83840FFF7D1BF38BD2DE9F84F2B
:10EA90009846DDE90A43154682460F460A464FF07E
:10EAA0000109AA420FD2C14538BFC14613F0010B7C
:10EAB00001D16CB900240126B8F1010F1BD908F16E
:10EAC000FF386E43F8E709F10109B2FBF5F2E8E718
:10EAD0009B070ED5B8F1000F0CBF30262026A145AC
:10EAE000E9D2013C31465046FFF7B9FF002CF6D180
:10EAF000E0E72026F3E7B7FBF6F39D42E1D9DFF824
:10EB00003C80B7FBF6F3504618F8031006FB13776A
:10EB1000FFF7A5FF3346AB42B6FBF5F6F1D2BBF1EA
:10EB2000000F02D00CB1A14501D3BDE8F88F202120
:10EB30005046013CFFF793FFF4E700BF099407003C
:10EB40002DE9F74F054617468846002900F03E811B
:10EB500018F8011B49B92B7B002B00F037812846A0
:10EB600003B0BDE8F04FFFF761BF252940F0B78043
:10EB7000002698F800302D2B424608F1010823D0DA
:10EB8000302B24D02B2B25D000242A2B02F101017D
:10EB900023D13B681A1D3A601B680A461C4413784F
:10EBA0002E2B26D101324FF0000A104610F8011B1F
:10EBB000A1F1300CBCF1090F1DD80A2303FB0A1385
:10EBC000A3F1300A0246F0E746F00106D1E746F02D
:10EBD0000206CEE746F00406CBE711F8013CA3F1AC
:10EBE00030000928DBD80A2202FB0434303C0A46F4
:10EBF000CBE74FF0000A12F8011B01F0FB00682878
:10EC00009046F8D0782909D86F290CD8632962D0AA
:10EC100022D8252963D0582900F0888098F8003040
:10EC2000002B95D197E770390829F7D801A353F83D
:10EC300021F000BFA7ED06001DEC06001DEC06004C
:10EC40003DED06001DEC06001BED06001DEC060068
:10EC50001DEC06002DED0600642901D06929DDD1E7
:10EC60003A68111D3960D2F8009089EAE972A2EB86
:10EC7000E9724FF0010B092A35DCD34538BFD34682
:10EC80002CB1B9F1000F01DB720700D5013CB307CD
:10EC900002D5BAF1000F03D0F00701D44CBB002419
:10ECA000B9F1000F2DDAC9F100092D212846FFF72F
:10ECB000D6FE06F00302022A04D1BAF1000F01D1F8
:10ECC0001CBB0024CDE9004653460A22494628468B
:10ECD000FFF7DCFEA2E73B681A1D3A601978284668
:10ECE000FFF7BDFE9AE70A230BF1010BB2FBF3F22B
:10ECF000C1E7A345D4D220212846013CFFF7AFFE4F
:10ED0000CCE77107D5D52B21D0E7A345DAD2302146
:10ED10002846013CFFF7A3FED2E73968CDE900465B
:10ED20000A1D3A6053460A220968D0E739680A1D6D
:10ED30003A60CDE9004653461022F5E73B681A1DBC
:10ED40003A6016F00106D3F8009024D1B9F1000F13
:10ED500003D0484609F0CAFC0646B4421DD809F162
:10ED6000FF3919F8011F00293FF458AF2846FFF773
:10ED700076FEF6E728460136FFF771FE19F8061011
:10ED80000029F7D1A642BFF449AF20212846013C13
:10ED9000FFF765FEF6E70026F0E720212846013C54
:10EDA000FFF75DFED9E73B681A1D3A60302128461F
:10EDB0001C68FFF754FE78212846FFF750FE00221A
:10EDC0000823CDE900322146102280E703B0BDE8D8
:10EDD000F08F00BF01600B681146184710B404683B
:10EDE000E468A4465DF8044B604710B404682469E5
:10EDF000A4465DF8044B604770B550B90E4D0F4CFA
:10EE00000026641B1423B4FBF3F4B44208D10020A1
:10EE100010E00368002BF1D0BDE87040DB691847B3
:10EE20002B6813B901361435EFE7DB69284698479C
:10EE30000028F7D070BD00BFC4260020D8260020CF
:10EE4000014B436000207047289407000846704734
:10EE500000207047024B1868003818BF0120704727
:10EE60001C52002008B50248FFF786FD002008BDAF
:10EE70001C52002008B510461A4609F0E5FB002098
:10EE800008BD00002DE9F041804686B011480F46CC
:10EE900016461D46FFF767FD0446C8B9AA08314665
:10EEA000384600F077FC0B48FFF766FDD8F80830CD
:10EEB00053B101228DF800200C9A0592CDE901474B
:10EEC000CDE9036568469847204606B0BDE8F08165
:10EED0001124F9E71C5200202DE9F043814687B048
:10EEE00014480E4615469846FFF73DFD0446F0B916
:10EEF0000746BD4215D10F48FFF73EFDD9F808304F
:10EF00005BB102228DF800200022CDE90126CDE977
:10EF10000325CDF8148068469847204607B0BDE821
:10EF2000F08306EB073000F007FC0137E1E711241E
:10EF3000F3E700BF1C52002029DF704728DF70472D
:10EF400070B50668B36886B004460D4673B11422E6
:10EF50000021684609F086FBA36805932379019593
:10EF600033B1012B0ED0B3686846984706B070BD28
:10EF700001238DF8003023690293E36803936369EA
:10EF80000493F0E702238DF80030E3681B0302933B
:10EF9000F5E708467047002070470000024B187ADA
:10EFA000003818BF012070470C540020034B187A1A
:10EFB0000122B0FA80F05A74400970470C540020C6
:10EFC00008B510461A4609F03FFB002008BD0000B6
:10EFD00008B514220021044809F044FB0348FFF758
:10EFE000D8FB002008BD00BF0C540020FC530020BB
:10EFF00010B5094C094B43602046FFF7B4FC48B9F3
:10F0000004F054FF064920741C2306484FF4EE72A6
:10F01000FFF7ACFB002010BD0C54002054940700F7
:10F0200020520020FC53002038B5224D224C2B7A70
:10F030003BB922492248FFF708FC206008B9686004
:10F0400038BD022324682B72237973B1012B22D09F
:10F0500020460321FFF774FF00232B726B601749D2
:10F060001748BDE83840FFF71BBCD4E90523D21A86
:10F07000142AD4E9031028BF14229208012A38BFA9
:10F08000012219441844FFF757FF50B11128DFD16E
:10F0900001232B72D4E7D4E903031844FFF74EFF92
:10F0A000F3E72B7C002BCBD1BDE83840022000F0E9
:10F0B00009B800BF0C540020245400202054002024
:10F0C000FC53002038B5224C237A002B3FD0022B72
:10F0D00009D103282ED01F4B00221B68E2601A7949
:10F0E0003AB1012A20D0637C6BBBBDE83840FFF702
:10F0F0009BBFD3E905128D1A142D94BF52191432F7
:10F100009A619142EFD102284FF0000308BF1946DF
:10F110002372104B18BF0D211868FFF711FF0E491D
:10F120000E48FFF7BDFBDEE71A6901321A615B6921
:10F130009A42E7E7E3680133082B01D8E360D2E79E
:10F140000023E360DFE7BDE8384004F09FBE38BD30
:10F150000C5400202454002020540020FC53002094
:10F16000831E012B01D8FFF7ADBF704700F0FD03F0
:10F17000012B08D1044B00225A74421E50425041C8
:10F180001874FFF751BF70470C54002010B5064C9F
:10F19000201DFFF7E8FB28B9637C1BB9BDE81040D0
:10F1A000FFF742BF10BD00BF0C5400202DE9F34112
:10F1B00080460D460F4801A916461F46FFF70BFB78
:10F1C0000446A8B11C22002109F04CFA2D0B0123A2
:10F1D000237101A90748C4F80080A760E560666153
:10F1E000FFF723FBFFF7D2FF002002B0BDE8F0815C
:10F1F0000420FAE7FC5300202DE9F74381468846B6
:10F20000104801A917461E46FFF7E5FA0446B0B1BB
:10F210001C22002109F026FA00250A9BA36001A9FF
:10F22000C4E9037807482571C4F800906661FFF7C8
:10F23000FCFAFFF7ABFF284603B0BDE8F0830420DB
:10F24000FAE700BFFC5300202DE9F84FB0F806A004
:10F250004579D2F800B09DF828900AFB05F5043DE9
:10F2600088460BEB0301A94203F1040488BFA5EB18
:10F27000030BB4FBFAF607460AFB1644C2F800B0CB
:10F280004EB9AAEB04055D4528BF5D46BBF1000FF2
:10F2900004D1BDE8F88F3F68013EF1E7043408EB84
:10F2A00006003C442A46B9F1000F0DD02146ABEBD5
:10F2B000050B09F0C9F9DA452E443F6855464FF071
:10F2C000000428BF5D46E1E701462046EFE7FFF76F
:10F2D00056BBF8B546790146721E05460023934297
:10F2E0002D6803D30024A64202D8F8BD0133F6E707
:10F2F0000F682846FFF780FB01343946F3E72DE914
:10F30000F843CD1C068A0746FFF750FB043E354400
:10F310000446B5FBF6F5F0B14FF48073EDB283808F
:10F32000C680013D076081464FF00008A84512D213
:10F330003846FFF73BFB064648B1637901336371FA
:10F3400008F10108C9F8000007608146EEE7204691
:10F35000FFF7BFFF34462046BDE8F88301210430A3
:10F36000FFF7E9BA10B5012104460430FFF7EFFAC0
:10F37000C0B220B92046BDE81040FFF7AABF10BDBB
:10F380001FB503920022009203AAFFF75DFF05B0AC
:10F390005DF804FB1FB503920122009203AAFFF758
:10F3A00053FF05B05DF804FB826800239360826818
:10F3B0001361826853618268D36082685360826897
:10F3C0001360704701600B6843604A68934204BF52
:10F3D000002343607047436843B1026891680B445F
:10F3E00043605268934204BF0023436070470000AB
:10F3F00010B50D49A1F59472914201D800200FE09B
:10F400008C1AE30F03EBE4035B1002EBC30452F826
:10F410003330834205D802D204F10802ECE7606879
:10F4200010BD2146E8E700BF7899070008B5FFF74F
:10F43000DFFF024B002808BF184608BD3A980700B6
:10F440002DE9F04FC9B008AA01F1400514464B78E8
:10F450000E781B0443EA0663CE7833438E7804317A
:10F4600043EA06238D4244F8043BF0D11024916B0B
:10F4700016464FEAF14383EA714383EA9123716AA6
:10F48000366852F8045F31440B444FEAB54181EAD3
:10F49000F51181EAD50101340B44402CD363E6D148
:10F4A000D0E914E30093836D0193C36D0293036E5F
:10F4B0000393436E0493836E0593C36E0693DDE955
:10F4C000057BDDE9031CDDE901592B4B009E079309
:10F4D00074464FF00008079B53F8042B07934FEA3C
:10F4E000F12383EAB11383EA716A08AB53F8283039
:10F4F0001A440AEB020327EA010A01EA0C028AEA2B
:10F5000002021A444FEA743A86EA05035A44234039
:10F510008AEAB40A06EA050B83EA0B0B8AEAB45AB4
:10F5200008F10108DA44B8F1400F02EB0903BB46C9
:10F530005244A94619D172440265009A2244426598
:10F54000019A32448265029A2A44C265039A1A4497
:10F55000049B02660B444366059B63448366069BDB
:10F560003B44C36649B0BDE8F08F674635468C46DC
:10F57000264619461446AEE77899070030B5E0B143
:10F580000F4A104900240025C0E91245C0E91412B1
:10F590000D4C0E4A0E4DC0E916420E4AC0E91852F3
:10F5A0000D4A826602F17452A2F523020023A2F6EC
:10F5B00092420364C266184630BD0E20FCE700BFCD
:10F5C00085AE67BB67E6096A72F36E3C3AF54FA5F4
:10F5D0007F520E518C68059BABD9831F70B5F0B17B
:10F5E000DAB900201CE00C468D180026AC42F8D099
:10F5F000036C14F8012BC2540133402B0364F5D182
:10F600000146FFF71DFFD0E9123213F5007342F1F6
:10F610000002C0E912320664E8E70029E3D10E20B7
:10F6200070BD70B50D461646044600287AD00029F4
:10F6300078D0036C8021372BC15403F1010243D8E9
:10F64000034400F13802002101339A423AD1D4E94F
:10F650001223216C0820E1FB0023C4E9122312BA13
:10F66000E26323FA00F284F83B3084F83A201A0C63
:10F670001B0E214684F8392084F838302046FFF7E5
:10F68000DFFE691E7EB30023E26EDA4001F8012F2F
:10F69000A26EDA400A71626EDA400A72226EDA40B5
:10F6A0000A73E26DDA400A74A26DDA400A75626D7F
:10F6B000DA400A76226DDA400833202B0A77E3D14C
:10F6C000002070BD1970BFE700233F2A08D92146EA
:10F6D0002046FFF7B5FE3822002108F0C3FFB6E749
:10F6E000A3540132F1E71823226DDA4001F8012F0B
:10F6F000626DDA400A71A26DDA400A72E26DDA4098
:10F700000A73226EDA400A74626EDA400A75A26EDB
:10F71000DA400A76E26EDA40083B13F1080F0A7706
:10F72000E2D1CDE70E20CCE7024AD2F80034002B1C
:10F73000FBD0704700E001400A4908B50223C1F838
:10F740000435BFF36F8FBFF34F8FC1F80805FFF784
:10F75000EBFF0023C1F80435BFF36F8FBFF34F8F6A
:10F7600008BD00BF00E0014010B5094C0123C4F8FA
:10F770000435BFF36F8FBFF34F8F0160FFF7D4FFE6
:10F780000023C4F80435BFF36F8FBFF34F8F10BD54
:10F7900000E0014070B50E4E01231546C6F8043551
:10F7A000BFF36F8FBFF34F8F0024AC4207D100230C
:10F7B000C6F80435BFF36F8FBFF34F8F70BD51F89C
:10F7C000243040F82430FFF7AFFF0134EDE700BFED
:10F7D00000E0014010B5034653E8000F00EA0102C3
:10F7E00043E8002494F0000FF6D110BD43689B68F5
:10F7F000184708B5436808305A7900F0A0F900208E
:10F8000008BD2DE9F0410C469CB008461F46039206
:10F81000FFF7ECFFD4F80480039998F80550BD4237
:10F8200028BF3D4606462A4604A800F07DF998F810
:10F83000052022990CA800F082F900960CAB2A460C
:10F8400004A904F1080008F04FFD002848F24250D6
:10F8500018BF00201CB0BDE8F081000038B1054B96
:10F860000360054B436001230372002070470E20A4
:10F87000704700BFA3F806007DF8060069B10B7859
:10F88000022B0CD1022804D0032814BF0820112019
:10F89000704703230B70002070470E20704708202C
:10F8A000704710B50C4681B10B78012B06D00ED9EC
:10F8B000033B012B94BF0820112010BD03F09CF9DD
:10F8C0000028FAD102232370F7E70E20F5E708207D
:10F8D000F3E7000070B5144B144A0C21D21AB2FBA6
:10F8E000F1F2816911F8025C044635B90069002122
:10F8F000914205D1012323600EE04FF0FF30F6E77F
:10F900001E68AE420CD1461C07D19D68D4E90001A7
:10F91000D4E90223A847206070BD5E688642F4D017
:10F9200001310C33E4E700BFCCC20700D8C20700A6
:10F930001EF0040F0CBFEFF30880EFF30980FFF710
:10F94000C9BF00BF28B139B10023C1E90030184652
:10F95000704748F21050704748F21350704730B16A
:10F96000036848F240508B4208BF0020704748F2BD
:10F970001050704728B148F21150914208BF002042
:10F98000704748F21050704770B506460C461D4649
:10F99000FFF7D8FF50B9B3794AB1AB420AD111464B
:10F9A0002046FFF726FF08B9044B236070BD48F2DC
:10F9B0001050FBE748F21150F8E700BF7052464D77
:10F9C0002DE9F0470C4606460F492046DDE9088937
:10F9D00015461F46FFF7C3FFA0B963685A79494629
:10F9E00052004046FFF7C6FF60B94DB1CDF8208008
:10F9F0003B462A4621463046BDE8F047FFF701BFA7
:10FA000048F21050BDE8F0877052464D10B50446DC
:10FA100038B149B141600B68984708B9044B23607D
:10FA200010BD48F20150FBE748F21050F8E700BF64
:10FA30006E524648F0B4134648B10768094EB742C3
:10FA40000AD161B12AB14368F0BC5B68184748F23B
:10FA500001531846F0BC704748F20253F9E748F2E8
:10FA60001053F6E76E524648F0B460B107680C4E8A
:10FA7000B7420CD171B143681568DC68A5420CD35C
:10FA8000F0BC9B68184748F20150F0BC704748F240
:10FA90000250FAE748F21350F7E748F21450F4E73F
:10FAA0006E524648F7B50446DDE9086715460193EE
:10FAB000FFF7ACFF68B9019A29462046FFF7BAFF65
:10FAC00038B93A463146204603B0BDE8F040FFF76A
:10FAD000CBBF03B0F0BD0000F8B50A4F0A4C0B4E87
:10FAE000E41B0123E40833700025A54203D102235F
:10FAF00033700020F8BD57F8353098470028F9D109
:10FB00000135F2E7BCC20700BCC207002854002040
:10FB100001390144814200D2704703780A7800F825
:10FB2000012B01F80139F5E7013A0244013982421B
:10FB300000D2704711F8013F02F80139F7E770B5BC
:10FB400016460D46FFF7F0FF3246A9193044BDE8CE
:10FB50007040FFF7E9BF38B50D460446FFF7D8FF00
:10FB600029466019BDE83840FFF7D2BF0369C26873
:10FB700093429CBF80681B18013B981A70472DE97F
:10FB8000F843D0E902940546A9EB04084068904583
:10FB900020440F46144404D908F056FDEC60BDE83B
:10FBA000F8834246A4EB090408F04EFD686822463B
:10FBB00007EB0801F0E72DE9F843C56806468946DA
:10FBC00017464FF000083469B3687068A54228BF33
:10FBD000E418013C621B5C1BBC4228BF3C469442BB
:10FBE00028BF144649462844224608F02DFDB36834
:10FBF0002544AB4208BF00253F1BA044A144F5604B
:10FC0000E1D14046BDE8F88310B5114C114AA2611C
:10FC10000223C4E90433104BE361A2644FF4805320
:10FC20000E4A0F492362E26400231022E01DA36202
:10FC30006362E362A3656365E365226508F04EFDD8
:10FC40000849204608F04AFD2023A37110BD00BFDB
:10FC50002C540020849A0700B4540020A45400209F
:10FC60008D9A0700919A070070B5164B182400FB77
:10FC700004451D4404FB00331646DC6A012C0ED0FB
:10FC8000022C18D0E4B92846FFF770FF864204D84A
:10FC900032462846FFF773FF3446204670BD28469B
:10FCA000FFF764FF8642344628BF044622462846B2
:10FCB000FFF765FFF1E72846BDE87040FFF77BBF1F
:10FCC0000024EAE72C540020FFF79EBF41DF704775
:10FCD000014B01221A707047D468002008B5FEF766
:10FCE000FDFAFEF7E7F80028FBD1BFF34F8F054977
:10FCF000054BCA6802F4E0621343CB60BFF34F8F39
:10FD000000BFFDE700ED00E00400FA0508B5094872
:10FD1000094B0A49C01AC008000440F00400FEF76D
:10FD20001BFA074B074800221A70BDE8084002F092
:10FD300009BF00BFF0C20700D8C20700989A0700A9
:10FD4000D4680020DDFC060008B50748074B0849C9
:10FD5000C01AC008000440F00300FEF7FDF9BDE83A
:10FD60000840FFF7D3BF00BFF0C20700D8C20700AA
:10FD7000AE9A0700042810B5044609D802280DD809
:10FD800012D00B4B1B6893B12046BDE810401847BA
:10FD9000831F012BF5D8FFF7B9FFF2E705494FF4B0
:10FDA000701000F0BBFAECE702F0B2FDE9E710BD1D
:10FDB000D868002049FD0600F8B5754B754C7649AA
:10FDC000E41AE408240444F0040605463046FEF72D
:10FDD000C3F9724B724A1D604FF0A0430020C3F874
:10FDE000242702F0C5FE002840F0CD8000F036FC4C
:10FDF000012800F0C180022800F0C780002840F0F0
:10FE0000C2804FF08043D3F8005415F4803556D0AB
:10FE10004FF48032C3F800240546624F3B6A012B41
:10FE200060D0614944F00300FEF796F95F4930461F
:10FE3000FEF792F94FF4701400F056FD5C4A202151
:10FE40001820FEF783FB08B1FDF788FA4FF08043D6
:10FE5000D3F81C2502F0F802B02A09D1D3F81C25EA
:10FE6000D20742BFD3F81C2502F04E02C3F81C256E
:10FE70004C4B9A6D012A06D10020986502F016FEBF
:10FE800008B1FDF76BFAFDF73FFA00287BD1204659
:10FE9000484900F043FA484801F05CFA002872D162
:10FEA00046493046FEF758F900F064FDFEF7DAFBEC
:10FEB000FEF700F80028F7D1FFF708FFF4E7D3F8C2
:10FEC000202502F0F802A82A0AD1D3F82025D0076D
:10FED00006D5D3F8202502F05602C3F820259CE76A
:10FEE00001259AE74FF440535A68354B9A420FD197
:10FEF0007A6B1DB997F86032012B09D031484FF465
:10FF0000805103F061FC18B92F4944F002008BE7DF
:10FF100002F052FFBA6901461DB997F8A132012BD0
:10FF200005D02A4803F050FC08B92949EDE72949D2
:10FF30003046FEF711F94FF0A043D3F8103599057C
:10FF400001D4254973E74FF08043D3F81C3513F0F3
:10FF5000B10F01D021496AE7BB6D012B01D12049C6
:10FF600065E702F081FE70B91E4B18701E4802F062
:10FF7000E9FD00F03DF801E0FFF7C8FE1B4944F041
:10FF80000100FEF7E9F80320F8BD4FF4A02453E781
:10FF9000D8C20700F0C20700C29A0700D868002044
:10FFA0000C000300D0800020D99A0700779B07003F
:10FFB000B464002049FD060075FD0600129C070090
:10FFC000DBE5B15130830020079B070071830020DF
:10FFD000429B07006A9B07009A9B0700B99B07009A
:10FFE000DA9B0700D4680020D1FC0600069C0700BD
:10FFF00037B5184B184C194D1949E41AE408240474
:0200000270008C
:1000000044F004004FF480520190FEF7A9F8D5F8AF
:10001000802014490198FEF7A3F84FF0FF33C5F88C
:100020008030C5F88031C5F88430C5F8843102F0DD
:10003000AFF820B10C4944F00100FEF78DF8FDF750
:1000400039FF0028FBD14FF4805003B0BDE83040A9
:1000500000F032B8D8C20700F0C2070000E100E0AB
:10006000229C0700589C0700829C070080F30888A8
:100070000847000070B50546C1F30B00A8B9B5F5F7
:10008000FE2F12D80B4E3268072A10D8130103F145
:10009000804404F5F0340132C4F80058C4F8041860
:1000A0000221C4F80818326070BD0720FCE7042064
:1000B000FAE700BFDC68002038B504462148C0F5E7
:1000C000FE21FFF7D7FF054668B11F481F4B2049A7
:1000D0001B1ADB081B0443F001002A46FEF740F818
:1000E0002846FDF73BF902F067FE1A4B9B6903F6C1
:1000F000FF7323F47F6323F00F0319180020FFF729
:10010000B9FF054668B11048104B13491B1ADB08AC
:100110001B0443F001002A46FEF722F82846FDF7AB
:100120001DF9EFF305830023D4E9000183F314885C
:1001300083F3108883F3118883F31388BDE8384074
:10014000FFF794BF00D00600D8C20700F0C2070036
:10015000B79C0700D0800020EE9C07001FB518490F
:100160000B7853BB4FF08043A024D3F81824D2035C
:100170005CBF01229A60134B0022C3F80021D3F820
:10018000000103900398C3F84021D3F84001029086
:100190000298C3F84421D3F84401019001980A4819
:1001A00080F82443102444600220C3F8082501226B
:1001B0009A601A60C3F804030A7004B010BD00BF4F
:1001C000E46800200040024000E100E073B51D4BF0
:1001D0001D4E05461D481B1ADB081B040C462A460B
:1001E00043F004001A49FDF7BBFF6FF07F41D6F8DA
:1001F0000435A14228BF21460B44611A2C7B4A1EBC
:10020000942A23F07F4304F5A8729BBF963B963156
:100210006960696046F822300E4B4FF4F86043F095
:10022000010398470C4BA200134400221A601B687C
:100230000193019B4FF48033A340C6F8043302B00E
:1002400070BD00BFF0C2070000400240D8C20700E6
:10025000229D0700609D0700404102402DE9F743C1
:10026000254BD3F8042152B124490A6801320A60AF
:100270000022C3F80421D3F804310093009B204DE1
:10028000204B214C214EDFF89080DFF86C90204FFE
:10029000ED1AED082D0445F004053368CBB10023B9
:1002A000336033680193224641462846019BFDF79F
:1002B00057FF227B17494FF480339340C9F8083326
:1002C00022462846FDF74CFF616851B12046FFF7F2
:1002D0007DFF0436BE4204F11004DED103B0BDE858
:1002E000F083A16811B12046FFF770FF2368002B4F
:1002F000EFD09847EDE700BF00400240E0680020E3
:10030000F0C20700D8C20700182600204041024072
:10031000484102404A9D0700389D0700F8B5114B3F
:10032000114E0446114837681B1ADB081B043A4675
:1003300043F004000D460E49FDF712FF3A7B4FF4DF
:10034000803393400B4AC2F808334CB13668FFF74C
:1003500005FF356021463046BDE8F840FFF736BF5F
:10036000F8BD00BFF0C2070038260020D8C2070041
:10037000389D07000040024070B5074B1D680E46CF
:10038000A8600446FFF7EAFE2E6021462846BDE835
:100390007040FFF71BBF00BF3C260020034A044B00
:1003A0001068D3F8043503EB00607047E068002064
:1003B00000400240014B01221A707047E56800209E
:1003C0002DE9F341214BDA6A5F6A9D6CAC2A1FD19B
:1003D0005B6B1D44FF1A1E4B1E4E1F4A1F490097A0
:1003E000F61AF608360446F004082B464046FDF798
:1003F000CAFE19483A46294608F016F9044668B973
:1004000017494046FDF7A8FE204602B0BDE8F0813E
:10041000002DE0D102F0E4FC0546DCE711493B4643
:100420002A464046FDF7A5FEFDF744FD0028FBD116
:1004300000F0A0FA3946284601F08CFE0446002858
:10044000E2D0094946F00100DCE700BFD08000207F
:10045000D8C20700F0C2070000D00600669D070062
:100460009B9D0700D29D0700FF9D07002DE9F04FDF
:10047000364B2DED028B1646354A9B1A85B0DB08AC
:100480001B040293814243F0040308EE103A054630
:100490000F460AD12F491846FDF75EFE002420467C
:1004A00005B0BDEC028BBDE8F08FA7EB05084FEA65
:1004B000183800F019FAB8F1080F28BF4FF00808F3
:1004C00006F6FF7A4FEA08334FEA1A3A03930EB959
:1004D0003446E4E7D0452CBFD346C3464FF0000274
:1004E0005946284634BFDDF80C90B14601F0ECFDCA
:1004F00004460028D3D11849CDF8009018EE100A10
:100500002B463A46FDF73FFE09F10302234622F04F
:1005100003023946284601F099FD04460028BED161
:100520000E4A136B4B44136302F012FBAAEB0B0A47
:10053000A6EB09064D444F4404460028C7D0029B51
:10054000074943F00100FDF707FEA8E7F0C20700E6
:10055000D8C20700199E0700289E0700D0800020FF
:10056000499E07002DE9F74302F04CFC314C324B19
:10057000DFF8E4903149D9F84860D9F83080D9F8EB
:100580003450E41AE4082404074644F004000190BF
:10059000FDF7E2FD06F5005301985A68284B9A4290
:1005A00009D0284944F00100FDF7D6FD032528466F
:1005B00003B0BDE8F083D9F83030AB421E4404D11B
:1005C0002149FDF7C9FD0025F1E7C3B94FF44052B9
:1005D0001178142982BF1D495269B2FBF1F206F568
:1005E000005198BF1A4691F800C0BCF1140F82BFA9
:1005F0004969164BB1FBF3F31549FDF7BAFDA5EBBD
:10060000080202F6FF7222F47F6222F00F023146E6
:1006100007EB0800FFF72AFF054628B10D4944F013
:100620000100FDF799FDC2E703B0BDE8F04302F019
:100630008FBA00BFF0C20700D8C20700829E070031
:10064000DBE5B151A79E0700DB9E070040420F008B
:10065000ED9E0700169F0700D08000202DE9F0478F
:100660005C4B5D4D5D4E5E49ED1AED082D0445F085
:1006700004073846FDF770FDF36AAA2B00F08D8061
:100680000BD8012B20D0A52B7BD045F0030055497A
:10069000FDF762FD0020BDE8F087AC2BF5D1524993
:1006A0003846FDF759FD51493846FDF755FDFFF72E
:1006B00059FF044600287AD04D4945F00100FDF766
:1006C0004BFD4FF0010823E04A493846FDF744FD51
:1006D000D6F82490D6F848A002F06EFB346B464959
:1006E00000EB04083846FDF737FD316B514488456F
:1006F00014BFA9EB040200224046FFF7B7FE0446F0
:1007000070B13E4945F00100FDF726FD4FF00008AD
:10071000F36A3B49224645F00100FDF72AFD13E04C
:1007200002F04AFB22464946FEF704F8B26A9042BC
:1007300080461FD133493846FDF70EFD0123C6E937
:100740000783C6F81890A0462F4802F029FB2F4BCC
:100750002F4800221A7002F0FBF988BBB8F1000F95
:1007600035D0336A012B32D138462A49FDF7F4FCE3
:10077000022090E70346284945F00100FDF7F9FC07
:10078000E1E726493846FDF7E7FCFFF7EBFE4FF0BF
:1007900001080446002CD7D0BAE721493846FDF7B6
:1007A000DBFCFFF70DFE4FF000080446F2E7FFF711
:1007B00007FE044608B11B497FE74FF00108C3E775
:1007C00045F001001849FDF7C7FC032063E701204D
:1007D00061E700BFD8C20700F0C20700D080002048
:1007E0002F9F07003BA00700E49F0700F29F070030
:1007F0000FA00700509F07005A9F0700169F070091
:1008000054A00700759F0700F4800020E5680020D1
:10081000B503070086A007008A9F0700D29F070044
:10082000DB9F070025A00700E2A0070010B5002409
:10083000D4F8F83F013304D1084940F6F870FEF7C8
:1008400093FFD4F8FC3F013307D1BDE810404FF4CB
:10085000FC2140F6FC70FEF787BF10BD00D00600FB
:100860000A4AD2F800347BB109480023D2F80815AF
:10087000D940C90748BF03F5C07103F1010348BF60
:1008800042F82100072BF1D1704700BF0000014062
:100890003546526E08B50748074B0849C01AC008CC
:1008A000000440F00300FDF757FCBDE80840FFF7E7
:1008B000D7BF00BF20C30700D8C20700FCA00700B5
:1008C00007B5084B0022C3F80021D3F8003101938B
:1008D000019BFDF703FDFDF7EDFA0028FBD103B006
:1008E0005DF804FB0000014037B5194D2B784BBB78
:1008F00018481949194B401AC008D3F800240004BD
:1009000040F0030002B3D3F8044515490190224694
:10091000FDF726FC40F616529442B8BF1446A4F5E3
:100920004864FFF79DFF01980E492246FDF718FC29
:100930000D492046FFF720FD0C4B4FF480321A6022
:1009400001232B7003B030BD0949FDF705FCF7E723
:10095000E668002020C30700D8C20700000001405D
:100960000AA1070023A107009508070000E100E0A5
:1009700055A10700034BD3F800340BB1FFF770BF4C
:10098000704700BF000001400023C0E90232C0E907
:1009900000118B881A440261B1F906301A44426191
:1009A0000888003818BF0120704710B542681188C8
:1009B0000346002939D002F110014160148A2CB994
:1009C000C2680168FFF7E0FF204610BD90781189EA
:1009D00000F03004302C1BD1947C04F03004302C17
:1009E0001DD190881969091A19610021907810F0B9
:1009F000300F02BF986801309860908A08441969E6
:100A000001441961B2F91620114459610120DCE753
:100A100000F0F004202C02D150894143E6E700F0B9
:100A2000C000802808BF0421E0E70846CDE770B584
:100A3000466804460D4663681A88AA4204D19B782A
:100A400003F00F03082B07D12046FFF7AEFF6368C2
:100A5000B342F0D1002070BD0120FCE743681A4486
:100A6000426011B101399A4201D10120704713F857
:100A7000010B01F8010FF6E770B54268927802F0B9
:100A80000F01082986B003461FD103691C680026A0
:100A90000CB906B070BD236826739D68626829464C
:100AA0006846FFF771FF6368049304F10C03059334
:100AB000AB7803F0C003802B08BF231D684608BF36
:100AC0000493FFF7D9FFA468E2E712F0C00126D132
:100AD00002F03000102810D15A6911705A68186954
:100AE0009378D46803F00F03072B0BD101462046FF
:100AF00006B0BDE8704000F01AB89006EED55B690C
:100B00001980C6E71289214624B106B0BDE87040BD
:100B100007F09ABD06B0BDE8704007F0A3BD80297C
:100B2000B7D10069002192060160B2D5E7E77FB531
:100B30000A4601466846FFF727FF30B16846FFF7CF
:100B40009BFF6846FFF731FFF7E707B05DF804FB4E
:100B500010B5836804460BB9002010BD036801225C
:100B600098470028F8D0A368013BA360F5E72DE97A
:100B7000F3410F460DF107018046FFF7E9FF0546F7
:100B800020B90025284602B0BDE8F0819DF9073064
:100B90009DF80740002B13DA04F07F0407260DF1BF
:100BA00007014046FFF7D4FF0028EAD09DF8072050
:100BB00002F07F03B3401C43130606F1070601D47D
:100BC0003C60DFE7232EEAD1DBE7000030B50446C6
:100BD00085B01546A9B90268114B9A4211D0102D63
:100BE00006D82A4669462046FFF7F0FF05B030BD1B
:100BF000102269462046FFF7E9FF0028F6D0103D95
:100C0000EDE7A368AB4201D20020EFE723682A4654
:100C1000204698470028F7D0A268521BA260E5E75B
:100C20005D0A0700F7B50E4601A907461546FFF70E
:100C30009EFFA0B1019A511C4FF0000404D2B3787A
:100C400003F0C003802B01D1204608E033898B429A
:100C5000FAD329463846FFF7B9FF019BEC5403B09D
:100C6000F0BD73B50D4601A906461446FFF77FFF98
:100C700098B1019AB2F5803F11D2AB7803F0C0036E
:100C8000802B02F102010AD02B898B4207D3214627
:100C9000304621F8022BFFF799FF02B070BD00200B
:100CA000FBE7000010B5034C82600022C0E9004160
:100CB000C26010BD5D0A07002DE9F34100258046A2
:100CC0000E462F462C460DF107014046FFF740FF28
:100CD000C0B19DF807C0A4F120030CF07F02C4F15D
:100CE000200102FA03F322FA01F10B43A2401CF0A7
:100CF000800F45EA020547EA030704F1070404D11F
:100D0000C6E9005702B0BDE8F081462CDBD10020D7
:100D1000F8E737B50D4669461446FFF7CDFF70B1C9
:100D20002B89082B0DD1DDE90032C4E90032DDE961
:100D30000001914208BF98420CBF0120002003B07F
:100D400030BD042B03D1009B23600022EFE7022B70
:100D500003D1009B23809BB2F7E7012B04D1009BBA
:100D6000237003F0FF03F0E70020E8E737B50D46F6
:100D700069461446FFF7A0FF30B12B89082BDDE947
:100D8000001203D1C4E9001203B030BD042B4FEAB6
:100D9000E17009D121600B460246824208BF8B42B6
:100DA0000CBF01200020EFE7022B03D10BB2238000
:100DB000DA17F2E7012B02D14BB22370F8E70020DB
:100DC000E2E7F7B51F4600233B700D460B7013603A
:100DD00001A904461646FFF7CAFE30B9A36813B945
:100DE00001233B70002003B0F0BD019C002CF7D024
:100DF000E30804F0070433602C70F4E713B50446ED
:100E0000052925D8DFE801F0030F17242422012249
:100E100001A92046FFF7DAFE18B19DF90430002B36
:100E2000F5DB02B010BD08220021204602B0BDE86B
:100E30001040FFF7CBBE01A9FFF799FE0028F0D0C4
:100E4000019A00212046FFF7C1FEEAE70422EBE702
:100E50000020E6E773B50D4601A90446FFF787FEBB
:100E6000064618B90026304602B070BD94E80F005F
:100E700085E80F0001998A42F4D3A960A3685B1A40
:100E8000A360F0E72DE9F0435768BB7813F0C00486
:100E900089B006468C46154603D0402C6CD0002401
:100EA0000CE003F00F02614903F03003202B51F8EE
:100EB000228028D006D8CBB1102B1ED0204609B0F6
:100EC000BDE8F083302BF9D16B6939881980072A86
:100ED0000AD16B6828691A89214607F0C3FB6B6841
:100EE0002969D868FFF723FE2A6942E02A69394652
:100EF000434609B0BDE8F04318476B6901221A70F8
:100F00002A696968F4E7BCF1020FD5F8149024D17E
:100F1000042A22D804A9FFF79DFF04460028BED06A
:100F2000069B2BB16968B9F800304A899A4205D806
:100F3000059B7360069B002BC0D0B0E708892A6927
:100F400003FB002204A8C04728B1B9F800300133E0
:100F5000A9F80030E4E70446EAE7B9F800307A89F6
:100F60009A429CD92A693989581CA9F8000003FBC8
:100F7000012269683046BBE7D2F81080474657F82F
:100F8000043B23B909B0BDE8F043FFF737BF02299E
:100F900014D104A9FFF75EFF002880D0D8F80030F4
:100FA00069683A4604A89847044600283FF477AF9A
:100FB000069B002BF2D1059B73607FE7012926D0A9
:100FC00005292CD000297FF46AAF0C460DF10409E5
:100FD00001340B2C3FF463AF012249463046FFF742
:100FE000F5FD00283FF45BAF19F9013B002BEFDB67
:100FF0000F4B049301ABCDE9053400230793D8F8D8
:10100000003069683A4604A89847044656E7082223
:1010100001A9FFF7DBFD08240028E9D13FE70422FE
:101020000DEB0201FFF7D2FD0424F5E77CA10700D8
:101030005D0A07002DE9F04F91B00446002604A890
:10104000CDE90266FFF7A0FCA3683BBBDDE90534F0
:1010500004A89D78FFF7A9FC0028F7D115F0300F00
:1010600003D1059B1B8803B10134002C00F0A9803B
:10107000630902A90022934240F09C8010AA02EB6F
:10108000830304F01F0453F8383CC4F120044FF0EC
:10109000FF30E040C31A584258410DE00DF1030300
:1010A00001AA0DF102012046FFF78BFE38B99DF829
:1010B0000330002BCAD1002011B0BDE8F08F019998
:1010C00004A8FFF7B4FC002850D1019BB3427DD3A4
:1010D000059D059A937803F00F03082B7FD004A891
:1010E000FFF763FC059B9D42F3D14FF0FF36019F54
:1010F000B7426BD3089B9DF802A0D4F808801D6806
:101100004FF00109A368002D5DD098459CD12B6854
:10111000D3F800B0BBF1000F08D053463A46294639
:101120002046D8470028C6D0AD68EBE7D3F808B012
:10113000BBF800309F42F7D16A6859460AA8FFF70A
:1011400023FC6B680E9305F10C030F939BF80230A0
:1011500003F0C003802B04BF2B1D0E930AAA85F851
:101160000C9051462046FFF78DFEDBE7059B9B78F0
:1011700013F0300F0FD1069A3F2A0CD8510910AB4B
:1011800003EB810102F01F020123934051F8382C38
:10119000134341F8383CE5682DB19DF802200199D0
:1011A00004AB2046A8479DF8021004AA2046FFF78A
:1011B00069FE10E051F8045B01357FF47DAF013228
:1011C00059E7012078E798457FF43EAF9DF802107B
:1011D0002046FFF713FE00287FF436AF6BE7168832
:1011E00085E737B50C460546114620460192FFF7C4
:1011F0009EFC019A2146284603B0BDE83040FFF727
:1012000019BF70B586B0CE6801920C4602A905469A
:10121000FFF720FE68B1E06858B1A378019A03F0A7
:101220003003202B314602A805D1FFF7DAFF039BDC
:101230006B6006B070BDFFF7FDFEF8E713B50C4616
:101240006946FFF739FD60B1DDE900134A0842EA5B
:10125000C372C9074FEA530344BFD243DB43C4E917
:10126000002302B010BD37B50D4669461446FFF79E
:10127000E5FF70B12B89082B0DD1DDE90032C4E9FF
:101280000032DDE90001914208BF98420CBF012005
:10129000002003B030BD042B03D1009B2360DA177C
:1012A000EFE7022B03D1BDF900302380F7E7012BD4
:1012B00003D19DF900302370F1E70020E9E713B571
:1012C00004220C460DEB0201FFF780FC08B1019BE4
:1012D000236002B010BD1146FFF7F1BF13B508221D
:1012E0000C466946FFF772FC18B1DDE90023C4E93A
:1012F000002302B010BD1146FFF7F0BF10B5136810
:101300001F2B144607D900220830FEF78AF908B9C6
:101310002023236010BD48F21450FBE70830FEF78D
:101320005DB90830FEF72AB9008800F00100704767
:10133000831F012B10B5044602D8002001F0F6FCF3
:10134000034B1B681BB12046BDE81040184710BD79
:10135000E868002038B5104B104C1860104B11494C
:10136000E41AE408240444F00300FCF7F5FE00202E
:10137000FFF7DEFF0C4801F09FFC054620B9BDE8F1
:101380003840094801F04CBA0246084944F00100CF
:10139000FCF7E6FE284638BDE8680020F0C20700EA
:1013A000D8C207006CA30700311307007FA3070012
:1013B0006EDF70476FDF704772DF704773DF704713
:1013C00074DF704775DF704776DF70477ADF7047EC
:1013D0007CDF70477DDF70477FDF704786DF7047B7
:1013E0008FDF704790DF7047A8DF7047AADF704734
:1013F000ADDF7047AEDF7047AFDF7047B0DF7047DB
:10140000B1DF7047B5DF704762DF704766DF704756
:1014100013DF704710B5094B0949044609481B1AE8
:10142000DB081B04224643F00400FCF799FE21462A
:101430000548BDE81040FDF7DFBA00BF28C307002C
:10144000A9A30700D8C20700B8C30700F0B591B040
:10145000182200210AA807F005F901238DF8283089
:101460008DF83D303E4C3F4B3F49E41AE4082404DC
:10147000282244F004000C92FCF76EFE3B4B02AABB
:1014800003F11007164618685968154603C5083356
:10149000BB422A46F7D1364D10223146284607F086
:1014A000C3F8002859D002238DF83C30012105F102
:1014B000100301A801930695FFF77AFF38B1FDF7F5
:1014C000B5FF2C49024644F00200FCF749FE012218
:1014D000002106A8FFF76EFF38B1FDF7A7FF2649E8
:1014E000024644F00200FCF73BFE04221623234C84
:1014F000ADF804300023CDE90733099302232370AC
:101500002371592309260125A27063710322FE234A
:101510006570E270A37101A9A0190694ADF81C6072
:10152000FFF758FFB8B9BDF8043026725A19E271B6
:10153000BDF81C20124C134406A90AAA2046ADF897
:101540001C30FFF739FF30B92078FFF739FF2078DA
:101550002946FFF733FF11B0F0BD0622C6E700BFF2
:1015600028C30700D8C20700BBA30700C8A807000C
:101570007C790020CAA30700F1A307004E79002060
:1015800040260020F0B50388242B8FB0044637D8BE
:101590000F2B04D8012B00F08C810FB0F0BD103B55
:1015A000142BFAD801A252F823F000BF311607001D
:1015B000731607001D180700D11707002D1A070022
:1015C0009B1507009B1507009B1507009B1507003F
:1015D0009B1507005D1A07009B1507009B15070068
:1015E0009B1507009B1507009B1507009B1507001F
:1015F000771807005918070085170700B317070069
:10160000503B9AB2062AC8D8062BC6D801A252F877
:1016100023F000BF9F160700291907005D1A070075
:101620009B1507009B150700251707009F1807004B
:10163000A34BA44DA449A54EED1AED082D0445F089
:101640000400FCF789FDA3883380A14B1B680BB114
:10165000012098479F493088FFF7B4FE02460028D2
:101660009BD09D4945F001000FB0BDE8F040FCF76C
:1016700077BD964B4FF6FF721A80984B1B685A073E
:1016800004D4FFF7E3FE08B1FBF768FE904B1B683C
:10169000002B82D002200FB0BDE8F0401847904FD9
:1016A000E288BB889A427FF478AF8E48854DFDF77B
:1016B0007DF9834BED1AED082D04064638B98A49A9
:1016C00045F002000FB0BDE8F040FCF745BDF42343
:1016D0000093238A8549024645F00400FCF753FD38
:1016E000228A04F11201304606F0AEFF18220021D2
:1016F00008A806F0B7FF08238DF820307C4B0A932A
:101700007C4B0997CDE90B3608A8238AADF8343015
:1017100001F066F800283FF440AF72483146FDF70B
:101720006BF93AE7E288F62A28D8D31E9B0727D020
:10173000D31F9BB2013B594201F0030103F00303A5
:1017400002F1FF3458BF4B42E31A9CB25C4B5D4838
:101750006949C01AC0080004234640F00400FCF7A1
:1017600008FD5A4B21461888FFF74CFE00283FF42D
:1017700014AF0FB0BDE8F040FBF7F0BDF724E5E78C
:101780001446E3E74E4B4F485C49C01AC0080004BA
:1017900040F00400FCF7E0FC0022A08808A9CDE995
:1017A0000822FFF71FFE00283FF4F7AEFBF7D6FD37
:1017B000F3E6434B434862895149C01AC008E389A4
:1017C000000440F004000FB0BDE8F040FCF7D1BCCD
:1017D0003B4B3C4C4B493D4DE41AE408240444F097
:1017E00004042046FCF7B8FC02230893288806ABC3
:1017F00008AA42F605210993FFF7FAFD08B1FBF7A5
:10180000ADFDBDF8182040492046FCF7A9FC002397
:1018100028881A468521FFF7DFFDC4E7284B2948B1
:101820003A49C01AC008000440F004000390FCF7D5
:1018300093FC628936490398FCF792FC228935496A
:101840000398FCF78DFCA28933490398FCF788FCC8
:10185000E2893249039807E7194B1A483049C01A00
:10186000C008237A00930004637AA27A40F004004F
:10187000FCF789FC91E6124B12482A49C01AC008AD
:10188000000440F00400FCF767FC0023A0888DF8FA
:10189000203008A98DF82130FFF7A2FD83E7A37956
:1018A000002B7FF47AAE094B13211888FFF78CFDCB
:1018B0005CE7064B00211888FFF7A8FD56E700BF3C
:1018C000D8C2070028C3070020A407004226002032
:1018D00074790020F6A807002AA407007079002078
:1018E0003A790020B8C3070058A4070077A407007E
:1018F000F91B07001514070097A40700DDA40700D3
:101900000EA507004CA5070074A5070097A50700C2
:10191000BEA50700D4A50700EAA50700FCA507009F
:1019200011A607004BA60700A379002B3FF435AEA4
:10193000022B7FF432AE654D2189AA8991427FF452
:101940002CAEA27B012A7FF428AE4FF4803209929C
:10195000228A5F4EADF82820628AADF82A2004F171
:1019600014020B9205AF298A3088089306AA0693C1
:101970000797FFF73DFD60B93846FFF7D5FC40B942
:1019800040F2FD133088ADF8243008A9FFF736FD8A
:1019900003E6002308A93088ADF82430FFF72EFDB8
:1019A000014600287FF4F9AD182208A806F05AFE77
:1019B000237D484A8DF82030022B09950A9224D0C5
:1019C000062B10D0012B10D1434B1A88434B1A80A1
:1019D000637DD4F816200C93012B0D9205D140485D
:1019E00001F0A4F901E0637D0C9308A800F0F8FE73
:1019F00000283FF4D2AD3B4A3B4B3C499B1ADB08E5
:101A00001B04024643F001002EE6364B36483849A7
:101A1000C01AC008000440F00400FCF79DFB2E4AE9
:101A2000B4F8153013802D4A1380DEE72D4B2E4875
:101A30003049C01AC008000440F00400FCF78CFBD9
:101A40002D4A258AD08D02F11C010023854218BF42
:101A500019460432A088FFF7C1FC87E6214B224CCF
:101A60002649E41AE408240444F004063046FCF74E
:101A700073FB174B22491D88082201232846FFF7D4
:101A8000BFFC00BB0246014602232846FFF7B8FC14
:101A9000C8B90E4B4FF6FF7219882846FFF7ACFC09
:101AA00043F20203984203D0082801D0112808D13C
:101AB0000246144944F00200FCF752FB124930463A
:101AC00000E60028FAD0FBF749FCF7E73A79002056
:101AD00042260020F91B0700B8790020BA790020BF
:101AE000C4C20700D8C2070028C3070086A60700A3
:101AF00074A60700BAA6070078790020E0A60700C0
:101B0000B079002003A7070053A7070070B5204E47
:101B1000346814F0010432D01E4B984236D01E4B6C
:101B20001E4D1F4C1F49ED1AED082D0445F004050C
:101B30002846FCF711FB22884FF6FF739A4220D00B
:101B400019492846FCF708FB3368208843F0040352
:101B500013213360FFF738FC044680B9134EC824C4
:101B600046F001064FF47A40B047013CFAD102F04A
:101B70005DF9044618B90E492846FCF7EDFA2046EF
:101B800070BD0C4B1878FFF71BFCF0E70024F6E75C
:101B900070790020C4C20700D8C2070028C307001C
:101BA0004226002075A7070092A70700F0A80700AB
:101BB000A1A70700402600207FB50023CDF80B30F9
:101BC0008DF80F300A4BADF806109B89ADF8083040
:101BD00001238DF80A300DF10603CDE90430054BE1
:101BE00002A91888FFF706FC07B05DF804FB00BFE8
:101BF0003A7900204226002010B5044686B0002124
:101C00000D2202A8019106F02DFD2378082B0BD19F
:101C10003C4A3D4913880988013B9BB2138031B38C
:101C20002BBB032311802370637822788DF8052065
:101C30006021012B8DF804108DF8063019D033493E
:101C40003348401AC0080004324940F00200FCF753
:101C500090FA63780B2B12D100F072FA8DF807001E
:101C6000002000F067FA042101A8FFF7A5FF06B0E5
:101C700010BD062A05D0082A29D0032A27D003211F
:101C8000F2E7E1688DF80710D4E90123080A8DF81E
:101C90000800080C090E8DF80A10110A8DF80B20A7
:101CA0008DF80C10110C120E8DF80E201A0A8DF8FA
:101CB0000F308DF810201A0C1B0E8DF80D108DF8BA
:101CC00009008DF811208DF812300F21CCE7D4E9EE
:101CD0000123110A8DF807208DF80810110C120E3F
:101CE0008DF80A201A0A8DF80B308DF80C201A0C8A
:101CF0001B0E8DF809108DF80D208DF80E300B217C
:101D0000B2E700BFBA790020B8790020D8C2070036
:101D100028C30700BAA707002DE9F0413E4B94B055
:101D200005464FF6FF721A8001204FF659632A4686
:101D300002A98DF80A00ADF80830FFF755FB0446FC
:101D4000002865D1354B04AA03F110071646186820
:101D50005968144603C40833BB422246F7D1A91C74
:101D60003046FFF751FB0446002851D101461C22A2
:101D70000DA806F077FC9DF834308DF8044043F050
:101D800004038DF834300223ADF80C30AB788DF8B5
:101D90000E3003238DF80630F423CDE90A44ADF864
:101DA0002C302B464FF0210833F8040B0C9403AF72
:101DB00001AE08AA0DA98DF8058008970996FFF7CE
:101DC00015FB044620BB01461C220DA806F04AFC68
:101DD00018238DF834300123ADF80C30AB788DF832
:101DE0000E3013238DF806301723CDE90A44ADF8E1
:101DF0002C302B4608AA33F80C0B8DF804400DA9A3
:101E00000C94CDE908768DF80580FFF7EFFA0446CB
:101E1000204614B0BDE8F08142260020D8A8070073
:101E2000F7B5424E336813F0010407467BD1404BAF
:101E3000404D4149ED1AED082D0445F004052846B2
:101E4000FCF78AF93D4B3E481F60FCF798FD019472
:101E500000F091F9044600285ED13A4A3A492846F2
:101E6000FCF77EF93748FFF7D3FA0446002853D130
:101E700036492846FCF770F901F09AFF044600281D
:101E80004AD101A802F066F80446002844D130493E
:101E90002846FCF761F901A9012002F065F8044623
:101EA000002839D12B492846FCF756F901A802F041
:101EB00029F9044680BB00F0C7FE80B328462649B6
:101EC000FCF74AF9254800F0B3FE112324498DF8A8
:101ED00004302846FCF740F9224806F007FC214967
:101EE00082B201A8FFF774FA0446A8B91E48FFF7AA
:101EF0006DFA044680B91D48FFF70EFF044658B935
:101F0000FFF7A4FA044638B93368194943F00103CE
:101F100028463360FCF720F9204603B0F0BD0320CB
:101F2000FBF71CFAD1E70024F6E700BF7079002028
:101F3000D8C2070028C30700E1A707007479002072
:101F4000B8C3070000D0060000A8070020A80700BB
:101F500035A807004CA8070064A80700787900207E
:101F600076A8070095A80700F6A807003A79002090
:101F70009DA8070030B51A490B6885B004460BB11F
:101F8000013B0B601748184A63682578121AD2087B
:101F9000120442F004008BB90B68144A14490093F0
:101FA000012D08BF0A46A3681249FCF7ECF86369E3
:101FB0009BB1E06805B0BDE8304018470A6802925E
:101FC00022690192A2680A490092084A012D08BFBD
:101FD0000A460949FCF7F1F8E9E705B030BD00BF52
:101FE000BC790020D8C2070030C3070004A907004D
:101FF000FEA807000AA9070030A9070008B5024695
:102000000B4B0C481B1ADB081B0443F004004AB1BD
:102010000949FCF7A1F809490948BDE80840002230
:10202000FCF7D8BE0749FCF797F80749F4E700BF6B
:1020300030C30700D8C207006CA9070060940700EE
:10204000C426002092A90700349407002DE9F74325
:102050009846174C174BDFF86C90E41AE408D9F84F
:1020600000302404CDE9002305460B460E461746F2
:102070001149024644F00400FCF791F829460F4844
:10208000CDF800803B463246FCF7A8FE054640B935
:10209000D9F800300133C9F80030284603B0BDE854
:1020A000F0830246064944F00200FCF759F8F4E7D1
:1020B00030C30700D8C20700BAA90700C426002011
:1020C000FDA90700BC7900202DE9F341134B144C06
:1020D000144FE41AE4083B680093240405460B46B9
:1020E0000E4690461049024644F00400FCF74BF8B7
:1020F00029460E4843463246FCF777FE054630B97E
:102100003B6801333B60284602B0BDE8F0810246DF
:10211000074944F00200FCF723F8F4E7D8C20700AF
:1021200030C30700BC7900202AAA0700C42600207B
:1021300067AA0700014B18700B207047C079002078
:10214000024B002218781A70704700BFC079002037
:1021500018DF704730B585B0054610220C4668463A
:10216000002106F07FFAA408684601950294FFF763
:10217000EFFF05B030BD1FB50023CDE90133039358
:10218000684602230093FFF7E3FF05B05DF804FB08
:102190004FF000534FF480521A6000207047000047
:1021A000084B09480949C01A10B5C008000440F09E
:1021B0000400FBF7D1FF064BBDE810401B6806206A
:1021C000184700BFD8C2070038C30700A2AA0700FB
:1021D000CC7900200A2803D90B38C0B2FFF7AABF78
:1021E0007047000070B5054686B00020FCF704FE7D
:1021F0000146A0B1274A18212846FCF7CBF9002850
:102200003DD0254A254B26499B1ADB081B04024674
:1022100043F0010006B0BDE87040FBF7A1BF1822F3
:10222000684606F01FFA04231C4C8DF800301A4B48
:102230001C4EE41A1C4B1A6D3368E40824049A42BD
:1022400044F004041DD119492046FBF785FF184BC3
:102250003168186801F0A0FC8DF80100FFF7BAFFA3
:10226000D5E901138DF8010068469847114800F040
:102270006FFC9DF8012010492046FBF771FF06B066
:1022800070BD01238DF801306846D5E901139847E8
:10229000EFE700BFE5210700D8C2070038C30700F9
:1022A000D6AA0700C4790020D0800020FFAA07002A
:1022B000C8790020A12107002EAB07002DE9F041CD
:1022C00088B004461822002102A806F0CBF9AB4ED4
:1022D000AB4B22788DF80820F61AF6080127360451
:1022E0008DF8097046F004050C2A00F24782DFE8F9
:1022F00012F00D00AF00A100AF00AF004502AF002B
:102300009900AF00910026003D00A6009D49284697
:10231000FBF722FF8DF80C709DF809209A4928469A
:10232000FBF71EFFD4E9011302A898479DF8093076
:10233000012B00F01182954B05201B680BE294499C
:102340002846FBF709FF4FF08053D3F80021039292
:10235000D3F804210492D3F80C2192020692D3F808
:102360001021920205921B690793D5E789498A4E8D
:102370002846FBF7F1FE227C88492846FBF7F0FE51
:102380004FF44053326A5B688548834214BF01238F
:102390000223012A4FF001028DF80920227C08BF98
:1023A000013352B902238DF80C30F36804937D4B4E
:1023B0000593C3F5FC230693AEE7012A13D14FF42E
:1023C00040514F6887420ED100238DF80C300A78B7
:1023D000142A88BF4B6904934FF4805305934FF43C
:1023E00040539B68E7E79A4209D201238DF80C30ED
:1023F000B368049300F004FDB3690590DBE76A4914
:102400002846FBF7A9FEFF238DF80C300023CDE909
:102410000433D0E765492846FBF79EFE237C8DF800
:102420000C3079E762492846FBF796FE238AADF81F
:102430000C3071E75F492846FBF78EFE6CE72846B3
:102440005D49FBF789FE514B07201B68984763E7FE
:10245000062A5A4F01D0012A01D123693B703B78EB
:10246000012B09D0022B72D0554946F00100FBF731
:1024700073FE00233B7005E1013A072A3FF64CAF9B
:1024800001A353F822F000BFA92407001923070075
:10249000C92407000D250700192307003F25070061
:1024A00019230700DD24070046492846FBF754FEA0
:1024B000364B03201B689847606901F071F8FFF7FD
:1024C00089FE8DF8090027E73F492846FBF744FEBF
:1024D000314BDA6B1B6C039204931DE73B49284692
:1024E000FBF73AFEA18A206901F072F8FFF772FE4D
:1024F000294B8DF80900DA6B1B6C0493E368039297
:10250000002B3FF409AF2069984705E7304928467A
:10251000FBF722FE2F49304801F0D8F8FFF75AFEAA
:1025200001288DF809007FF4F7AE002000F010FBC1
:1025300008B92A497FE70A238DF80930ECE62849D3
:102540002846FBF709FE4FF400730593C0E7013AF4
:10255000072A3FF6E1AE01A353F822F0E525070074
:1025600019230700012707001F2707001923070069
:102570005F270700192307009B26070038C30700C1
:10258000D8C2070056AB07002EAB0700CC7900205D
:1025900079AB07009CAB0700D0800020BFAB0700E1
:1025A000DBE5B15100D00600DCAB0700F3AB070060
:1025B0000AAC070024AC070048AC07004426002002
:1025C000E0AF070060AC07008AAC0700AEAC0700C4
:1025D000D7AC0700C4790020C879002002AD0700FD
:1025E00027AD070069492846FBF7B6FD01F020F842
:1025F00030B9674946F00100FBF7AEFD08239BE7C1
:10260000626932B9634946F00100FBF7A5FD032377
:1026100092E7C2F30B0343B15F4B60495B6D0968FE
:1026200013448B4201D05E49EDE7B2F5805F06D9D5
:102630005C4946F00100FBF78FFD04237CE7564F11
:1026400056497B6D0968D018884206D9009146F03A
:1026500001005549FBF797FDD0E77A64FA6CBA643C
:102660003B65524A3B636169106801F6FF710022C5
:10267000090B1844FFF728FD30B14D4946F0010021
:10268000FBF76AFD052357E7BB6C00933B6D7A6C43
:1026900048492846FBF777FD3EE647492846FBF7C1
:1026A0005BFD00F0C5FF0028A8D03B4FA18AD7E909
:1026B00014329B1A7A6C0B44934201D93F49A2E72A
:1026C0003A4A3B6B1268206903EB020807F14802A3
:1026D000FCF730F8E368A28A216906464046FFF716
:1026E000B5FC08B1E3680EE7A28A3B6B049613447D
:1026F0003B63A38A3A6DBE6413443B6503930BE6C8
:10270000254E2F492846FBF727FDB36C326D2D4926
:102710002846FBF72EFDB36C0493336DEEE7284695
:102720002949FBF719FD1C48D0E91473426CFB1AC8
:10273000934205D0254946F00100FBF71AFD5DE7FD
:10274000836CC3640021416447652046FFF74AFD5E
:102750001F4B1B680420984708B0BDE8F0811D4955
:102760002846FBF7F9FC0C4B4FF480519A6C1B6D1B
:10277000059100910492184903938AE7174946F09E
:102780000300FBF7EDFC0223D6E600BF51AD0700C6
:1027900078AD0700ADAD0700D0800020C4790020DF
:1027A000C6AD0700E7AD07000BAE0700C8790020F3
:1027B0007CAE070093AE0700CEAE0700F4AE070074
:1027C0000BAF07002CAF070042AF07006AAF07004E
:1027D000CC7900208EAF0700B5AF070000B007002E
:1027E00010B583688BB10A4A1821FBF7D3FE044663
:1027F00048B10848084B09491B1ADB081B0443F081
:102800000200FBF7A9FC204610BD0724FBE700BF30
:10281000BD220700D8C2070038C307001FB0070059
:1028200038B50546C0B10120FFF7E8FB044648B9BA
:1028300000F0A8FE00F0FCFE30B9084B00201D603F
:10284000FFF778FC204638BD0549064800F03EFFFA
:102850000128F2D00324F5E70724F3E7CC79002020
:10286000C4790020C87900202DE9F74317464FF4BA
:10287000607298461F4D0646894605F0D5FE1E4BF0
:10288000ED1AED0804462D0445F0040054B91B4927
:10289000FBF762FC1FB9002003B0BDE8F0832046BF
:1028A000B847F8E716490190FBF756FC154901981F
:1028B0003246FBF755FC002201213046FFF704FCAD
:1028C00030B1114945F00100FBF746FC0320E3E776
:1028D0004FF460724946404605F0B6FE3B464FF461
:1028E000607241463046FFF7B1FB0028D3D007495C
:1028F000E8E700BF50C30700D8C207004FB0070089
:1029000099B00700ADB00700CDB00700F0B00700E8
:102910002DE9F047564C236801337BD00022582123
:10292000201DFBF707FFD4F800A0AAEB0002D2F1AC
:10293000000A4AEB020ADFF86C814E4CD8F80060BE
:10294000DFF8649133684C4F013300F08B80002234
:102950005821301DFBF7EEFE336883425DD1756868
:10296000012D0AD00022C32106F51870FBF7E2FE04
:10297000D6F85C522B1A5D425D41BAF1000F4ED081
:10298000A4EB0906F608360446F004063B49304637
:10299000FBF7E2FB364938484FF4607205F054FE0D
:1029A00095B137493046FBF7D7FBD8F800103548CA
:1029B0005422043105F048FED8F8001032484FF494
:1029C00032725C3105F040FE7D68012D48D1A4EBE8
:1029D0000900C00800042D4940F00300FBF7BCFBD0
:1029E0002B49402201F5E47005F02EFE29491C22F6
:1029F00001F5E47005F028FE274987F8A15200236D
:102A0000042201F2862087F8603287F8E23205F06E
:102A10001BFE23E04FF0000A8DE70025ADE775B1FE
:102A2000A4EB0900C00800041C4940F00300FBF7B8
:102A300093FBD8F8001010484FF46072C2E7A4EB83
:102A40000900C0080004164940F00200FBF784FBAF
:102A500009484FF46072002105F004FE02237B60F8
:102A6000BDE8F087BAF1000FE9D0002588E700BF84
:102A700000F0070050C30700D080002017B1070006
:102A80002CB10700D48000202C81002013B2070055
:102A90002C8200206C820020EC80002056B10700C0
:102AA000AFB1070048260020D8C2070070B50C4C13
:102AB000054600225821201DFBF73CFE0022206025
:102AC000C32104F51870FBF735FE2A46C4F85C02F2
