:020000040001F9
:10F000000097002015F401001DF401001FF4010019
:10F0100021F4010023F4010025F4010000000000A8
:10F0200000000000000000000000000027F40100C4
:10F0300029F40100000000002BF401002DF4010070
:10F0400011FB01002FF401004900020095FD0100B1
:10F050002FF401002FF40100BDF7010095FB010022
:10F060002FF401002FF401002FF401002FF4010010
:10F070002FF401002FF401002FF401002FF4010000
:10F080002FF4010061FB01002FF401002FF40100B7
:10F09000A9FD01002FF40100B1FD01002FF40100D2
:10F0A0002FF401002FF401002FF401002FF40100D0
:10F0B0002FF401002FF40100000000000000000008
:10F0C0002FF401002FF401002FF401002FF40100B0
:10F0D0002FF401002FF401002FF4010000000000C4
:10F0E0000000000000000000000000000000000020
:10F0F0000000000000000000000000000000000010
:10F1000000000000000000000000000000000000FF
:10F1100000000000000000000000000000000000EF
:10F40000DFF80CD000F090F8004800479952020055
:10F41000009700200648804706480047FEE7FEE7C1
:10F42000FEE7FEE7FEE7FEE7FEE7FEE7FEE7FEE7B4
:10F43000F1FD010001F4010010B5431A934209D215
:10F440008318881803E010F8011D03F8011D521EEF
:10F45000F9D210BD40EA01039B0703D009E008C9B7
:10F46000121F08C0042AFAD203E011F8013B00F889
:10F47000013B521EF9D210BDD2B201E000F8012BBF
:10F48000491EFBD270470022F6E710B513460A4624
:10F4900004461946FFF7F0FF204610BD421C10F845
:10F4A000011B0029FBD1801A704730B504460020AB
:10F4B000034600E05B1C934203D2E05CCD5C401B42
:10F4C000F8D030BD2DE9F05F0546002092469B46FE
:10F4D00088460646814640241BE02846414647466A
:10F4E000224600F042F853465A46C01A914110D3C2
:10F4F00011461846224600F029F82D1A67EB01083C
:10F500004F4622460120002100F020F817EB0009A9
:10F510004E41201EA4F10104DFDC484631462A4654
:10F520004346BDE8F09F0000064C074D06E0E0684A
:10F5300040F0010394E8070098471034AC42F6D33A
:10F54000FFF762FFF0AC020010AD0200202A04DBDE
:10F55000203A00FA02F1002070479140C2F12003E6
:10F5600020FA03F3194390407047202A04DB203A25
:10F5700021FA02F00021704721FA02F3D040C2F1D3
:10F580002002914008431946704770B58C1810F856
:10F59000015B15F0070301D110F8013B2A1106D1D8
:10F5A00010F8012B03E010F8016B01F8016B5B1EF2
:10F5B000F9D12B0705D40023521E0DD401F8013BCD
:10F5C000FAE710F8013BCB1A921C03E013F8015B39
:10F5D00001F8015B521EF9D5A142D8D3002070BDBD
:10F5E0000A460021082800D100E000BF00BF704794
:10F5F00030B58BB0022006F002FD032006F0FFFCC0
:10F60000032006F021FD0021082006F0EBFC032179
:10F610001E2006F0E7FC03211D2006F0E3FC1F205E
:10F6200006F0EDFC1F2006F03DFD00211C2006F039
:10F63000D9FC0021092006F0D5FC334B0FCB07ACD9
:10F640000FC400231A4607A9304806F0F5FB04460C
:10F6500000BF254625B100BF284601F003FE00BFCC
:10F6600000BF2A4806F0D6FB06F0D0FA08B906F02B
:10F670009DFA254810300068069003208DF8190087
:10F68000234A06A91D2006F023FA04461E4814301A
:10F690000068059003208DF815001E4A05A91E205C
:10F6A00006F016FA04460021062006F09BFC164AD6
:10F6B000183207CA02AB07C3134824300068019010
:10F6C00000208DF80400144901A806F0E1FA044670
:10F6D00000BF254625B100BF284601F0C3FD00BF8D
:10F6E00000BF02208DF80A0002A9002006F0A2FA4D
:10F6F000044600BF254625B100BF284601F0B2FDF3
:10F7000000BF00BF0BB030BDACAA020098AA020037
:10F71000ED07020045060200C1080200032006F0C2
:10F72000C1FC4FF47A7005F063FF032006F08CFCF7
:10F73000022006F089FC00BF082006F09BFC002890
:10F74000FAD14FF4FA7005F053FF00F0A1F9000070
:10F7500010B501F04DF81848806840F6C63188426F
:10F760000ED2022006F070FC00BF082006F082FCDA
:10F770000028FAD14FF4FA7005F03AFF00F088F94A
:10F78000022006F08FFC032006F08CFC4FF49670EC
:10F7900005F02EFF032006F057FC642005F028FF3B
:10F7A000032006F07FFC4FF4967005F021FF032044
:10F7B00006F04AFC10BD0000682F00202DE9F04F34
:10F7C00089B04FF00008002008904FF48070079037
:10F7D0000126002413E0079806F0CAFC48B100BFD8
:10F7E00081480068304020B1079806F0B3FC48EA31
:10F7F000060876000798001D80B20790641C082C4C
:10F80000E9D34FF4BE7006F0B3FC50B14FF4BE70B4
:10F8100006F0A0FC48F0004808AA0121002006F0EC
:10F820007FFC08F0FF0000B3012600241BE006EA7D
:10F830000800B0B100BF6D4850F82400C0F30420A8
:10F84000074600BF694850F82400C0F301408146D4
:10F85000204603F009F8054615B149463846A84741
:10F8600000BF7600641C082CE1D308F0004000289B
:10F870007ED0002006900590002505E04FF0FF3077
:10F8800004A941F825006D1C002DF7D000BF002011
:10F89000069000246FE05648005D0390039820F026
:10F8A000C00753480057401C002863D004A93846BD
:10F8B00005F00AFE00285DD003984FEA901A3846FA
:10F8C00003F01AF8814602F0CFFF0290029810B9B7
:10F8D000BAF1030F4BD1BAF1030F11D1394605A884
:10F8E0000246CB0801F0070112F803C04FF0010EE9
:10F8F0000EFA01FE4CEA0E0C02F803C000BF00BF76
:10F9000000BF00BF4FF0A041084600F5E06151F88C
:10F910002710C1F3014900BF08A9384605F0D4FDFE
:10F920008346BBF1000F02D0B9F1020F05D0BBF145
:10F93000000F1BD1B9F1030F18D1BAF1030F0FD18A
:10F94000B9F1020F01D1032000E0022001903846F6
:10F95000019906F060FB0698401CC0B2069000BFFB
:10F96000029818B151463846029A904700BF00E00D
:10F9700036E000BF641C042C8DD3069858B30127D1
:10F9800003AA0121002006F0CBFB00250AE003A812
:10F9900050F8250008A951F82510884201D0002709
:10F9A00002E06D1C002DF2D000BF17B100200690C0
:10F9B00010E000250CE003A850F8250008A941F844
:10F9C000250005A850F8250004A941F825006D1C64
:10F9D000002DF0D000BF069800287FF458AF00BF7C
:10F9E00009B0BDE8F08F00000463004010650040DE
:10F9F000F074002000F01F0201219140024A4309E7
:10FA000042F823107047000080E200E000F01F027F
:10FA100001219140024A430942F823107047000037
:10FA200080E100E000F01F020121914042099200B4
:10FA300002F1E022C2F80011704700F01F0201211C
:10FA400091404209920002F1E022C2F80011704791
:10FA500000F01F0201219140024A430942F823109D
:10FA60007047000000E200E010B5002807DA4A07FE
:10FA7000140E054A00F00F031B1FD45403E04A077D
:10FA8000130E024A135410BD18ED00E000E400E02C
:10FA900000BF00BF00BFBFF34F8F00BF00BF00BF5C
:10FAA0000948006800F4E06008490843001D064961
:10FAB000086000BF00BF00BFBFF34F8F00BF00BF93
:10FAC00000BF00BF00BFFDE70CED00E00000FA053D
:10FAD00000BF00BF00BFBFF34F8F00BF00BF00BF1C
:10FAE0000948006800F4E06008490843001D064921
:10FAF000086000BF00BF00BFBFF34F8F00BF00BF53
:10FB000000BF00BF00BFFDE70CED00E00000FA05FC
:10FB100010B54FF4807005F053FD60B14FF4807064
:10FB200005F057FD012005F05DFD01200B494870EF
:10FB3000002002F0E9FF4FF4827005F041FD58B15A
:10FB40004FF4827005F045FD022005F04BFD0120C9
:10FB50000249887002F0D8FF10BD00008C740020AC
:10FB600010B500200949086000210948C0F8441177
:10FB7000C0F84811C0F84C1100200549C1F8000137
:10FB800002493C3908600AF0E1F810BD401101401B
:10FB900000100140FEB54FF4827006F047FB0028CC
:10FBA00035D04FF4827006F04BFB794890F82B006B
:10FBB00018B1774890F82C0048B300208DF8000069
:10FBC00073484068019072480189ADF80810C06818
:10FBD00020B900206E4981F829000FE06C48C06808
:10FBE0006B4948600846808A08810020C860084642
:10FBF00090F82B0010B9002006F03AFB6448016829
:10FC0000684688470020624981F82C0000BF6048A0
:10FC100090F82B0000286CD04FF4807006F006FBA3
:10FC2000002866D04FF4807006F00AFB5848C08A5E
:10FC3000B0B957480089564991F82A10401A5449DA
:10FC4000C8820A4612890B46DB8AD21A0B465B68C9
:10FC500003EB42000A4692F82A1006F09BFA41E0B4
:10FC60004B48C08A4A4991F82A10884216DD484814
:10FC7000C08A474991F82A10401A4549C8820A4665
:10FC800012890B46DB8AD21A0B465B6803EB4200F3
:10FC90000A4692F82A1006F07DFA23E03C48C08A12
:10FCA0003B4991F82A1088420FD13948C06860B1A9
:10FCB0000120374981F82C000020C8820A4692F8BA
:10FCC0002A10D06806F066FA0CE03148C08A304944
:10FCD00091F82A10884205D101202D4981F82C0085
:10FCE0000020C8824FF4827006F0AAFA042006F0C1
:10FCF000BFFA4FF4887006F099FA78B14FF4887023
:10FD000006F09EFA0020224981F8290002208DF891
:10FD10000000084601686846884700BF4FF48A70B3
:10FD200006F084FA40B14FF48A7006F089FA002098
:10FD3000174981F829002AE01548056924E0B5FA39
:10FD400085F64FF00040F0408543B00000F58C741C
:10FD5000204606F06BFAB8B1204606F071FA012091
:10FD60008DF80000A4F58C70C0F3C7008DF8040076
:10FD7000A4F58C70012121EA90018DF8051004484A
:10FD800001686846884700BF002DD8D100BFFEBD7E
:10FD90004075002010B50249024804F037FE10BD3E
:10FDA000187500200030004010B509F0CFFE10BDDE
:10FDB00070B50A48006868B1084800688047044682
:10FDC00000BF254625B100BF284601F04BFA00BF11
:10FDD00000BF01E004F068FD70BD0000A42D00200C
:10FDE00001480249086070470090D003BC2D0020F4
:10FDF00010B503F0D1F810B186488749486703F081
:10FE0000E3F828B185480068C0F3423084490860AF
:10FE100003F004F928B18348006820F0807081491C
:10FE2000086003F013F948B100207F4908604FF0E3
:10FE30008041C1F810017A49091F086003F030F9C8
:10FE400018B1032076496431086003F041F968B1C4
:10FE50000520764908600120744978310860002047
:10FE60007249083108603F20091F086003F048F913
:10FE7000002855D06E4800686E4908606C48001D27
:10FE80000068091D08606A4808300068091D08609C
:10FE900067480C300068091D08606548103000682C
:10FEA000091D0860624814300068091D0860604838
:10FEB000183000685F49203108605D481C300068D8
:10FEC000091D08605A4820300068091D086058481C
:10FED00024300068091D0860554828300068091D55
:10FEE000086053482C300068091D086050483030C5
:10FEF00000685049403108604D4834300068091DA1
:10FF000008604B4838300068091D086048483C309C
:10FF10000068091D0860464840300068091D0860F7
:10FF200003F010F830B13D481430006800F04F0085
:10FF3000414908603B487438006840F47000394912
:10FF40007439086000BF00BF00BFBFF34F8F00BF10
:10FF500000BF00BF00BF00BF00BFBFF36F8F00BF77
:10FF600000BF00BF3548006800F00100F0B101207B
:10FF70003349086000BF334800680028FBD02F4891
:10FF8000006820F001004FF01021C1F80C0200BF02
:10FF90002C4800680028FBD000202949086000BFD9
:10FFA000284800680028FBD0FFF792FD23480C3852
:10FFB000006800F0004028B920480838006800F0C8
:10FFC000004018B301201E49086000BF1D480068AA
:10FFD0000028FBD0152019490C39086000BF1948CA
:10FFE00000680028FBD0152114480838016000BFC4
:10FFF000144800680028FBD000201149086000BFA9
:020000040002F8
:10000000104800680028FBD0FFF762FDFFF7E8FE0C
:1000100010BD00000DF0ADBA00C007404402001052
:100020003C050040FCED00E00C0100401056004093
:100030000404001020C50040E40E00400C12001023
:1000400004E5014000E4014010B50648007F20B1FE
:10005000044905480AF086F903E0024902480AF01B
:10006000E0F810BDF8740020002000403EB50546C1
:1000700003208DF8080000208DF8090001200223DC
:1000800002AA09210090154805F03AFF04460CB178
:1000900000203EBD022301AA0921104805F01AFFE5
:1000A00004460CB10020F4E70120022302AA092132
:1000B00000900A4805F024FF04460CB10020E8E750
:1000C000BDF80400C3B22A460921044805F002FF26
:1000D00004460CB10020DCE70120DAE798AA020010
:1000E0002DE9F0411F2005F0E8FF322005F089FAE4
:1000F0001F2000BF4FF0A0410A46012303FA00F180
:10010000C2F80C1500BF00BF052005F07AFA1F20C9
:1001100005F0D3FF1F210020002213461446154688
:1001200000BF4FF0A0473E4642EA430747EA800738
:1001300047EA042747EA054C06F5E06747F821C07F
:1001400000BF00BF4FF4FA7005F05BFABDE8F08124
:100150002DE9F04F91B007460C4690461D46DDE96B
:100160001AABDDE91C6946B30020109000BF9DF872
:10017000400020F00F00401C8DF840009DF840002A
:1001800020F0F00010308DF8400000BF00BF9DF857
:10019000410020F00F00401C8DF841009DF8410007
:1001A00020F0F00010308DF8410000BF9DF84200B3
:1001B00020F00600801C8DF842001C2108A8FFF7E3
:1001C00062F99DF820006BF341008DF820009DF846
:1001D000200066F304108DF820009DF8200069F3DC
:1001E000C3008DF820009DF8200069F382008DF88F
:1001F0002000002009900B900C900EB110A800E098
:1002000000200D9000200E9009952846FFF746F932
:1002100080B2ADF828002846FFF740F980B2ADF86B
:100220002A000020029000BF9DF8080020F00F0077
:10023000401C8DF808009DF8080020F0F0001030F8
:100240008DF8080000BF00BF9DF8090020F00F00E6
:10025000401C8DF809009DF8090020F0F0001030D6
:100260008DF8090000BF9DF80A0020F00600801CF0
:100270008DF80A009DF80A0020F008008DF80A00A9
:100280009DF80A0020F010008DF80A009DF80A0081
:1002900020F00100401C8DF80A000F48007D8DF809
:1002A0003E00ADF83C700FA8039002A80490ADF892
:1002B00014400020ADF81600ADF81840CDF81CA091
:1002C00005494888434603AA08A9A2DF019001987E
:1002D00011B0BDE8F08F0000E035002010B50348F4
:1002E000C178034801F04AFC10BD0000682F0020CF
:1002F000D02D002010B50446A08805490880088844
:10030000153162DF0348C178034801F037FC10BDA6
:10031000E0350020682F0020D02D00204FF6FF711F
:10032000024A11800021917551757047E035002017
:1003300010B50446208811280ED004DC012814D002
:10034000102816D104E01C280AD0502811D108E04A
:100350002046FFF7CFFF0DE02046FFF7DFFF09E063
:1003600008E0204600F008F804E0204600F0C2F85B
:1003700000E000BF00BF10BDF0B589B00546AC1D60
:100380002688678915480089B04214D10020009062
:100390003A4604F10C016846FFF74EF8BDF800003C
:1003A000012802D10D49887502E000200B498875AB
:1003B00000F0BEF800BF09488089B0420BD13A4630
:1003C00004F10C0101A8FFF737F89DF8040001289B
:1003D00001D1FFF7A3F909B0F0BD0000E03500201E
:1003E00010B598B0264B0FCB13AC0FC40020254995
:1003F000887548754FF6FF70088000200B900590B7
:100400001C210CA8FFF73FF8142106A8FFF73BF8C2
:100410001C49143113A863DF044614B1204618B0F8
:1004200010BD1848007D8DF85E000020ADF85C001E
:10043000144A921C17A90120A0DF04460CB12046E3
:10044000EDE700200490012104ABCDE900310EA3BB
:100450000C4A121DCDE9021014210120FFF778FE8D
:10046000012000210091019108A3064A0C32CDE938
:10047000021001460220FFF76BFE0020CFE70000CC
:100480008CAB0200E035002058590000434D440079
:100490001FB586B01446154800884FF6FF71884294
:1004A00001D10AB010BD0020029003900490059085
:1004B000BDF81800ADF80800059409A804900120C3
:1004C0008DF80A000949088802A9A6DF0190019861
:1004D00048B907480068401C054908600348407D4A
:1004E000401E024948750198DBE70000E035002016
:1004F000602D002070B5044604F108052E780448EC
:10050000407D30440249487500F012F870BD00008B
:10051000E03500200448008804490988884201D158
:10052000012070470020FCE75C2D00205E2D00209C
:1005300000B587B0FFF7EEFF10BB1248407DF8B161
:10054000104800884FF6FF71884219D00D48807D11
:10055000012815D10DE002A800F016F809484168FD
:1005600000918068142302AA014601900098FFF7C9
:100570008FFFFFF7CFFF18B90248407D0028EAD16E
:1005800007B000BDE035002010B504460F480088D4
:100590000F490988884201D1002010BD0C4800880D
:1005A00000EB80000B4A02EB800114222046FEF78C
:1005B00043FF07480088401C4FF4487190FBF1F25C
:1005C00001FB1200024908800120E6E75C2D0020B3
:1005D0005E2D0020F835002010B504461348008831
:1005E00000F21F304FF4487190FBF1F201FB120052
:1005F0000F490988884201D1002010BD0C490988A3
:1006000001EB81010B4A02EB810014222146FEF727
:1006100013FF07480088401C4FF4487190FBF1F22B
:1006200001FB1200024908800120E6E75E2D002050
:100630005C2D0020F835002010B5044600F0D8F8F5
:1006400010BD000070B504460D4600BF5A48FFF7C4
:100650000DFD5948C07800F0010018B1012057493C
:10066000087002E000205549087054480078544949
:10067000097888425DD051480078514908704F4848
:10068000007801281CD14F49087000204E4908709D
:1006900014214E48FEF7F7FE4FF0FF304B494A4A0F
:1006A000127821F8220001464848474A127800EBA8
:1006B0008200418044480078401C4349087038E07B
:1006C00000204049087040480078042817D140486D
:1006D0000068401C3E4908603C4800F03DF900209D
:1006E0003949087014213948FEF7CDFE38480068B2
:1006F000401C37490860354800F02EF919E0002108
:100700003248314A127820F8221000202F492E4A10
:10071000127801EB820148802B480078401C2A495E
:1007200008702B480068401C29490860274800F0E1
:1007300013F92448007801282ED11F48C08843F6B9
:10074000D011081A01B221481F4A127800EB82002A
:1007500041801948808845F26041081A00B21B495F
:10076000194A127821F8220017480078401C1649CF
:1007700008700846007805280ED115480068401C0E
:1007800013490860114800F0E7F800200E4908708E
:1007900014210E48FEF777FE1E2000BF4FF0A04246
:1007A000114600BFD1F81025C24002F00102002A14
:1007B0003FF44CAF70BD0000782F00204D2C00207E
:1007C0004E2C00204F2C0020502C0020AA2F00205F
:1007D000542C002010B5FFF783FC00211D2005F0EC
:1007E00021F900211E2005F01DF910BD7047000001
:1007F000FEB531480078012800D1FEBD0625002055
:1008000000900346012211460190284605F0C2FBE4
:1008100000BF062000BF4FF0A0410A46012303FAA3
:1008200000F1C2F80C1500BF00BF64254FF47A71C7
:1008300015FB01F004F03AFF00BF0020029002A96E
:1008400005F074FA044600BF254625B100BF2846CE
:1008500000F008FD00BF00BFBDF808004FF416719E
:1008600010FB01F0FF2190FBF1F0C00013498860FC
:10087000098988B200F025F81049C87006250026BD
:10088000002000903346024601460190284605F0BC
:1008900081FB00BF0948806840F6B831884201D228
:1008A000FEF73CFF054800790449C978884201D029
:1008B000FFF714FD00BFA0E74F2C0020682F002099
:1008C00070470146B1F57A6F01DB6420704740F64E
:1008D000746081420CDDC1F57A6000EB8000C000DD
:1008E0004FF4967290FBF2F0C0F16400C0B2EDE7F5
:1008F000B1F5616F0CDD40F67460401A00EB8000CA
:10090000C000642290FBF2F0C0F12A00C0B2DDE723
:1009100040F6E44081420CDDC1F56160C0EBC000EF
:1009200040004FF4967290FBF2F0C0F11200C0B29A
:10093000CCE740F61C4081420CDD40F6E440401A12
:1009400000EB40004000C82290FBF2F0C0F106002E
:10095000C0B2BBE70020B9E710B504462046FFF758
:100960003BFEFFF7E5FD10BD0FB4084B10B504A921
:1009700002AA039800F03EF8044602A9002000F005
:100980006AFA204610BC5DF814FB0000570E020006
:1009900002E008C8121F08C1002AFAD17047704748
:1009A000002001E001C1121F002AFBD170470000A6
:1009B0000146202908DA012088400A4A104008B17F
:1009C000012070470020FCE7402909DAA1F120004E
:1009D000012202FA00F008B10120F2E70020F0E75E
:1009E0000120EEE7FC06FFBC00BFEFF310810846D4
:1009F00072B670472DE9FF4F8DB00F4605460026B1
:100A000006E025280BD0DDE90F1290476D1C761CFF
:100A100028780028F5D111B03046BDE8F08F0024C9
:100A2000A246A1460122EC4900E0044315F8013F2B
:100A3000203B02FA03F00842F7D128782A2810D088
:100A40006FF02F022878A0F13001092914D80AEBA1
:100A50008A0102EB410144F0020400EB010A6D1C23
:100A6000F0E701CF5FEA000A03D544F40054CAF16D
:100A7000000A44F002046D1C28782E2817D115F8BE
:100A8000010F44F004042A280ED06FF02F022878BA
:100A9000A0F1300109290AD809EB890102EB4101D3
:100AA00000EB01096D1CF2E757F8049B6D1C2878D8
:100AB0006C280FD006DC4C2817D068280DD06A2887
:100AC00014D104E0742810D07A280FD10DE044F43A
:100AD00000140AE044F4801401E044F440146978FE
:100AE000814202D104F580146D1C6D1C2A786E2A97
:100AF0001FD00CDC632A31D004DC002A8BD0582AAA
:100B000011D1A3E0642A68D0692A0CD165E0732A68
:100B10002ED004DC6F2A73D0702A04D19BE0752A92
:100B20006FD0782A6ED01046DDE90F129047761C00
:100B300050E1C4F30250022806D0032809D004284B
:100B400001CF09D0066045E101CFF117C0E900618E
:100B500040E101CF06803DE106703BE117F8040B50
:100B60008DF8000000208DF80100EB46012003E025
:100B700057F804BB4FF0FF3061074FF0000102D47B
:100B80000DE008F10101884649450FDA8045F8DBA0
:100B90001BF808100029F4D108E008F1010188468B
:100BA0008142FADB1BF808100029F6D1DDE90F239A
:100BB000AAEB08008146214600F036F9304400EBEC
:100BC000080604E0DDE90F121BF8010B9047B8F1AD
:100BD0000108F7D221464846F7E00A21C4F3025340
:100BE0004FF0000B0891022B04D001CFC117032B4B
:100BF00009D00AE0FF1D27F00707F7E8020108E027
:100C000032E01FE020E000B2C117042B01D140B256
:100C1000C117031E71F1000307DA4FF0000CD0EB8F
:100C20000C006CEB01012D2302E0230504D52B23DE
:100C30008DF82430012303E0E30701D02023F7E7F8
:100C4000984658E00A2110E010210EE010204FF0E5
:100C5000000B08900CE010214FF0000B44F004044E
:100C60004FF00809089103E008214FF0000B0891AC
:100C7000C4F30253022B04D001CF0021032B06D072
:100C800006E0FF1D27F00707F7E8020103E080B246
:100C9000042B00D1C0B24FF0000823072BD5702AD7
:100CA00007D0DDF820C08CF0100C5CEA0B0C05D0EE
:100CB0000EE040238DF82430012308E050EA0103C0
:100CC00006D030238DF824308DF825200223984655
:100CD000DDF820C08CF0080C5CEA0B0C0BD150EA5C
:100CE000010301D1630706D530238DF824304FF07E
:100CF0000108A9F10109582A04D038A20B9208AAC8
:100D00000A920BE03AA2F9E75B46089AFEF7DAFB93
:100D10000B9B9B5C0A9A521E0A92137050EA0102C6
:100D2000F2D10A98ADEB000000F1200B600702D56C
:100D300024F4803401E04FF00109D94502DDA9EB2C
:100D40000B0000E0002000EB0B0141440890AAEBEF
:100D5000010AE00306D4DDE90F232146504600F0E6
:100D600063F806444FF0000908E009A911F80900EA
:100D7000DDE90F12904709F10109761CC145F4DB4A
:100D8000E0030CD5DDE90F232146504600F04CF876
:100D9000064404E0DDE90F1230209047761C0899E4
:100DA000481E08900029F5DC08E00A980A990078A6
:100DB000491C0A91DDE90F129047761CBBF1000136
:100DC000ABF1010BF1DC21465046DDE90F2300F0C9
:100DD00019F806446D1C1BE6092801003031323336
:100DE0003435363738396162636465660000000067
:100DF0003031323334353637383941424344454651
:100E0000000000002DE9F041044600251E4617466B
:100E1000880404D405E039462020B0476D1C641EC8
:100E2000F9D52846BDE8F0812DE9F04104460025BA
:100E30001E469046C80301D5302700E020278804CD
:100E400004D505E041463846B0476D1C641EF9D50F
:100E50002846BDE8F0810A68531C0B60107070478B
:100E600070B505460C4605B10CB9002070BD287858
:100E700040082178B0EB510F01D00020F6E70622A0
:100E8000611C681CFEF711FB08B90120EEE7002089
:100E9000ECE70246002104E0505C08B101207047F5
:100EA000491C0629F8D30020F9E7000010B50446D4
:100EB0006CB108480068A04209D806484068A042C2
:100EC00005D3204603F088FE08B1012010BD0020A4
:100ED000FCE70000C02D00202DE9FC4104468846B7
:100EE0001646002537880020308094F82D0058B130
:100EF0003A463146404601F001F8054600BF15B1BB
:100F00002846BDE8FC8100BFA07850B13A46314682
:100F1000404600F085FA054600BF0DB12846F0E7CF
:100F200000BFE07860B1E17848B23B4632464146C6
:100F300002F096FC054600BF0DB12846E1E700BF70
:100F4000606868B1616891F900003B4632464146ED
:100F500009F04CF9054600BF0DB12846D1E700BFA6
:100F6000208900280EDD43460622022104F10800F4
:100F7000CDE9006709F03EFB054600BF0DB12846EC
:100F8000BFE700BF208A00280EDD43460722032169
:100F900004F11000CDE9006709F02CFB054600BF05
:100FA0000DB12846ADE700BF208B00280EDD43467B
:100FB0001522142104F11800CDE9006709F01AFB8D
:100FC000054600BF0DB128469BE700BF206A58B117
:100FD0003B4632464146206A01F023FE054600BFEB
:100FE0000DB128468DE700BF606A58B13B463246D6
:100FF0004146606A04F079F9054600BF0DB1284604
:101000007FE700BF94F82C0000280BDD3B463246FA
:101010004146204608F05EF8054600BF0DB128465F
:101020006FE700BF207858B13B4632464146204624
:1010300004F096F9054600BF0DB1284661E700BFF0
:1010400028465EE770B504461448FFF722FF0546C0
:10105000012C06D0022C0BD0032C10D0042C1AD15A
:1010600013E00F48407810B10DB1012070BD00BFF2
:101070000B48807810B10DB10220F7E700BF084897
:10108000C07808B10320F1E700BF0548007908B136
:101090000420EBE700BF0020E8E700007D2C0020E3
:1010A000903000200146481C052290FBF2F302FB21
:1010B0001300C0B270470146C87800F0040008B9B8
:1010C000072070470020FCE710B501220221002014
:1010D00001F0DCF9044600BF1CB1072C01D020460A
:1010E00010BD00BF07220221012001F0CFF9044604
:1010F00000BF1CB1072C01D02046F1E700BF0A2237
:101100000021084601F0C2F9044600BF1CB1072CBB
:1011100001D02046E4E700BF0020E1E730B599B0F8
:101120001F48007D8DF806000020ADF804003C212A
:101130000AA8FEF7A8F902208DF8280000208DF8F3
:101140002A0006208DF82B000120ADF8300001A9FF
:101150000D91202102A8FEF796F901208DF80B00D1
:101160004FF4967006900F48007810B91E20079033
:1011700001E00020079000200B4B02AA01460090DE
:101180000AA800F04DFB044600BF254625B100BF6C
:10119000284600F067F800BF00BF19B030BD00005E
:1011A000E03500204A2C00206163020070B5032066
:1011B00000F030FC044600BF254625B100BF28469C
:1011C00000F050F800BF00BF70BD70B58CB0044691
:1011D0000D461646002005E0C0F10F01615C0DF8D8
:1011E0000010401C1028F7D30D2104A8FEF74BF97E
:1011F000002005E02A5CC0F10F0304A9CA54401C7A
:101200000328F7D3684643DF002005E0C0F10F0252
:1012100008A9895C3154401C0328F7D30CB070BD79
:1012200000BF00BF00BF00BF00BFBFF34F8F00BFB4
:1012300000BF00BF0948006800F4E06008490843A7
:10124000001D0649086000BF00BF00BFBFF34F8FFD
:1012500000BF00BF00BF00BF00BFFDE70CED00E016
:101260000000FA053EB5044600200090019002906F
:1012700002946A46002144F20100FFF7D1FF3EBD0F
:1012800010B503460C4600BF0B48406808B908205B
:1012900010BD00BF0AB90720FAE70BB90720F7E72E
:1012A0001868007C08B10820F2E71968002008746B
:1012B0004C744A6100BFEBE7642D00202DE9F0413A
:1012C00007460D4614461E46204600F0030109B9A4
:1012D000012100E0002111B90720BDE8F0810CB91F
:1012E0000720FAE707F03CFB11480660002011498F
:1012F0000870487008468570446000200E490860F8
:101300000E4908700E4908701420FEF773FB072180
:101310001420FEF7A9FB1420FEF784FB384607F0E3
:10132000F5FA07F0EDFA074908600020D5E700005C
:10133000802D0020642D00206C2D00207C2D0020AD
:101340007D2D0020702D00202DE9F04104460E4631
:101350001746254600BF1048406810B90820BDE870
:10136000F08100BF0CB90820F9E7052E01D2072053
:10137000F5E7686908B90820F1E7687C012801D120
:10138000304600E0002080463B4642463146284633
:1013900008F08CFCE3E70000642D002070B50446E3
:1013A000254600BF0848406808B9082070BD00BF46
:1013B0000CB1686908B90820F8E7002028740221F8
:1013C000284608F0A2FCF1E7642D002010B5044681
:1013D000204607F065FB10BD70B5044625460E4853
:1013E0008068B0B1ADB9FFF7FFFA06460A48006859
:1013F0000A490860084840684FF0E021C1F804013C
:101400000020054988601EB900BF62B600BF00BF5A
:1014100000BF00BF70BD00007075002000E100E05B
:10142000F8B505460C4617462088001DB84201D97C
:101430000C20F8BD684679DF064600BF0EB1304685
:10144000F7E700BF0320218868542088401C2080D3
:101450001920218868542088401C20802088411948
:10146000BDF8000009F00AF8218808442080002017
:10147000DFE7000030B58BB01348007800F00CFDBA
:101480000546284607F040FBD8B101A800F064FCEF
:10149000142201A906A8FDF7CFFF00240DE007A93B
:1014A00031F814000849097800F004FD20B107A9BB
:1014B00031F8140003F02AFE641C0698A042EED80E
:1014C00000BF0BB030BD0000B62C002010B50446A4
:1014D000637903F003022179208803F0E7FC10BD53
:1014E00010B50446207918B9204600F007F803E04B
:1014F0002046FFF7EBFF00BF00BF10BD2DE9F04114
:1015000088B004460025208800F098FC0746208813
:1015100003F00AF90646A0680790607A06902088D2
:1015200000222349097800F0D7FC17B908B0BDE8BC
:10153000F0816079C0F3800090B10721304605F05A
:10154000E7FD0546BDB108208DF800002088ADF804
:101550000200ADF804600295684601F09FFE0AE0C3
:1015600020881449097800F0A5FC20B1304603F02A
:10157000C5F8804600BF03208DF80C002088ADF828
:101580000E006079C0F380008DF81000A079C0F3E0
:1015900080018DF811109DF81C108DF812109DF827
:1015A00018108DF8131003A801F078FE00BFBDE7F6
:1015B000F62C0020F82C0020F0B591B004460D4622
:1015C000207DD8B10020099000BF9DF8240020F0B4
:1015D0000F00401C8DF824009DF8240020F0F0003E
:1015E00010308DF8240000BF687B8DF825009DF831
:1015F000260020F00600801C8DF826001C210AA879
:10160000FDF741FF9DF8280020F00200801C8DF8B6
:101610002800207D08B1012000E000209DF828105E
:1016200060F304118DF8281000200B900D900E909F
:10163000207D08B109A800E000200F900020109044
:1016400000BF01208DF80E0042F61920ADF80C0005
:1016500000BF00200290A87B8DF80800E87B8DF881
:1016600009009DF80A0020F00600801C8DF80A0091
:101670009DF80A0020F008008DF80A009DF80A0085
:1016800020F010008DF80A009DF80A0020F00100FB
:101690008DF80A00287B0190142104A8FDF7F3FEC1
:1016A00003A8049002A805900120ADF818000020BE
:1016B000ADF81A000120ADF81C0001A80890A08820
:1016C000A31D04AA0AA9A2DF064616B1304611B02E
:1016D000F0BDA868002855D000BF01208DF80E008D
:1016E00042F60810ADF80C0000BF00200290287CE4
:1016F0008DF8080000BF9DF8090020F00F008DF85C
:1017000009009DF8090020F0F0008DF8090000BFE5
:101710009DF80A0020F00600801C8DF80A009DF854
:101720000A0020F008008DF80A009DF80A0020F059
:1017300010008DF80A009DF80A0020F001008DF8D5
:101740000A006846A96800F017FD0746142104A89E
:10175000FDF799FE03A8049002A80590ADF8187053
:101760000020ADF81A00BDF81800ADF81C00CDF847
:1017700020D0E08804F10E0204A9A3DF06461EB1C2
:101780003046A4E70020E0810020A0E72DE9F041E9
:1017900092B080460D461F2011901090B8F1000FB6
:1017A00017D04046FFF787FC044600BF1CB1204617
:1017B00012B0BDE8F08100BF11AA08A94046FFF7AA
:1017C0008BFB044600BF0CB12046F1E700BF08AE1A
:1017D00002E0002600201190ADB1284608F026F95D
:1017E000044600BF0CB12046E2E700BF10AA6946DC
:1017F0002846FFF771FB044600BF0CB12046D7E72F
:1018000000BF6F4602E0002700201090BDF84000A6
:10181000C3B2BDF84400C1B23A46304672DFC7E7F2
:101820002DE9F04704460F4615461E46DDF8208098
:1018300004B115B90E20BDE8F087012048490870B1
:10184000002048490870202229464748FDF7F4FD4A
:10185000464806604648C0F800804FF6FF7045498C
:101860000880454800210160818081713C21434806
:10187000FDF709FE207841490870A0788870E0786B
:10188000C87060784870D4E90402C1E904020846CF
:10189000D4E90212C0E90212D4E90612C0E9061224
:1018A000606AD8B136483549486236498160606A15
:1018B00000883249496A0880606A80882F49496AED
:1018C0008880002005E0616A8968095C2D4A11540E
:1018D000401C2A49496A89888142F4D8A06A20B309
:1018E00029492A4881602549886227492348806A16
:1018F0008160A06A80882149896A8880A06A0088FE
:101900001E49896A0880002005E0A16A8968095C8F
:101910001D4A1154401C1949896A89888142F4D8AA
:1019200094F82C00154981F82C00206A58B1184809
:1019300012490862206A4088096A4880206A008843
:101940000E49096A0880606810B10C4960684860F7
:1019500039460A48FFF71AFF814648466BE7000000
:10196000782C00207B2C0020903000208C2C002034
:10197000902C0020882C00207C2C0020B0300020EF
:10198000EC300020F83000202431002018310020F5
:10199000842C002010B504462088102804D011287B
:1019A00006D01B280CD107E0204604F0CBFD08E050
:1019B000204604F02BFE04E0204604F025FF00E062
:1019C00000BF00BF10BD000070B50546022D02D05B
:1019D000032D15D100E000BF0B48007878B100203E
:1019E000094908700948007800F014F8044634B139
:1019F0000748006818B1204605490968884700E093
:101A000000BF00BF70BD0000792C00207B2C00209F
:101A1000902C00207FB505464D48007810B908206D
:101A200004B070BD4B48057001F084FF20B1012067
:101A3000494908700020F3E748480021016081808F
:101A400081714748407818B14248007801280DD08C
:101A50004348807818B13F480078012806D04048B4
:101A6000807888B13B48007802280DD13D48006855
:101A700038B101203C49087008203A490968884774
:101A800002E00020384908702846FFF7DBFA3149A8
:101A9000087034480068C0B108460078032803D0B5
:101AA00008460078042810D12D48007868B12F48E6
:101AB000007850B900202E49087001202D49087087
:101AC000072028490968884702E000202949087052
:101AD000002000900190029003908DF800008DF896
:101AE00008001C48007805281CD2DFE800F0170326
:101AF000080D1200684607F013FC044613E0684620
:101B000007F01EFC04460EE0684607F02FFC044672
:101B100009E0684607F05AFC044604E00020164934
:101B2000087000E000BF00BF0A48007828B168468E
:101B300073DF04460CB1204672E70A48006820B102
:101B40000D480078074909688847002068E70000C9
:101B5000782C00207B2C0020792C00207C2C00206D
:101B6000903000208C2C0020832C0020942C00200E
:101B7000962C0020952C00207A2C002033B587B0BD
:101B8000044614B90E2009B030BD0025207C9DF814
:101B9000201088423CD00020059006900120ADF82E
:101BA00014000020ADF8160008A80690E188608AAD
:101BB00005AAA4DF05461DB99DF82000207401E0A8
:101BC0002846E0E7608A4FF6FF7188421FD0207DEB
:101BD000E8B100200190029003900490E088ADF8F5
:101BE000040001208DF80600BDF81600ADF80800CD
:101BF00005A8039006980490608A01A9A6DF05460F
:101C000025B90448407D401E0249487500E008257A
:101C10002846B8E7E0350020F8B504460D4604B183
:101C20000DB90E20F8BD286820604FF6FF70608265
:101C300028792075FF20207400BF01208DF8020054
:101C400041F60F00ADF8000000BF221D69460120DB
:101C5000A0DF06460EB13046E4E729462046FFF7EE
:101C6000ABFCDFE770B505460C4605B104B970BDA5
:101C70002088102804D0112807D050280FD109E05F
:101C80002146284604F05AFC0AE02146284604F082
:101C9000B9FC05E02146284604F0F8FD00E000BF4D
:101CA00000BF00BFE3E7000070B505461C222946CF
:101CB0001248FDF7C1FB002011490870286850B197
:101CC000104829680A680260496841607ADF044662
:101CD0003CB1204670BD0B487BDF04460CB120466A
:101CE000F8E74FF6FF7008490880002007490870A0
:101CF000074A00210748FFF7C3FAEBE74431002009
:101D0000AC2C0020982C0020A22C0020A02C00201D
:101D1000EDA4020008AB020010B50446208810288C
:101D200006D0112808D012280ED0502810D107E074
:101D3000204604F0E7FB0CE0204604F043FC08E0FA
:101D4000204604F07DFD04E0204604F0CFFB00E0D7
:101D500000BF00BF10BD000010B504460348027D5F
:101D6000011D204606F049FF10BD00008031002013
:101D700010B504460348C17D2246001D06F026FF2B
:101D800010BD00008031002010B504460348017EDC
:101D90002246001D06F01AFF10BD00008031002011
:101DA00070B504462088102804D011281DD01A28A8
:101DB00040D11EE006F03EFDA08806F0B5FB20B93C
:101DC00000BF0420FFF74EFA0EE0E07B022801D1AD
:101DD000012000E000200546A2882B461649A1F10B
:101DE000120006F02BFF00BF24E0A08806F044FD9F
:101DF00020E0207A0121B1EB101F01DA012000E080
:101E000000200346A2880C49491CA1F1130006F0EA
:101E100015FF207A0221B1EB101F01DA012000E04A
:101E200000200346A2880449891CA1F1140006F091
:101E300005FF00BF00BF70BD9631002070B504469D
:101E400000250B48017D2246001D06F0BFFE60B153
:101E50000748817D2246001D06F0B8FE06460EB1F9
:101E6000022000E00120054600BF284670BD0000AA
:101E70008031002010B500240AE0204608F088FBDD
:101E800020B9204608F07AFB204610BD601CC4B281
:101E9000182CF2DB1820F8E710B50446204608F0AD
:101EA00077FB10B10248005D10BD0020FCE7000088
:101EB0009931002070B505460C46204608F068FBB5
:101EC00030B10448015D2A46153806F07FFE70BD2A
:101ED0000020FCE79931002070B505460C461646F7
:101EE000204608F055FB30B10348011933462A4615
:101EF000153806F0A3FE70BD993100202DE9FC4194
:101F000005460C46174620880930B84202D90C20F5
:101F1000BDE8FC8168466DDF064600BF0EB1304665
:101F2000F6E700BF0820218868542088401C2080E4
:101F30001B20218868542088401C20802088284449
:101F4000DDF801100160BDF8051081802088801D3A
:101F500020809DF80000400818B9002021886854AE
:101F600002E00120218868542088401C2080002045
:101F7000CEE700007FB5044600BF01208DF80E00BB
:101F800041F60A00ADF80C0000BF564A03A9012033
:101F9000A0DF054615B1284604B070BD2088002892
:101FA0000DDD51480090228804F13C0342F62920BF
:101FB000616800F0A7FC05460DB12846ECE72089D2
:101FC00000280DDD49480090228904F13C0342F6C7
:101FD0002420E16800F096FC05460DB12846DBE7B9
:101FE000208A00280DDD42480090228A04F13C033B
:101FF00042F62520616900F085FC05460DB12846B2
:10200000CAE7208B00280DDD3A480090228B04F1AE
:102010003C0342F62720E16900F074FC05460DB14F
:102020002846B9E7208C00280DDD33480090228C2B
:1020300004F13C0342F62620616A00F063FC054689
:102040000DB12846A8E7208D00280DDD2B48009013
:10205000228D04F13C0342F62820E16A00F052FC94
:1020600005460DB1284697E7206B90B101A8216B7A
:1020700007F005FD224804F13C03082201A9009065
:1020800042F6232000F03EFC05460DB1284683E7CA
:1020900000BF606B70B11B480090606B027904F167
:1020A0003C03016842F62A2000F02CFC05460DB1E5
:1020B000284671E7A06B90B101A8A16B06F0C4F8A7
:1020C000114804F13C03072201A9009042F6502078
:1020D00000F018FC05460DB128465DE700BF002062
:1020E0005AE70000102D0020122D00201A2D00208C
:1020F000222D00202A2D0020322D00203A2D0020F4
:10210000422D00204A2D0020522D002010B50446FB
:102110002046FFF745FE204605F05AFE21460B48B3
:10212000FFF7A0FD2046FEF703F92046FFF7F4FD78
:10213000204600F007F9204604F030F92046FFF76A
:1021400029FC2146024803F0F0F910BDD02D0020F3
:10215000E82D002070B504460D462846FDF79EF98F
:102160002080656070BD70B50446204608F080F997
:10217000054605F0010070BD2DE9F04105460E460B
:10218000002432782146641C6A5472782146641C0B
:102190006A5400BF022C01D1012000E00020074654
:1021A00027B900BF0020FFF75DF800BF00BF204641
:1021B000BDE8F08170B588B029480068079000BF7D
:1021C0000023D822274907A807F0D0FB054600BF07
:1021D0002E4626B100BF3046FFF744F800BF00BFCF
:1021E00000BF6A460121002007F0A0FB044600BFA3
:1021F000254625B100BF2846FFF734F800BF00BFD1
:102200009E20ADF810000220ADF80000684607F0EF
:1022100067FB044600BF254625B100BF2846FFF7EF
:1022200021F800BF00BF104807F04EFB044600BF76
:10223000254625B100BF2846FFF714F800BF00BFB0
:102240000A4807F0E7FB044600BF254625B100BF5A
:102250002846FFF707F800BF00BF08B070BD0000B8
:10226000A8AA0200902E00200D2102006D9A020003
:1022700010B502460949885C00BF4FF0A0442146D2
:10228000D1F80435012484409C43C1F80845012459
:1022900084401C40C1F80C4500BF10BDD4AA020008
:1022A00010B504460249085D012103F01CFF10BD72
:1022B000D4AA020010B504460249085D002103F0CB
:1022C00012FF10BDD4AA020010B50146094B585C9C
:1022D00000BF4FF0A044234600BFD3F80445C440DC
:1022E00004F001040CB1012000E00020024682F05D
:1022F000010010BDD4AA020010B5002403E020465E
:10230000FFF7CEFF641C042CF9D310BD10B50024D8
:1023100003E02046FFF7CEFF641C042CF9D310BD68
:1023200002464FF0FF30002106E0054B5B5C934214
:1023300001D1084602E0491C0429F6D300BF7047CA
:10234000D8AA020070B505462888102802D01128A6
:102350002CD115E01748006860B900F03FFD044635
:1023600000BF34B11448006818B12046124909680A
:10237000884700BF0F480068401C0E49086016E0FF
:102380000C480068401E0B4908600846006860B9A8
:10239000FEF79AFE044600BF34B10748006818B142
:1023A000204605490968884700BF00E000BF00BF1C
:1023B00070BD0000742C0020702C00202DE9F0412D
:1023C00006460F464FF0000800243046FFF7A8FFEE
:1023D0000446042C41D227B3012F02D0022F3BD157
:1023E00033E004EB4400234911F8008004EB44007F
:1023F0000844407868B12048006800EB8000410044
:102400001E4A1F480068FEF79FFF05460DB91B488E
:10241000067004EB440017490844807819490855B0
:102420001AE017480068FEF7B9FF1648005D04EB94
:102430004401104A11448978884205D104EB4400D4
:102440001146084490F8028006E004EB4400094974
:10245000084490F8018000BF00BFB8F1000F06D01B
:102460000948006818B14046074909688847BDE82F
:10247000F0810000643000205C2C0020682C0020DB
:10248000E4AA0200692C0020642C002030B5034629
:102490000020042B23D2012A07D1012903D103F103
:1024A0000E04E4B200E00024224679B1012902D0F2
:1024B000022911D104E003EB43040A4D2A550DE033
:1024C00003EB4304074D2C44627007E003EB430425
:1024D000044D2C44A27001E0072000BF00E007205B
:1024E00030BD00006430002070B50446002505486A
:1024F000007800F0010018B1204600F005F805460C
:10250000284670BD602C00202DE9F04104460026CD
:102510000025C048007820B10020BE490870FFF7B0
:10252000EBFE182C75D2DFE804F00C11123D689513
:10253000BFCDD3F0EEEDECEBEAE9E8E7E6E5E4E366
:10254000E2E1FFF7D9FEB44804705FE100BF00206C
:10255000FFF7BAFE58B10020FFF7A2FE022C02D10D
:102560004FF4E16001E04FF47A60054609E0002095
:10257000FFF7A0FE022C01D1C82001E04FF4C87083
:102580000546A54804706420B5FBF0F0A34909682E
:1025900000FB01F700223946A1480068FEF7D4FE8F
:1025A000064633E10020FFF78FFE58B10020FFF709
:1025B00077FE032C02D14FF4487001E04FF47A60AB
:1025C000054609E00020FFF775FE032C01D1C82065
:1025D00001E04FF4C87005468F4804706420B5FBD5
:1025E000F0F08E49096800FB01F7002239468C485B
:1025F0000068FEF7A9FE064608E10020FFF764FE2A
:1026000060B10020FFF74CFE042C03D14FF47A6038
:1026100002E0FAE04FF47A6005460AE00020FFF796
:1026200049FE042C02D14FF4C87001E04FF4C87089
:102630000546794804706420B5FBF0F077490968D5
:1026400000FB01F70022394675480068FEF77CFE62
:102650000646DBE00020FFF737FE50B10020FFF711
:102660001FFE052C01D1C82001E04FF47A60054619
:1026700009E00020FFF71EFE052C01D1C82001E073
:102680004FF4C8700546644804706420B5FBF0F050
:102690006249096800FB01F700223946604800687A
:1026A000FEF752FE0646B1E00020FFF7E1FD5A4872
:1026B00004705A480022016859480068FEF744FE39
:1026C0000646A3E00020FFF7F5FD534804709DE0A7
:1026D000012050490870FFF7CBFD504800220168E7
:1026E0004F480068FEF730FE06468FE088E086E03F
:1026F0007AE071E068E062E03EE03CE03AE038E039
:1027000036E030E01FE010E0FFE7012041490870AB
:10271000FFF7AEFD4148006800EB80010022404811
:102720000068FEF711FE064670E001203949087086
:10273000FFF79EFD39480022016839480068FEF71E
:1027400003FE064662E0012032490870FFF790FD63
:102750003248006800EB8001002231480068FEF733
:10276000F3FD064652E0FFF7D1FD2B4804704DE023
:1027700000BF00BF00BF00BF2A480068FEF70EFE82
:102780000646C4F11105B5B1AEB9012D0FD9C82067
:1027900068436421B0FBF1F02049096800FB01F7B0
:1027A000002239461F480068FEF7CEFD064602208B
:1027B000FFF780FD02E00220FFF772FD26E0FFF741
:1027C0009BFD1548047021E0FFF796FD0020FFF700
:1027D00071FD1148047019E0FFF78EFD0120FFF72D
:1027E00069FD0D48047011E0FFF786FD0020FFF73A
:1027F00061FD0120FFF75EFD0748047006E000BFA1
:10280000FFF784FD0448047000E000BF00BF3046BD
:10281000BDE8F081592C0020582C00205C2C0020B1
:10282000DCAA0200E0AA020001468879012809D149
:102830000879012806D1488842F60212904201D157
:10284000012070470020FCE74FF0FF31054A42F8B5
:102850002010082804DBFF23A0F108015032535454
:1028600070470000A07400200146024850F8210083
:1028700070470000A07400202DE9F04F03460C467D
:102880004FF0FF390AB1002000E0082084460AB169
:10289000082000E00C208046614624E0154850F8EE
:1028A0002100401CF0B91D460846274616464FFA3F
:1028B00080FBDFF840A00AF1300A0AF805B0DFF823
:1028C00034A04AF820704EB94FFA85FBA0F1080AEF
:1028D000DFF820E00EF1500E0EF80AB000BF4FFAFC
:1028E00081F902E0491C4145D8D300BF4846BDE804
:1028F000F08F0000A0740020014601484056704748
:10290000D07400202DE9F0438FB007460D461446E1
:102910001E46DDF8588000BF0DB1012000E0002008
:102920008146B9F1000F04D100BF0020FEF79AFCE8
:1029300000BF00BF00BF002C01DD012000E000202F
:102940008146B9F1000F04D100BF0020FEF78AFCD8
:1029500000BF00BF1C2107A8FCF795FD9DF81C00D7
:1029600020F00200801C8DF81C00002008900A90C6
:102970000B900C900D9000BF01208DF83A00ADF83F
:10298000387000BF0020019030788DF80400707816
:102990008DF805009DF8060020F00600801C8DF8DB
:1029A00006009DF8060020F008008DF806009DF84E
:1029B000060020F010008DF806009DF8060020F0BB
:1029C00001008DF80600142102A8FCF75CFD0EA89A
:1029D000029001A80390ADF810400020ADF812005D
:1029E000ADF814400695434602AA07A9024800889C
:1029F000A2DF0FB0BDE8F083102D0020014639B1F1
:102A00000448884204D80448884201D9012070470C
:102A10000020FCE7C02D0020D02D002070B5054619
:102A20000E46002407E055F8340002F0D5F808B946
:102A3000002070BD641CB442F5D30120F9E700000A
:102A40000A49496C81B10949096C084A02EBC10184
:102A50000160114691F84010491C01F00701116412
:102A60001146496C491E51647047000014760020DD
:102A7000064902688A4203D0016808310160704744
:102A800002493839016000BFF9E700004C760020A8
:102A90000178022902D0017803290BD106490A6C7A
:102AA000817D1144044A116411464A6C817D511A9A
:102AB000014A516470470000147600202DE9F0416E
:102AC00004460D464FF6FF76304684420AD14FF455
:102AD0008071284605F036F90646B6F5807F0FD19D
:102AE00026460DE0FF2C0BDC2146284605F01AF99E
:102AF00007460FB1204601E04FF6FF70064600BFC3
:102B00003046BDE8F081000070B505460DB9094CAE
:102B100001E0084C083409E0204602F065F806465A
:102B200006B904E028467168884700BFF4E700BF93
:102B300070BD0000947400202DE9F04782461F48C4
:102B40000068002836D01D480068056805F0D8FEEA
:102B500007461B4804682146384606F0D6FFC61CC7
:102B60001848007808B905F0DDFEAE4201D22846CB
:102B700000E03046044424F07F44204605F0BAFECD
:102B800005F0BEFE80463946404606F0BEFF00F125
:102B900003093946204606F0B8FF814509D905F0FA
:102BA000AFFE814605F0A6FE2F2002F063FE07F07F
:102BB00019F901E005F0D4FEBDE8F0876C2D002086
:102BC000702D0020842D002001460888062808DB8F
:102BD0000888B0F5486F06DD08884FF6FF7290420E
:102BE00001D0072070474888062808DB4888B0F5E0
:102BF000486F06DD48884FF6FF72904201D00720EB
:102C0000F0E708884FF6FF72904208D0488890425B
:102C100005D008884A88904201DD0720E2E70020BD
:102C2000E0E72DE9F04106460D4614469846208817
:102C3000801D404502D90C20BDE8F0813046FFF7E9
:102C4000C3FF074600BF0FB13846F5E700BF0520B8
:102C5000218868542088401C2080122021886854D4
:102C60002088401C208022885119308807F006FCFB
:102C700021880844208022885119708807F0FEFBC3
:102C80002188084420800020D6E710B5044600BF04
:102C90002046FEF7E7FA00BF10BD000030B587B050
:102CA0001C216846FCF7EFFB002000904FF4203019
:102CB00001904FF47020029003208DF80C000D4815
:102CC0000089ADF80E0000208DF810000A4805902C
:102CD0000A4806906846FEF7E7FF044600BF25460F
:102CE00025B100BF2846FEF7BDFA00BF00BF07B000
:102CF00030BD0000E0350020C16402008B2C0200D2
:102D000038B51B4801F04AFF20BB1A48007848B18B
:102D100019484069E8B100200090174841696846A9
:102D2000884716E01548007810B91348456801E057
:102D3000114885680022294611480068FEF704FB07
:102D4000044634B10C48806918B10B4881692046AB
:102D5000884709E00848406930B1012000900648E2
:102D600041696846884700BF00200249087038BDA5
:102D7000A42C0020AC2C002044310020A02C0020EA
:102D800008AB02003EB504462088FEF7F1FFD0B143
:102D9000208810490978FFF78DF828B9208800228B
:102DA0000D490978FFF798F82088ADF80200052052
:102DB0008DF800002088FEF7E7FF8DF804006846D4
:102DC00000F06CFA05E02088012241F2060100F0D3
:102DD00097F83EBDF72C0020F62C002010B50122FC
:102DE00000210846FFF752FB044600BF1CB1072C28
:102DF00001D0204610BD00BF072202210120FFF7AD
:102E000045FB044600BF1CB1072C01D02046F1E76A
:102E100000BF042202210020FFF738FB044600BF58
:102E20001CB1072C01D02046E4E700BF0020E1E7F9
:102E300070B506460D460EB1012070BD287920B14F
:102E4000012809D0022813D10FE0284605F0D6FB4F
:102E50000446022028710DE0284600F0A1FC04463B
:102E60000A2C01D141F61D5404E041F61D5401E045
:102E70000F2400BF00BF2046DFE770B5044620796D
:102E80003D2802D141F23D0001E04FF48850054653
:102E900020880022294602F009F870BD0146144836
:102EA0000078144A127890421DD011480078401CD6
:102EB0000F4A107010460078022801D100201070CF
:102EC0000D480B4A127850F8220008600B4A086837
:102ED00012681044094A10601046006820F07F40D4
:102EE0001060012070470020086000BFFAE7000072
:102EF0007C2D00207D2D0020742D0020702D0020C1
:102F0000FEB504460D461646094A07CA8DE8070075
:102F1000ADF80240ADF804508DF806600022054877
:102F200001782046FEF7D8FF684600F0B7F9FEBDED
:102F30007CAB0200F62C002010B50446A08928DFE7
:102F400010BD000013480078062820D11148001D4C
:102F5000007800F00F00D0B90E480830007800F07B
:102F6000F000302801D1012070470A48083000786D
:102F700000F0F000402801D10120F5E705480830B5
:102F8000007800F0F000502801D10120ECE700208B
:102F9000EAE70000E00F00F00A48007806280ED1AA
:102FA0000848001D007800F00F0040B905480830BF
:102FB000007800F0F000302801D101207047002097
:102FC000FCE70000E00F00F013480078062820D14D
:102FD0001148001D007800F00F00D0B90E480830ED
:102FE000007800F0F000302801D1012070470A4835
:102FF0000830007800F0F000402801D10120F5E70A
:1030000005480830007800F0F000502801D1012078
:10301000ECE70020EAE70000E00F00F00A48007843
:1030200006280ED10848001D007800F00F0040B9B6
:1030300005480830007800F0F000302801D1012068
:1030400070470020FCE70000E00F00F01348007814
:10305000062820D11148001D007800F00F00D0B9DB
:103060000E480830007800F0F000302801D101202F
:1030700070470A480830007800F0F000402801D17D
:103080000120F5E705480830007800F0F0005028EE
:1030900001D10120ECE70020EAE70000E00F00F09A
:1030A0000A48007806280ED10848001D007800F074
:1030B0000F0040B905480830007800F0F0003028D3
:1030C00001D1012070470020FCE70000E00F00F074
:1030D0000A48007806280ED10848001D007800F044
:1030E0000F0040B905480830007800F0F0003028A3
:1030F00001D1012070470020FCE70000E00F00F044
:103100000A48007806280ED10848001D007800F013
:103110000F0040B905480830007800F0F000502852
:1031200001D1012070470020FCE70000E00F00F013
:103130000278072A34D2DFE802F03304071020298E
:10314000300000220A702CE001220A7003898B8172
:103150008388CB81C2688A6023E002220A700389D7
:103160008B818388CB81C2688A60027C062A01D168
:10317000012300E000230B7413E003220A70C388CC
:103180008B810389CB81C2688A600AE004220A70BD
:10319000C3888B810023CB8103E005220A7000E005
:1031A00000BF00BF7047000070B50546002409E06D
:1031B000064850F8240020B1044850F8241028464E
:1031C0008847641C082CF3D370BD00007C75002078
:1031D0003EB505460C46DCB1112C19D000200090FC
:1031E00001900290ADF8025001940D2C03D10B20F8
:1031F0008DF8000008E0862C03D10A208DF800002D
:1032000002E009208DF80000684600F057F800BF82
:103210003EBD000070B50546002405E0044850F8A6
:10322000241028468847641C002CF7D070BD00008D
:10323000B02C002070B50546002405E0044850F885
:10324000241028468847641C002CF7D070BD00006D
:10325000BC2C002070B50546002405E0044850F859
:10326000241028468847641C022CF7D370BD000048
:1032700024AB020070B50546002405E0054850F86F
:10328000241028468847641C034800788442F5DBF4
:1032900070BD000094350020F22C002070B505466A
:1032A000002405E0044850F8241028468847641C90
:1032B000022CF7D370BD000044AB020070B5054688
:1032C000002405E0044850F8241028468847641C70
:1032D000002CF7D070BD000088AB0200F0B50346AB
:1032E00000241FE0124E306806689E4203D906682B
:1032F000F61A06601AE006689B1B0668344400262E
:1033000006600B4E35680A4FC6693E60C66846B116
:103310000E1926F07F464660C66886601668C6614C
:10332000156000BF024800680028DBD100BFF0BD77
:103330006C2D0020704700001FB50446606808B976
:10334000012000E000200390207806287BD2DFE8EF
:1033500000F0820304304F7B00BFA08900F045FAE3
:1033600018B9E08905F059FA10B3A08900F038FACD
:10337000ADF80200E08905F04DFA8DF804002078E0
:10338000012807D1606808B9002000E003208DF80B
:10339000000006E0606808B9012000E004208DF814
:1033A000000060680390A0680290684603F06EFF1A
:1033B00052E0A08900F019FA18B9E08905F02DFA59
:1033C000A8B1A08900F00CFAADF80200E08905F080
:1033D00021FA8DF80400606808B9022000E0052099
:1033E0008DF80000A0680290684603F04FFF33E0BC
:1033F000A08900F0FAF928B3E08918BBA08900F091
:10340000EFF9ADF80200E08905F004FA8DF8040048
:10341000FF208DF80400606838B906208DF80000A0
:10342000BDF8020004F048F902E007208DF8000022
:1034300000200E4908700E49087004F087F86846AD
:1034400003F024FF08E006E008208DF8000068463D
:1034500003F01CFF00E000BF00BF0448007820B16B
:1034600000200249087004F071F81FBDCD2C002027
:10347000CE2C002010B588B00446022000F0DCF904
:1034800010B9022008B010BD4FF6FF70844201D180
:103490000420F7E705208DF8040001208DF80800CE
:1034A000ADF80A400022114601A803F00FFA18B146
:1034B00005F018F80020E5E70820E3E700B587B03D
:1034C000022000F0B9F910B9022007B000BD0620B3
:1034D0008DF8000000221146684603F0F7F948B164
:1034E0000548007810B101200349087304F0FAFF81
:1034F0000020EAE70820E8E77C76002010B58CB0D1
:10350000142107A8FBF7BFFF022000F095F928B1AE
:1035100007A8FFF749FE00200CB010BD012000F005
:103520008BF908B10020F7E7012000F091F900F0D5
:103530005FFA03F0D7FA04460CB90B20ECE7062C2F
:103540000AD1022000F084F9012000F05BF907A8FD
:10355000FFF72AFE0020DFE701208DF800000C2C89
:103560001AD2DFE804F01906190719141915190BF6
:10357000100C00BF00208DF804000EE000BF0320F7
:103580008DF8040009E002208DF8040005E000BF7A
:1035900001208DF8040000E000BF00BF00221146AA
:1035A000684603F093F904F09DFF0020B4E70000A3
:1035B00038B504460CB9052038BD6946204605F0EB
:1035C00041F8E0B10F48BDF8001000EB0110808910
:1035D000002812DDA07A80B10A48BDF8001000EB87
:1035E00001108089401E0749BDF8002001EB02113F
:1035F00088810020A072002502E0062500E00A254F
:103600002846D9E75C7600207FB514461D462B4638
:10361000224601A9684604F0ADFF04B070BD37B57D
:103620000C4615462B4622466946002004F0A2FFB0
:103630003EBD37B50C4615462B462246002168464E
:1036400004F098FF3EBD024602B109B9052070475B
:10365000106808600020FAE738B504460D4604B14A
:103660000DB9052038BD6946204604F0EBFFA8B12E
:1036700061680B48BDF8002000EB02108089401CF7
:10368000074ABDF8003002EB0312908129606068A0
:103690000C3068600120A0720020E3E70A20E1E717
:1036A0005C76002070B504460D460CB9052070BD4F
:1036B000032300222946204607F0CAF8F7E770B531
:1036C00004460D46022300222946204607F0C0F892
:1036D00070BD70B505460E4614460CB9052070BD88
:1036E000022322463146284607F0B2F8F7E70000E9
:1036F0000146094A1278082A01D10C200AE0074A3B
:10370000054B1B7842F82310034A1278521C024BD7
:103710001A70002070470000892D00207C75002061
:10372000F8B504460D46022000F086F808B90220DC
:10373000F8BD0CB90520FBE76946284607F074F987
:1037400006461EB9BDF80000208065803046EFE7D0
:1037500070B50446022000F06FF808B9022070BD71
:103760000CB90520FBE72088022801DD0420F6E7DC
:1037700020880A4901EB001671896088C01C081A6C
:1037800008D42188608807F041F9002020806080FB
:10379000002500E004252846E1E700005C760020D3
:1037A0003EB504460C4B6A460021A01D04F0E2FE23
:1037B00005465DB9019804F0B3FF054601200649AE
:1037C0008988064A02EB0111887303E00248002150
:1037D0000160416028463EBD982D00205C760020A7
:1037E0000146A1F5404080B270470146B1F5404F17
:1037F00005DB4FF6FE70814201DC0120704700209E
:10380000FCE70000024909788143014A11707047C2
:10381000882D002010B504462078182802D1FEF724
:1038200029FB207010BD10B504462078182802D15D
:10383000FEF720FB207010BD0146044800780840C8
:1038400008B1012070470020FCE70000882D00200F
:10385000024909780143014A11707047882D002000
:1038600030B504461088C01C984201D90C2030BDE8
:103870000220158848551088401C108001201588AA
:1038800048551088401C108015884C551088401CE5
:1038900010800020EBE700002DE9F04106460C46C1
:1038A00015460027B846862C03D0112C01D0002CD9
:1038B00035D1862C03D14FF00008012709E0112CE7
:1038C00003D14FF00108002703E014B94FF00008BE
:1038D0000027C5B13A46134801783046FEF7FCFA96
:1038E0004246114801783046FEF7F6FA00220F48AA
:1038F00001783046FEF7F0FA00220D480178304694
:10390000FEF7EAFA0BE03A46084801783046FEF73F
:10391000E3FA4246064801783046FEF7DDFABDE894
:10392000F08100000D2D00200C2D0020092D00201D
:10393000082D002008B5684600F0BAF8009808B1D4
:10394000012008BD0020FCE7F8B505460C461646E8
:103950001F461C48007800F0010008B90120F8BD9E
:103960002846FFF74BF808B90220F8E70CB9032006
:10397000F5E7C4F30B0008B10620F0E72868A04281
:1039800004D804EB06306968884201D90520E6E7CF
:103990000EB90420E3E7684604F0E8FC08B9072004
:1039A000DDE70098476000980560022000990872E2
:1039B000C4F30F30009988810098068204F09EFDC0
:1039C0000020CCE7A02D002070B505460C4620460F
:1039D00004F000FD70BD4FF010204169481C08B193
:1039E000084670474FF0805040690003F9E7000037
:1039F0002DE9F0412B482C49401A04092948401A66
:103A00000509FFF7E8FF06462848007800F00100A6
:103A100010B10020BDE8F081002008E0224A02EB4E
:103A200000110A6812B14A6802B16D1E401CA04222
:103A3000F4D300202BE01C4901EB00124FF0000CE6
:103A4000C7B2002117E0DFF8608008EB0113D3F85C
:103A50000080B8F1000F05D0D3F80480B8F1000F52
:103A600000D007E093F80D80E04502DD93F80DC02B
:103A7000CFB200BF491CA142E5D30B4901EB0712AD
:103A80005660117BA6EB013111601668401CA842FC
:103A9000D1D30648007840F00100044908700020A6
:103AA000B8E70000D02D0020C02D0020A02D002060
:103AB000014609B9032070470248406E08600020A3
:103AC000F9E70000987600202DE9F84305460C46FA
:103AD00016461F46DDF820801F48007800F00100E0
:103AE00010B90120BDE8F8832846FEF787FF08B922
:103AF0000220F7E706B10CB90320F3E706F0030054
:103B000010B904F0030008B10620EBE72868A042D2
:103B100004D804EB87016868884201D20520E1E7F8
:103B20000FB90420DEE7684604F020FC08B907203E
:103B3000D8E70098C0F8048000980560012000993B
:103B400008720098C660009804610098878204F0AB
:103B5000D5FC0020C6E70000A02D002070B504466B
:103B60001748006E00EB4000154901EBC0051548F1
:103B7000007800F0020068B1022C02D0032C08D1BA
:103B800003E0284602F004FE03E0284602F0EAFDC6
:103B900000BF12E00B48007800F0040068B109484B
:103BA000007820F00400074908700548406E20B1F5
:103BB0000846007840F00200087004F05DFC70BD1B
:103BC00098760020A02D002030B589B004A86DDFC4
:103BD0009DF811309DF8122027A16846FCF7C4FE1D
:103BE00000BF9DF8180020F00F00401C06909DF8C3
:103BF000180020F0F0001030069000BF6846FBF778
:103C00004DFC85B22A46694606A87CDF044600BF03
:103C1000254625B100BF2846FDF724FB00BF00BFA5
:103C2000002078DF044600BF254625B100BF2846A6
:103C3000FDF718FB00BF00BF00200790089014207C
:103C4000ADF81C003820ADF81E000020ADF82000B3
:103C50004FF4C870ADF8220007A87ADF044600BF11
:103C6000254625B100BF2846FDF7FCFA00BF00BF7E
:103C7000042077DF09B030BD4D502D253032582556
:103C8000303258007047000070B50749074801F00E
:103C900026FC044600BF254625B100BF2846FDF797
:103CA000E1FA00BF00BF70BD853C0200E82D002096
:103CB00070B505460DB1012070BD1848007B18B1E4
:103CC00000201649087301E000F0D4F8134800788A
:103CD00008281DD2DFE800F01C04080C101C141882
:103CE00000F03CF8044615E000F0B2F8044611E09C
:103CF00000F08EF804460DE000F044F8044609E0B8
:103D000000F01CF9044605E000F028F9044601E043
:103D10000F2400BF00BF2046CEE700007C760020C5
:103D20000C480089401C0B4908810020488008731A
:103D300000BF0CE0084901EB0011097809B9012224
:103D400000E0002203490A310A54411C88B20228CB
:103D5000F0DB70477C7600205C76002010B50848C8
:103D600000F032F840B900200549891E08704880EB
:103D7000486041F61D5010BD00F06AF8FBE70000F6
:103D80007E76002070B50D4845880D4800EB051083
:103D9000808968B90A4800EB0510002301224168B8
:103DA0000848FFF7D1FD044604200449087002E0EA
:103DB00000F08CF80446204670BD00007C760020A0
:103DC0005C760020C02D002010B5014600220020A6
:103DD00015E00D4B1B5C83B100240B4B1C540B4BAB
:103DE00003EB00139B8943B9084B03EB00139B7B48
:103DF000012B02D10880012203E0431C98B2022863
:103E0000E7DB00BF104610BD867600205C76002000
:103E1000F8B50C4844680C4800680B49898800EBE9
:103E200081056088C01C86B2032006490870002006
:103E3000009008463346294642680448FFF744FE8E
:103E4000F8BD00007C760020902D0020C02D0020C1
:103E500010B507494888091D04F032FC18B1FFF776
:103E6000D7FF044602E0FFF78DFF0446204610BD51
:103E70007C76002010B514480078082820D2DFE8AE
:103E800000F0041F1F0A1016171BFFF749FF01203F
:103E90000D49087015E000F06DF802200A4908701D
:103EA0000FE000F029F806200749087009E000BF7C
:103EB00007200549087004E001200349087000E06C
:103EC00000BF00BF10BD00007C76002010B50520AB
:103ED000064908700220064988800846002301220E
:103EE00001680448FFF730FD10BD00007C7600201B
:103EF000902D0020C02D00200D4908680D494988EB
:103F00000D4A02EB01114968094A116009494988C3
:103F1000094A02EB0111486005498988054A52881F
:103F2000054B03EB021211810221014A9180704777
:103F3000902D00207C7600205C76002010B50620B5
:103F4000044908704988044A02EB0111486802F0EC
:103F5000A7FD10BD7C7600205C76002010B5072000
:103F6000034908700020486002F0AAFD10BD00005F
:103F70007C760020054A50684288D21C91B2044ADF
:103F800092880A44024B9A80704700007C76002099
:103F9000902D00203EB504462088502821D052287C
:103FA00002D0542825D103E0A08801F0AFF820E02A
:103FB00006208DF80000A08800F0B6FBADF80200E6
:103FC000A088ADF80400BDF8020000F00FF9A08849
:103FD00000220C490978FDF77FFF6846FFF71AF9C0
:103FE00007E0A01DFEF720FC10B1A08801F0DEF86C
:103FF00000BF00BFFDF73EFA06F04CFA04F0B0FF38
:104000003EBD0000B72C00203EB504466088ADF8E8
:104010000200207820B101280FD002282BD116E011
:1040200000208DF800006846FFF7F4F8608800F083
:10403000A5FA054601F06AF81DE001208DF80000A0
:10404000A088ADF804006846FFF7E4F813E0207993
:1040500080B1608800F092FA05464FF6FF70854205
:1040600007D00122054801782846FDF735FF04F006
:1040700077FF00BF00BF00BF3EBD0000B72C00208F
:1040800010B50446207801280DD1608801F03EF873
:10409000608800F08FF928B160880122034909780F
:1040A000FDF71AFF00E000BF00BF10BDB72C0020D5
:1040B00010B500F055FCFDF7DDFE12490870FDF764
:1040C000D9FE11490870FDF7D5FE10490870FDF7BB
:1040D000D1FE0F4908700B48007818280BD00A4809
:1040E0000078182807D009480078182803D0084617
:1040F0000078182801D1032010BD0120054908705F
:104100000020F9E7B52C0020B62C0020B72C0020A9
:10411000B82C0020B42C002010B586B000F07EF83A
:1041200001A8FDF719FE002412E002A931F81400DD
:1041300000F0FAFA4FF6FF71884207D102A931F870
:104140001400012206490978FDF7C6FE601C84B2FE
:104150000198A042E9D804F003FF06B010BD0000AA
:10416000B72C002010B504462078072803D16088BA
:1041700001F01CF800E000BF00BF10BD10B5044600
:104180000B4801782046FDF795FE70B100210AE04A
:1041900001EB4100074A02EB80004088A04201D1B8
:1041A000C8B210BD491C0829F2D3FF20F9E700006E
:1041B000C72C0020B431002010B500240DE004EB22
:1041C0004401084A02EB8101488807490978FDF754
:1041D00071FE08B9E0B210BD641C082CEFD3FF20BB
:1041E000F9E70000B4310020C72C00201CB50446BC
:1041F000044903C9CDE9000100226946204602F0C6
:10420000C6FE1CBD1CAB020010B500F0AFFB0120C8
:1042100001490870002010BDC02C002010B54FF6D9
:10422000FF7002F095FD0249088004F0CFFE10BD3A
:10423000C22C00202DE9FC478146484600F074FA64
:104240000546002600274FF003084FF0010A4FF6FD
:10425000FF7085420CD06A460821284602F060FEB5
:1042600004462CB90198861D8788D0F8008000BFCD
:1042700000BF43463A4631464846A9DF0446042C6F
:1042800001D1112415E0082C01D1002411E00B2CE0
:104290000FD14FF0000A08F0020010B14FF00108F2
:1042A00007E006B927B1002600274FF0030800E019
:1042B00003240B2CDDD0BAF1000F00D10B242046D3
:1042C000BDE8FC872DE9FC478046404600F02CFA0B
:1042D00007464FF6FF70874203D143F20200BDE864
:1042E000FC874FF001094FF0000A00BF4FF0000AB1
:1042F0004A46511C1FFA81F96B460821384602F0E4
:1043000051FE044604BB019D032028602A1DA91DFF
:1043100040462B68AADF04462CB90821384602F033
:10432000F7FE04460FE00C2C02D14FF0010A02E028
:10433000052C00D100240821384602F0CDFE0646A7
:1043400006B1032400BF02E0072C00D10C24BAF10F
:10435000000FCBD100BF2046C1E700007FB5044667
:10436000207801281BD12079012818D1608802AA61
:10437000012102F0D5FD054685B902208DF8000027
:104380006088ADF8020003A808B1012000E0002019
:104390008DF804006846FEF74DFF00BF00BF0448DB
:1043A00000884FF6FF71884201D004F00FFE7FBDF8
:1043B000C22C00207CB50446204600F0B5F9064624
:1043C0006A460121304602F0ABFD05460DB10020E2
:1043D0007CBD01980078FBE770B505464FF6FF7687
:1043E00000BF4FF6FF720A4801882846A7DF04463F
:1043F00043F20300844204D105480088401C04496C
:10440000088043F203008442EBD0204670BD0000D8
:10441000C42C0020014688884FF6FF72904203D0DA
:10442000088808B1012070470020FCE73EB504462B
:104430000D4620780221B1EB500F01D000203EBD87
:10444000B4F80100ADF80800E0788DF80A00A18802
:10445000ADF80010A0798DF8020001AA694628463F
:10446000FCF7B3FE032201A902A8FBF71EF808B966
:104470000120E4E70020E2E770B506460C4630462E
:10448000FFF77CFE0546FF2D0CD005EB45000649E5
:1044900001EB8000416821600189A180807AA071D0
:1044A000002070BD0520FCE7B431002070B590B04D
:1044B00004462088102801D010B070BD3422211D80
:1044C00003A8FAF7B9FF4FF6FF759DF81000032116
:1044D000B1EB500F35D002F03FFF9DF810004008BF
:1044E00020B1012803D0022828D114E000BF09E040
:1044F000019800F1110104A8FCF7B2FC10B1BDF85D
:10450000085006E06A4602A9072002F0F7FE0028DC
:10451000EED100BF13E008E00198411C04A8FFF7AA
:1045200085FF10B1BDF8085006E06A4602A90720D1
:1045300002F0E4FE0028EFD100BF00E000BF00BFA2
:1045400000BFBDF80C0004A900F06CFF06464FF652
:10455000FF7085420FD0BDF80C00294600F088F8A6
:10456000BDF80C00ADF8060001208DF8040001A88C
:10457000FEF770FE00BF00BF9EE70000024600216C
:104580000DE001EB4100084B33F82000904205D1CB
:1045900001EB410003EB800040887047491C08296B
:1045A000EFD34FF6FF70F8E7B431002010B500F0FC
:1045B000E9F9FDF75FFC06490870084600781828FD
:1045C00001D1032010BD0120024908700020F9E745
:1045D000C72C0020C62C00202DE9F04104460D46D2
:1045E000601C00F0EDFA10B90020BDE8F081102247
:1045F000691C601CFAF759FF08B9012000E000208F
:10460000074605F1110104F11100FCF729FC0646EB
:1046100007B90EB10120E8E70020E6E7024610885E
:1046200008B101207047002105E0901C405C08B1F2
:104630000120F7E7491C0829F7D30020F2E770B5FD
:1046400005460C462846FFF7E9FF08B9002070BD73
:1046500028882188884201D00020F8E70822A11C80
:10466000A81CFAF722FF08B90120F0E70020EEE7C6
:1046700070B504460D462946204603F07FF870BD0C
:1046800030B587B00446207810B92079072801D0CA
:1046900007B030BD608804AA072102F041FC05463E
:1046A00005B1F5E702F058FE1EE06088BDF818106D
:1046B000884200D118E003990598FFF78DFF90B16B
:1046C0006088FFF75BFFADF8020000208DF8000066
:1046D0006088ADF80400BDF81810ADF80610684603
:1046E000FEF7B8FD07E000BF02AA06A9072002F006
:1046F00005FE0028D9D100BF00BFC9E770B5064646
:104700003046FFF73BFF0446304602F014FC0546F6
:104710004FF6FF70844204D01DB90146204603F0D5
:104720002DF8284670BD000070B505462846FFF7F5
:1047300025FD0446FF2C05D004EB4400034931F865
:10474000200070BD4FF6FF70FBE70000B431002081
:104750003EB5044602F000FE10E0019800F146016B
:104760002046FFF76CFF30B9019800F12A0120467E
:10477000FFF765FF10B1BDF808003EBD6A4602A90B
:10478000072002F0BBFD0028E7D14FF6FF70F4E7E9
:104790002DE9F04106460C460F272EB10120FFF708
:1047A00031F80120BDE8F081207930B101280AD02C
:1047B000022833D0032864D13EE002F081F9074695
:1047C000012020715EE04FF00008002516E032481D
:1047D00000EB0510007802280ED12F4901EB0511DE
:1047E000486802F05DF9074600202B4901EB0511EE
:1047F00008704FF0010803E0681C85B2022DE6DB6B
:1048000000BFB8F1000F08D10220FFF721F8012006
:10481000FEF7F8FF41F61D50C4E733E01F480023C0
:10482000012201681E48FFF78FF8074602201B4946
:1048300088800020207125E01849086802F030F9CE
:104840000746184845881548D0F80080124800EB04
:1048500005104068114908600F4800EB0510C0F8CA
:104860000480084680880C4901EB0511088102206C
:104870000A4988800020084901EB05110870207161
:1048800000E000BF00BF27B10120FEF7BBFF0E20F4
:1048900088E7002086E700005C760020902D00204D
:1048A000C02D00207C760020F8B52748007800B99C
:1048B000F8BD00252548006808B9012000E0002067
:1048C000064600BFDDB92248007800B1F0E768462F
:1048D00048DF0446052C01D101250FE024B100BFBB
:1048E0002046FCF7BFFC09E0009801F05DF819488C
:1048F000006818B1174900980968884700BFDEB9F9
:104900001348007800B1D3E7134800880090694647
:104910001248006861DF0446052C01D101260AE037
:1049200024B100BF2046FCF79DFC04E00B48006862
:1049300006490968884700BF0DB106B100E0C1E72C
:1049400000BF00BFB4E70000A82D0020B42D002058
:10495000A92D0020B82D0020B02D0020AC2D002066
:104960000020014908707047B42C00200020034942
:1049700008704FF6FF70024908807047C02C002075
:10498000C22C0020182008490870002008E04FF6CB
:10499000FF7100EB4002054B03EB82025180401C8B
:1049A0000828F4D370470000C72C0020B431002041
:1049B00010B5002407E004EB8401044A02EB8100F7
:1049C00005F01BFF641C082CF5D310BD3432002009
:1049D00010B5044640212046FAF755FD10BD0000F1
:1049E0004FF6FF700549088000200549086018202F
:1049F000044908700449087070470000F02C00203A
:104A0000E82C0020F32C0020F42C00207FB5064673
:104A10000C464FF49271304601F036FCE8B14FF489
:104A20009271304601F037FC4FF48271304601F04C
:104A30002BFC90B9A168304601F034FC0220A06044
:104A4000A168304601F031FC2021304601F03EFCE7
:104A50001421304601F03AFC7FBD4FF4827130469C
:104A600001F012FC002844D04FF48271304601F06E
:104A700012FCD4E90412E06801AB07C394F82300E8
:104A8000D8B1207B012804D1304601F017FCC0B218
:104A900003E0304601F023FCC0B28DF80600207B15
:104AA000022804D1304601F009FCC0B203E03046D0
:104AB00001F015FCC0B28DF807004FF4B07130461C
:104AC00001F0E9FB4FF4AE71304601F0E4FB94F8DD
:104AD000250018B194F8230000283ED0002130466C
:104AE00001F0F1FB0020A060411E304601F0DAFB2E
:104AF00033E04FF4A471304601F0CDFB207B90B938
:104B0000D4E90412E06801AB07C394F8250020BB88
:104B10000021304601F0D7FB0020A060411E304646
:104B200001F0C0FB19E04FF40071304601F0CBFBFF
:104B300040F20220A0604FF0FF31304601F0B2FB9E
:104B4000A168304601F0B1FB0821304601F0BEFB00
:104B50002021304601F0BAFB7EE7304601F08EFBA3
:104B6000054605F0020018B101208DF8000009E0AB
:104B700005F0040018B102208DF8000002E00020CA
:104B80008DF8000094F8250010B9002084F8240066
:104B90006846D4E90021904700BF5DE70146488898
:104BA000064A1288904206DB4888044A528890429E
:104BB00001DC012070470020FCE70000982C002059
:104BC0000246002104E0505C08B101207047491CF6
:104BD0001029F8D30020F9E7014601F0030008B9D5
:104BE000012070470020FCE70146086808B1026810
:104BF0000A6070472DE9F04107460D4690461E4673
:104C00002DB92948007810B90520BDE8F08135B1EB
:104C100042460021384604F049FD044605E042467C
:104C20002249384604F042FD044600222146384617
:104C3000FEF732FE1EB121463846FEF7C9FA112CA6
:104C40000DD005DC34B3082C27D00D2C26D122E062
:104C5000862C12D0A4F540500238F8B91CE02A4640
:104C6000134801783846FDF737F942461148017874
:104C70003846FDF731F9002412E02A460C48017845
:104C80003846FDF729F942460A4801783846FDF7CB
:104C900023F905E000BF00BF00BF01E0032400BF0F
:104CA00000BF2046B1E70000022D0020FD2C0020AF
:104CB0000B2D00200A2D00202DE9FC4107460E4651
:104CC000904626B9002138467EDFBDE8FC81307869
:104CD00000F0010008B1012000E0022001903846F8
:104CE000FFF722FD05464FF6FF70854209D001A867
:104CF0002B46424631460090384600F024F80446E0
:104D000019E0307800F0010028B13146384600F053
:104D10008EF804460FE0314638467EDF0446002018
:104D200000900CB9012000E0002002460123294632
:104D3000384604F07DF824B99DF80410384604F094
:104D4000BFF82046C1E72DE9FF4F85B00F469046DA
:104D50001E46DDF848900025AA4603AA07213046E2
:104D600002F0DEF804466CB9049800F118050498C6
:104D700090F8440000F0010ABAF1000F02D0049844
:104D800000F13405B8F1000F13D194B98DB1BAF127
:104D9000000F04D105F11200FFF740FC48B12A468C
:104DA00005F11201059885DF0446002089F800000E
