:020000040001F9
:10F00000E85A002015F401001DF401001FF401006E
:10F0100021F4010023F4010025F4010000000000A8
:10F0200000000000000000000000000027F40100C4
:10F0300029F40100000000002BF401002DF4010070
:10F04000E9FD01002FF40100690302006D000200D8
:10F05000850002002FF40100D5FA01006DFE0100C9
:10F060002FF4010039030200510302002FF40100C4
:10F070002FF401002FF401002FF401002FF4010000
:10F080002FF4010039FE01002FF401002FF40100DC
:10F09000990002002FF40100A10002002FF40100EA
:10F0A0002FF401002FF401002FF401002FF40100D0
:10F0B0002FF401002FF40100000000000000000008
:10F0C0002FF401002FF401002FF401002FF40100B0
:10F0D0002FF401002FF401002FF4010000000000C4
:10F0E0000000000000000000000000000000000020
:10F0F0000000000000000000000000000000000010
:10F1000000000000000000000000000000000000FF
:10F1100000000000000000000000000000000000EF
:10F40000DFF80CD000F018FB00480047B5410200BF
:10F41000E85A00200648804706480047FEE7FEE716
:10F42000FEE7FEE7FEE7FEE7FEE7FEE7FEE7FEE7B4
:10F43000E100020001F40100D0ED060A90ED070A98
:10F44000002930EE801A90ED080A31EE001A80EDA6
:10F45000001AB0EE001A51EE400AC0ED010A80ED2C
:10F46000020A08BF70470021C16001614161704715
:10F470000021C16001614161704740EA01039B07BF
:10F4800003D009E008C9121F08C0042AFAD203E019
:10F4900011F8013B00F8013B521EF9D27047D2B27D
:10F4A00001E000F8012B491EFBD270470022F6E76D
:10F4B00010B513460A4604461946FFF7F0FF2046EA
:10F4C00010BD30B504460020034600E05B1C9342AB
:10F4D00003D2E05CCD5C401BF8D030BD2DE9FE4F7F
:10F4E000804681EA0300C00F0C46009021F00041E5
:10F4F00023F00045B8EB0200A94105D24046214661
:10F5000090461C460B46024623F00040104347D06D
:10F51000270DC7F30A00C3F30A510290401A019065
:10F5200040286BDAC3F3130040F4801B0098924626
:10F5300020B10023D2EB030A63EB0B0B0198594671
:10F54000C0F14002504600F0C1F906460D46504653
:10F550005946019A00F0C9F910EB080061410024F6
:10F5600087EA115284EAE7731A4340D0009A62B3E3
:10F57000019A012A4FEA075215DC001B61EB0201D8
:10F580004FF0004202EA0752CDE90042001C41F56B
:10F59000801132462B4600F000FA03B0BDE8F08F30
:10F5A00040462146F9E7001B61EB0201001C41F5D2
:10F5B000801300185B412018A2F5001747EB0301E8
:10F5C00040EAD570B6196D4111E06D084FEA360674
:10F5D00045EAC0754FEA0752001B61EB0201001CAF
:10F5E00041F5801149084FEA300000195141324677
:10F5F0002B4603B0BDE8F04F00F0C0B900980122DF
:10F6000040000023D0EB020263EBE0730098214638
:10F610004FEAE074B8EB000061EB0401E9E783F026
:10F6200000435BE781F0004158E72DE9FE4F81EA96
:10F63000030404F0004421F0004100944FF0000B5B
:10F6400023F0004350EA01045ED052EA03045BD089
:10F65000C3F30A54C1F30A552C44A4F2F3340194C1
:10F66000A0FB0254C1F3130141F48011C3F313034F
:10F6700043F4801301FB024400FB034E840A970A03
:10F6800044EA815447EA8357A4FB076802958D0A30
:10F6900005FB07854FEA932C04FB0C542705029DBC
:10F6A0004FEA065847EA1637B5EB08056EEB070C2C
:10F6B000870E920E47EA811742EA8312A7FB0201E6
:10F6C000B6EB0B0164EB00042B0D43EA0C335E1820
:10F6D00044EB1C50DA465146E7FB0201C5F3130424
:10F6E0004FEA0B3343EA14534FEA0432019C43EAD6
:10F6F0000603A4F10C040294009CCDE900B400F0D0
:10F700004CF903B0BDE8F08F00200146F9E72DE980
:10F71000F04D81EA030404F0004B21F0004514464B
:10F720004FF0000A23F0004150EA050220D054EACD
:10F7300001021DD0C5F30A570246C5F31303C1F3F6
:10F740001300C1F30A5640F4801543F48013A7EB6D
:10F750000608101BD64608F2FD3873EB050002D3ED
:10F7600008F1010801E092185B41B8F1000F03DADB
:10F7700000200146BDE8F08D00204FF480110646C0
:10F7800084460EE0171B73EB050705D3121B63EBD2
:10F79000050306434CEA010C49084FEA3000921871
:10F7A0005B4150EA0107EDD152EA030012D082EA30
:10F7B000040083EA0501084305D0101BAB4106D2C3
:10F7C0000122002306E000224FF0004302E06FF028
:10F7D000010253101AEB06004CEB085110EB0A0023
:10F7E00041EB0B01BDE8F04D00F0C8B80EB5C10FFC
:10F7F00080EAE0700844CA07002140F233438DE8F4
:10F800000E000A460B4600F0C8F803B000BD00F039
:10F81000004230F000400AD0C10D01F56071C0F324
:10F82000160042EA0151C208400711437047002008
:10F830000146704730B5041E71F1000404DB4FF03F
:10F840000044404264EB0101141E73F1000405DB27
:10F850001C464FF00043524263EB04038B4208BF47
:10F86000824230BD30B5041E71F1000404DB4FF05C
:10F870000044404264EB0101141E73F1000405DBF7
:10F880001C464FF00043524263EB0403994208BF09
:10F89000904230BD01F0004330B421F0004150EA05
:10F8A000010206D00A0DA2F56072C1F31301002A0D
:10F8B00002DC30BC00207047440F44EAC104C100A0
:10F8C000E01830BC00EBC25000F021B8202A04DB65
:10F8D000203A00FA02F1002070479140C2F1200363
:10F8E00020FA03F3194390407047202A06DBCB1718
:10F8F000203A41FA02F043EAE07306E041FA02F3EB
:10F90000D040C2F1200291400843194670470029B7
:10F91000A8BF7047401C490008BF20F00100704795
:10F9200010B4B0FA80FC00FA0CF050EA010404BFF5
:10F9300010BC704749B1CCF1200421FA04F411FA4B
:10F940000CF118BF012121430843A3EB0C01CB1D8F
:10F950004FEA00614FEA102042BF002010BC704700
:10F9600000EBC35010440029A4BF10BC7047401CDA
:10F97000490008BF20F0010010BC704710B5141EEC
:10F9800073F1000408DA401C41F1000192185B4158
:10F990001A4301D120F0010010BD2DE9F04D92462F
:10F9A0009B4611B1B1FA81F202E0B0FA80F2203246
:10F9B0009046FFF78BFF04460F4640EA0A0041EAF3
:10F9C0000B0153465A46084313D0114653EA01002F
:10F9D00019D0C8F14002504600F040F805460E46E6
:10F9E000504659464246FFF771FF084305D00120B3
:10F9F00004E020463946BDE8F08D0020054346EA84
:10FA0000E0762C4337430A986305E40AA0EB08002C
:10FA10000022FD0A44EA47540A3002D5002001467C
:10FA2000E9E7010510196941DDE908450019694157
:10FA3000BDE8F04DA2E70000064C074D06E0E06887
:10FA400040F0010394E8070098471034AC42F6D325
:10FA5000FFF7DAFC6885020088850200202A04DBB3
:10FA6000203A21FA02F00021704721FA02F3D04037
:10FA7000C2F12002914008431946704770B58C18B6
:10FA800010F8015B15F0070301D110F8013B2A11B2
:10FA900006D110F8012B03E010F8016B01F8016B9F
:10FAA0005B1EF9D12B0705D40023521E0DD401F89B
:10FAB000013BFAE710F8013BCB1A921C03E013F864
:10FAC000015B01F8015B521EF9D5A142D8D3002099
:10FAD00070BD00002DE9F04F89B04FF00008002004
:10FAE00008904FF4807007900126002413E00798D7
:10FAF00005F088F848B100BF81480068304020B167
:10FB0000079805F071F848EA060876000798001D86
:10FB100080B20790641C082CE9D34FF4BE7005F046
:10FB200071F850B14FF4BE7005F05EF848F000482F
:10FB300008AA0121002005F03DF808F0FF0000B3FD
:10FB4000012600241BE006EA0800B0B100BF6D48A2
:10FB500050F82400C0F30420074600BF694850F85D
:10FB60002400C0F301408146204602F087FA054692
:10FB700015B149463846A84700BF7600641C082CDA
:10FB8000E1D308F0004000287ED0002006900590C8
:10FB9000002505E04FF0FF3004A941F825006D1C59
:10FBA000002DF7D000BF0020069000246FE05648DB
:10FBB000005D0390039820F0C00753480057401C95
:10FBC000002863D004A9384604F008FC00285DD062
:10FBD00003984FEA901A384602F058FA814602F02C
:10FBE0004DFA0290029810B9BAF1030F4BD1BAF155
:10FBF000030F11D1394605A80246CB0801F00701D1
:10FC000012F803C04FF0010E0EFA01FE4CEA0E0C82
:10FC100002F803C000BF00BF00BF00BF4FF0A0410B
:10FC2000084600F5E06151F82710C1F3014900BF13
:10FC300008A9384604F0D2FB8346BBF1000F02D07E
:10FC4000B9F1020F05D0BBF1000F1BD1B9F1030FC1
:10FC500018D1BAF1030F0FD1B9F1020F01D103206E
:10FC600000E0022001903846019904F041FF069817
:10FC7000401CC0B2069000BF029818B151463846E9
:10FC8000029A904700BF00E036E000BF641C042CDD
:10FC90008DD3069858B3012703AA0121002004F050
:10FCA00089FF00250AE003A850F8250008A951F8AB
:10FCB0002510884201D0002702E06D1C002DF2D0F3
:10FCC00000BF17B10020069010E000250CE003A84B
:10FCD00050F8250008A941F8250005A850F825008E
:10FCE00004A941F825006D1C002DF0D000BF069836
:10FCF00000287FF458AF00BF09B0BDE8F08F0000C6
:10FD00000463004010650040A838002000F01F0286
:10FD100001219140024A430942F823107047000034
:10FD200080E200E000F01F0201219140024A4309F5
:10FD300042F823107047000080E100E000F01F024D
:10FD4000012191404209920002F1E022C2F8001123
:10FD5000704700F01F02012191404209920002F118
:10FD6000E022C2F80011704700F01F02012191400B
:10FD7000024A430942F823107047000000E200E005
:10FD800010B5002807DA4A07140E054A00F00F03E1
:10FD90001B1FD45403E04A07130E024A135410BD2C
:10FDA00018ED00E000E400E000BF00BF00BFBFF3BB
:10FDB0004F8F00BF00BF00BF0948006800F4E0603B
:10FDC00008490843001D0649086000BF00BF00BF86
:10FDD000BFF34F8F00BF00BF00BF00BF00BFFDE7F4
:10FDE0000CED00E00000FA0510B54FF4807004F04F
:10FDF0004BFB60B14FF4807004F04FFB012004F026
:10FE000055FB01200B494870002002F0CBF94FF45C
:10FE1000827004F039FB58B14FF4827004F03DFB5E
:10FE2000022004F043FB01200249887002F0BAF975
:10FE300010BD00004438002010B5002009490860BA
:10FE400000210948C0F84411C0F84811C0F84C110D
:10FE500000200549C1F8000102493C39086007F05B
:10FE60001DFE10BD4011014000100140FEB54FF4D1
:10FE7000827004F0DBFE002835D04FF4827004F06D
:10FE8000DFFE794890F82B0018B1774890F82C00E5
:10FE900048B300208DF80000734840680190724814
:10FEA0000189ADF80810C06820B900206E4981F8BA
:10FEB00029000FE06C48C0686B4948600846808A9A
:10FEC00008810020C860084690F82B0010B9002077
:10FED00004F0C2FE64480168684688470020624911
:10FEE00081F82C0000BF604890F82B0000286CD0EF
:10FEF0004FF4807004F09AFE002866D04FF48070B2
:10FF000004F09EFE5848C08AB0B957480089564947
:10FF100091F82A10401A5449C8820A4612890B46A1
:10FF2000DB8AD21A0B465B6803EB42000A4692F862
:10FF30002A1004F073FE41E04B48C08A4A4991F808
:10FF40002A10884216DD4848C08A474991F82A108D
:10FF5000401A4549C8820A4612890B46DB8AD21AE2
:10FF60000B465B6803EB42000A4692F82A1004F045
:10FF700055FE23E03C48C08A3B4991F82A1088424C
:10FF80000FD13948C06860B10120374981F82C0091
:10FF90000020C8820A4692F82A10D06804F03EFE7B
:10FFA0000CE03148C08A304991F82A10884205D1C6
:10FFB00001202D4981F82C000020C8824FF4827066
:10FFC00004F03EFE042004F047FE4FF4887004F075
:10FFD0002DFE78B14FF4887004F032FE00202249E3
:10FFE00081F8290002208DF8000008460168684663
:10FFF000884700BF4FF48A7004F018FE40B14FF4F8
:020000040002F8
:100000008A7004F01DFE0020174981F829002AE0BB
:100010001548056924E0B5FA85F64FF00040F04038
:100020008543B00000F58C74204604F0FFFDB8B1A4
:10003000204604F005FE01208DF80000A4F58C7028
:10004000C0F3C7008DF80400A4F58C70012121EAEB
:1000500090018DF80510044801686846884700BF84
:10006000002DD8D100BFFEBDD038002010B5034C04
:100070002146034803F00EFD10BD000000390020AA
:100080000030004010B5034C21464FF0402003F0F3
:1000900001FD10BD2039002010B507F015FC10BD82
:1000A00070B50A48006868B108480068804704468F
:1000B00000BF254625B100BF284600F0E3FC00BF85
:1000C00000BF01E003F05CFC70BD0000A830002020
:1000D00001480249086070470090D003C0300020FA
:1000E00010B502F06DFA10B186488749486702F0F2
:1000F0007FFA28B185480068C0F34230844908601F
:1001000002F0A0FA28B18348006820F0807081498D
:10011000086002F0AFFA48B100207F4908604FF054
:100120008041C1F810017A49091F086002F0CCFA39
:1001300018B1032076496431086002F0DDFA68B135
:100140000520764908600120744978310860002054
:100150007249083108603F20091F086002F0E4FA84
:10016000002855D06E4800686E4908606C48001D34
:100170000068091D08606A4808300068091D0860A9
:1001800067480C300068091D086065481030006839
:10019000091D0860624814300068091D0860604845
:1001A000183000685F49203108605D481C300068E5
:1001B000091D08605A4820300068091D0860584829
:1001C00024300068091D0860554828300068091D62
:1001D000086053482C300068091D086050483030D2
:1001E00000685049403108604D4834300068091DAE
:1001F00008604B4838300068091D086048483C30AA
:100200000068091D0860464840300068091D086004
:1002100002F0ACF930B13D481430006800F04F00F6
:10022000414908603B487438006840F4700039491F
:100230007439086000BF00BF00BFBFF34F8F00BF1D
:1002400000BF00BF00BF00BF00BFBFF36F8F00BF84
:1002500000BF00BF3548006800F00100F0B1012088
:100260003349086000BF334800680028FBD02F489E
:10027000006820F001004FF01021C1F80C0200BF0F
:100280002C4800680028FBD000202949086000BFE6
:10029000284800680028FBD0FFF786FD23480C386B
:1002A000006800F0004028B920480838006800F0D5
:1002B000004018B301201E49086000BF1D480068B7
:1002C0000028FBD0152019490C39086000BF1948D7
:1002D00000680028FBD0152114480838016000BFD1
:1002E000144800680028FBD000201149086000BFB6
:1002F000104800680028FBD0FFF756FDFFF7E8FE26
:1003000010BD00000DF0ADBA00C00740440200105F
:100310003C050040FCED00E00C01004010560040A0
:100320000404001020C50040E40E00400C12001030
:1003300004E5014000E4014010B5042202490348ED
:1003400003F07AFB10BD000040390020009000400F
:1003500010B504220249034803F06EFB10BD0000F3
:100360004C39002000A0004010B50648007F20B1A5
:100370000449054807F0C3FC03E00249024807F0BE
:100380001DFC10BDB03800200020004002E008C86D
:10039000121F08C1002AFAD170477047002001E0FF
:1003A00001C1121F002AFBD170470000014620291D
:1003B00008DA012088400A4A104008B1012070473D
:1003C0000020FCE7402909DAA1F12000012202FA0D
:1003D00000F008B10120F2E70020F0E70120EEE78D
:1003E000FC06FFBC00BFEFF31081084672B67047F1
:1003F00070B505460C4605B10CB9002070BD2878D3
:1004000040082178B0EB510F01D00020F6E706221A
:10041000611C681CFFF755F808B90120EEE70020C1
:10042000ECE70246002104E0505C08B1012070476F
:10043000491C0629F8D30020F9E7000010B504464E
:100440006CB108480068A04209D806484068A0423C
:1004500005D3204603F04EFB08B1012010BD00205B
:10046000FCE70000C430002010B5002400F00AF8BA
:1004700000F028F8044600F012F80CB1002010BD7E
:100480000120FCE7072000BF4FF0A0410A460123EE
:1004900003FA00F1C2F80C1500BF00BF7047072037
:1004A00000BF4FF0A0431946D1F804250123834033
:1004B0009343C1F80835012383401340C1F80C353C
:1004C00000BF7047062000BF4FF0A042114600BF9A
:1004D000D1F81025C24002F001021046704700001A
:1004E000F8B504460D4616462B46324621460248CC
:1004F000009604F0B1F9F8BDF0830200F0B589B0C0
:1005000004460D460026002700200190029003902B
:1005100004902088000A8DF8140020788DF81500CA
:1005200000208DF817008DF81800FFF7ABFF0422AC
:1005300001A905A8FFF7D4FF0646FFF7B0FF9DF815
:100540000400000200B22880B5F900009DF80510F3
:10055000084328809DF806000002208020889DF82E
:1005600007100843208016B10020288020803046E4
:1005700009B0F0BD2DE9FC41044688461646002529
:1005800037880020308094F82D0058B13A46314623
:10059000404601F043FA054600BF15B12846BDE8C4
:1005A000FC8100BFA07850B13A463146404600F089
:1005B0002BFF054600BF0DB12846F0E700BFE078ED
:1005C00060B1E17848B23B463246414602F01AFB40
:1005D000054600BF0DB12846E1E700BF606868B17D
:1005E000616891F900003B463246414607F0CBFA7C
:1005F000054600BF0DB12846D1E700BF208900287D
:100600000EDD43460622022104F10800CDE9006711
:1006100007F066FC054600BF0DB12846BFE700BFE6
:10062000208A00280EDD43460722032104F1100032
:10063000CDE9006707F054FC054600BF0DB1284620
:10064000ADE700BF208B00280EDD434615221421A4
:1006500004F11800CDE9006707F042FC054600BF31
:100660000DB128469BE700BF206A58B13B46324691
:100670004146206A01F023FE054600BF0DB1284621
:100680008DE700BF606A58B13B4632464146606A1A
:1006900003F0B6FD054600BF0DB128467FE700BF59
:1006A00094F82C0000280BDD3B463246414620469C
:1006B00006F0FCFC054600BF0DB128466FE700BF01
:1006C000207858B13B4632464146204603F0D3FDE0
:1006D000054600BF0DB1284661E700BF28465EE72A
:1006E00070B504461448FFF79CFE0546012C06D061
:1006F000022C0BD0032C10D0042C1AD113E00F487D
:10070000407810B10DB1012070BD00BF0B4880785A
:1007100010B10DB10220F7E700BF0848C07808B15A
:100720000320F1E700BF0548007908B10420EBE79A
:1007300000BF0020E8E70000D52F0020DC320020B9
:100740000146481C052290FBF2F302FB1300C0B2E5
:1007500070470146C87800F0040008B907207047C8
:100760000020FCE710B501220221002001F0A8FAC8
:10077000044600BF1CB1072C01D0204610BD00BFAD
:1007800007220221012001F09BFA044600BF1CB1A0
:10079000072C01D02046F1E700BF0A2200210846BD
:1007A00001F08EFA044600BF1CB1072C01D0204690
:1007B000E4E700BF0020E1E770B58CB004460D46C9
:1007C0001646002005E0C0F10F01615C0DF8001035
:1007D000401C1028F7D30D2104A8FEF767FE002067
:1007E00005E02A5CC0F10F0304A9CA54401C032889
:1007F000F7D3684643DF002005E0C0F10F0208A9E7
:10080000895C3154401C0328F7D30CB070BD000044
:1008100070B588B0054628883B2822D006DC02281F
:100820003BD0102807D0112877D115E0512843D0AC
:10083000562872D123E0072001F070FA044600BF69
:10084000264626B100BF304600F01CF900BF00BFAD
:10085000A8883449088061E04FF6FF70314908806C
:100860005CE0A888132176DF044600BF264626B147
:1008700000BF304600F006F900BF00BF4EE0A88878
:10088000132176DF044600BF264626B100BF30465E
:1008900000F0F8F800BF00BF40E0002121480088C8
:1008A00067DF044600BF264626B100BF304600F091
:1008B000E9F800BF00BF31E01022A91D04A8FEF72F
:1008C000DCFD9DF8100030B39DF81800042807D017
:1008D0009DF81800062803D09DF8180005281AD1A5
:1008E0009DF81000022802D18DF8000002E00120DE
:1008F0008DF800004FF4C170ADF80400A888694677
:10090000A8DF044600BF264626B100BF304600F0EF
:10091000B9F800BF00BF01E0FFE700BF00BF08B0AB
:1009200070BD0000482C002010B50446204600F0A1
:10093000D9FF204605F06AFB21460B4800F06EFF08
:10094000204607F02BFD204600F089FF204601F0ED
:1009500013F92046FFF75CFF204600F06BFE2146AE
:10096000024803F046FD10BDD4300020EC300020DA
:1009700070B588B029480068079000BF0023D822CE
:10098000274907A806F07EFE054600BF2E4626B181
:1009900000BF304600F076F800BF00BF00BF6A46D7
:1009A0000121002006F04EFE044600BF254625B179
:1009B00000BF284600F066F800BF00BF9E20ADF8DB
:1009C00010000220ADF80000684606F015FE04464F
:1009D00000BF254625B100BF284600F053F800BFF0
:1009E00000BF104806F0FCFD044600BF254625B1B7
:1009F00000BF284600F046F800BF00BF0A4806F0D6
:100A000095FE044600BF254625B100BF284600F0EC
:100A100039F800BF00BF08B070BD0000208402009C
:100A20009831002029090200811002000D2802D00F
:100A3000112802D100E001E000E000BF00BF7047D4
:100A400000BF00BF00BF00BF00BFBFF34F8F00BF9C
:100A500000BF00BF0948006800F4E060084908438F
:100A6000001D0649086000BF00BF00BFBFF34F8FE5
:100A700000BF00BF00BF00BF00BFFDE70CED00E0FE
:100A80000000FA053EB50446002000900190029057
:100A900002946A46002144F20100FFF7D1FF3EBDF7
:100AA00010B52DED088B82B0044600200190009017
:100AB0009FED490BB0EE409AF0EE609A9FED460B29
:100AC000B0EE408AF0EE608A48F6EB30009001A963
:100AD0006846FFF713FD00BFFFF7C6FC0028FBD0F8
:100AE00048F29B50009001A96846FFF707FDBDF949
:100AF0000400FEF77BFE41EC1A0B9FED390B53EC23
:100B0000102BFEF792FD41EC180B9FED370B53ECC9
:100B1000102B51EC180BFEF7A5FE04D2012002B0F9
:100B2000BDEC088B10BD9FED2C0B53EC102B51EC42
:100B3000180BFEF77FFE05D29FED270BB0EE408A23
:100B4000F0EE608A00BFFFF78FFC0028FBD048F66C
:100B5000EB30009001A96846FFF7D0FCBDF9041006
:100B60008810FEF743FE41EC1B0B9FED210B53EC6D
:100B7000102BFEF75AFD41EC1A0BB0EE4A0AF0EECC
:100B80006A0A00F023F9B0EE409AF0EE609A53EC56
:100B9000192B51EC180BFEF7A1FC41EC1A0BB0EE2F
:100BA0004A0AF0EE6A0A00F09DF984ED000B51EC60
:100BB000180BFEF76FFE1049086053EC192B51EC2F
:100BC000180BFEF78BFC41EC1A0BFEF763FE0B498A
:100BD00008600020A3E70000000000000000000003
:100BE000000000000000803F00000000000069409D
:100BF000000000000000A03FA82F0020AC2F002024
:100C0000F0B58DB00025132003F05AFF03210D200D
:100C100003F049FF0321112003F045FF0E2003F0EC
:100C20004FFF0C2003F04CFF092003F049FF1F2069
:100C300003F046FF1D2003F043FF1F2003F071FF68
:100C4000132003F084FF072003F03AFF072000BFC2
:100C50004FF0A0431946D1F8042501238340934364
:100C6000C1F80835012383401340C1F80C3500BF9B
:100C7000444B0FCB09AC0FC406208DF8260008208A
:100C80008DF8250005208DF824004FF080500B9042
:100C900001208DF8300000BF002209A93A4803F076
:100CA00039FD044624B100BF2046FFF7EBFE00BF2C
:100CB00000BF344B10330FCB05AE0FC6FF208DF8AD
:100CC00016001A208DF815000A208DF814004FF038
:100CD0008050079000208DF8200000BF002205A959
:100CE0002A4803F017FD044624B100BF2046FFF751
:100CF000C9FE00BF00BF2349203103C9CDE903016C
:100D000004208DF80C00224A03A9224803F040FE7B
:100D1000012000230246194600901E4803F016FEEB
:100D20000120022344F6701201460090194803F096
:100D30000DFE1449283103C9CDE9010106208DF8C3
:100D40000400154A01A9154803F022FE1421134896
:100D500003F074FE0646C821104803F06FFE0746F4
:100D6000012000233246194600900C4803F0EEFDA6
:100D7000012002233A4601460090084803F0E6FDB0
:100D80000DB0F0BD24840200F0830200F88302005D
:100D90009510020000840200A10D020008840200E8
:100DA00070B504460E460025B4F5A07F03D0B4F517
:100DB000A27F08D103E0132003F0B3FE04E0132068
:100DC00003F0C5FE00E000BF00BF70BD10B52DED03
:100DD0000C8BB0EE408AF0EE608A002400BF11E078
:100DE0003E4800EBC40090ED001BB0EE410AF0EE6F
:100DF000610A53EC102B51EC180BFEF71BFD00D2CF
:100E000002E0641C332CEBD300BF601E334901EBBE
:100E1000C00090ED002BB0EE420AF0EE620A0846E8
:100E200000EBC40090ED002BB0EE421AF0EE621A17
:100E300053EC102B51EC110BFEF7F1FB41EC1C0BAA
:100E4000601E264901EBC00090ED001BB0EE410A88
:100E5000F0EE610A53EC102B51EC180BFEF7DFFBA0
:100E600041EC1D0B53EC1C2BFEF751FC41EC1A0B13
:100E7000601E1B4901EBC00090ED002BB0EE420A52
:100E8000F0EE620A084600EBC40090ED002BB0EED5
:100E9000421AF0EE621A53EC102B51EC110BFEF7D4
:100EA000BEFB41EC1B0B53EC1A2BFEF7BEFB41ECD7
:100EB000190B601E0A4901EBC00090ED001BB0EE5B
:100EC000410AF0EE610A53EC102B51EC190BFEF7BE
:100ED00005FB41EC100BBDEC0C8B10BDF02D002080
:100EE000582C002010B52DED0C8BB0EE408AF0EEA2
:100EF000608A002400BF11E03E4800EBC40090ED82
:100F0000001BB0EE410AF0EE610A53EC102B51ECDD
:100F1000180BFEF78FFC00D202E0641C332CEBD3DD
:100F200000BF601E334901EBC00090ED002BB0EE16
:100F3000420AF0EE620A084600EBC40090ED002B76
:100F4000B0EE421AF0EE621A53EC102B51EC110B7A
:100F5000FEF765FB41EC1C0B601E264901EBC0004F
:100F600090ED001BB0EE410AF0EE610A53EC102B3D
:100F700051EC180BFEF753FB41EC1D0B53EC1C2BF3
:100F8000FEF7C5FB41EC1A0B601E1B4901EBC000CC
:100F900090ED002BB0EE420AF0EE620A084600EB3C
:100FA000C40090ED002BB0EE421AF0EE621A53EC42
:100FB000102B51EC110BFEF732FB41EC1B0B53ECE9
:100FC0001A2BFEF732FB41EC190B601E0A4901EBAC
:100FD000C00090ED001BB0EE410AF0EE610A53EC48
:100FE000102B51EC190BFEF779FA41EC100BBDEC0C
:100FF0000C8B10BD582C0020F02D002000B52DEDDD
:10100000088B81B0B0EE408A18EE100AFEF7FFFBA5
:1010100041EC1B0B9FED150B53EC102BFEF777FBF0
:1010200041EC1A0B9FED130B53EC102BFEF7FDFA5E
:1010300041EC190BFEF72EFC08EE900AF5EEC08A83
:10104000F1EE10FA03D1B7EE000AF0EE408A01206B
:101050000023BCEEE80A10EE102A1946009007485B
:1010600003F074FC01B0BDEC088B00BD0000000073
:1010700000005940000000000011D240008402002E
:1010800010B50446204601F0CFFE204600F0ECFAF1
:1010900010BD000070B52DED048B04460E460025F2
:1010A000B4F5A07F03D0B4F5A27F7DD103E01F206B
:1010B00003F037FDBFE062480068401C60490860EB
:1010C0001F2003F02EFD012003F0F6F95D48FFF725
:1010D000E7FC054695B101205B4908701F2003F02D
:1010E00020FD5A48FEF7C4F99FED590A594880ED92
:1010F000000A90ED000AFFF781FF9CE000205249B2
:1011000008709FED550B53EC102B4E4890ED000BE3
:1011100051EC100BFEF7A6FB0FD21F2003F001FDD0
:101120004A48FEF7A5F99FED4A0A4A4880ED000AB1
:1011300090ED000AFFF762FF7DE0494890ED000B5B
:1011400051EC100BFEF7A6FB08EE900A3D4890ED1F
:10115000000B51EC100BFEF79DFB00EE100A38EE71
:10116000C08AB9EE040AB4EEC08AF1EE10FA03D2D6
:101170009FED370AB0EE408A3448D0ED010A90ED79
:10118000031A60EE810A90ED001A41EE080A90ED14
:10119000021AD0ED041A41EE210A90ED051A70EE04
:1011A000810AB0EE600A00E044E0D0ED030AC0ED31
:1011B000040A80ED038A80ED050A00BF254880ED12
:1011C000000A0068FEF723FB41EC190B9FED250B8D
:1011D00053EC102BFEF746FB04D29FED240A1D486A
:1011E00080ED000A1B480068FEF711FB41EC190B6B
:1011F0009FED1F0B53EC102BFEF71CFB04D29FED51
:10120000140A144880ED000A12480068FEF7FFFA3D
:1012100041EC190B9FED160B53EC102BFEF722FB44
:1012200002D21F2003F093FC0A4890ED000AFFF75A
:10123000E5FE00E000BF00BFBDEC048B70BD000008
:101240004C2C0020882F0020A42F0020FC300020F0
:1012500000000000A02F00200000000000407F40A0
:10126000902F002000000000000059400000C842FC
:1012700000000000000000002DE9F04107460D4687
:1012800014461E46204600F0030109B9012100E082
:10129000002111B90720BDE8F0810CB90720FAE759
:1012A00005F0BEFB11480660002011490870487027
:1012B00008468570446000200E4908600E49087099
:1012C0000E4908701420FEF721FD07211420FEF7B7
:1012D00057FD1420FEF732FD384605F077FB05F088
:1012E0006FFB074908600020D5E70000843000202C
:1012F00068300020703000208030002081300020D5
:10130000743000202DE9F04104460E46174625466C
:1013100000BF1048406810B90820BDE8F08100BF48
:101320000CB90820F9E7052E01D20720F5E7686916
:1013300008B90820F1E7687C012801D1304600E0B7
:10134000002080463B4642463146284606F056FB82
:10135000E3E700006830002070B50446254600BF72
:101360000848406808B9082070BD00BF0CB1686922
:1013700008B90820F8E7002028740221284606F062
:101380006CFBF1E76830002070B500BF0023084A0D
:1013900005211846FFF770FF044600BF254625B11A
:1013A00000BF2846FFF76EFB00BF00BF00BF70BD47
:1013B0002031002010B50446204605F0D1FB10BDB9
:1013C00070B5044625460E488068B0B1ADB9FFF748
:1013D00009F806460A4800680A4908600848406853
:1013E0004FF0E021C1F804010020054988601EB9D2
:1013F00000BF62B600BF00BF00BF00BF70BD0000ED
:101400005839002000E100E0F8B505460C461746C3
:101410002088001DB84201D90C20F8BD684679DF4C
:10142000064600BF0EB13046F7E700BF0320218813
:1014300068542088401C2080192021886854208806
:10144000401C208020884119BDF8000006F0E3FC14
:101450002188084420800020DFE7000030B58BB0F1
:101460001348007800F0A8FA0546284605F0ACFBC2
:10147000D8B101A800F012FA142201A906A8FDF7BC
:10148000FCFF00240DE007A931F814000849097891
:1014900000F0A0FA20B107A931F8140002F0C4FD51
:1014A000641C0698A042EED800BF0BB030BD00000F
:1014B0000E30002010B50446637903F00302217951
:1014C000208802F081FC10BD10B50446207918B9BF
:1014D000204600F007F803E02046FFF7EBFF00BFCF
:1014E00000BF10BD2DE9F04188B0044600252088DA
:1014F00000F046FA0746208802F082F90646A06806
:101500000790607A0690208800222349097800F02D
:1015100073FA17B908B0BDE8F0816079C0F38000B4
:1015200090B10721304604F013F90546BDB10820FB
:101530008DF800002088ADF80200ADF80460029537
:10154000684601F0BFF90AE020881449097800F0E4
:1015500041FA20B1304602F03DF9804600BF032039
:101560008DF80C002088ADF80E006079C0F3800083
:101570008DF81000A079C0F380018DF811109DF84E
:101580001C108DF812109DF818108DF8131003A878
:1015900001F098F900BFBDE74E3000205030002028
:1015A0002DE9F04192B080460D461F201190109019
:1015B000B8F1000F17D04046FFF7CBF8044600BF44
:1015C0001CB1204612B0BDE8F08100BF11AA08A9E5
:1015D0004046FEF7CFFF044600BF0CB12046F1E7BE
:1015E00000BF08AE02E0002600201190ADB12846F1
:1015F00006F029F9044600BF0CB12046E2E700BF1F
:1016000010AA69462846FEF7B5FF044600BF0CB194
:101610002046D7E700BF6F4602E000270020109069
:10162000BDF84000C3B2BDF84400C1B23A463046EE
:1016300072DFC7E710B504462088102804D01128AF
:1016400006D01B280CD107E0204603F0ADFB08E0D4
:10165000204603F00DFC04E0204603F007FD00E007
:1016600000BF00BF10BD000070B50546022D02D0BE
:10167000032D15D100E000BF0B48007878B10020A1
:10168000094908700948007800F014F8044634B19C
:101690000748006818B1204605490968884700E0F6
:1016A00000BF00BF70BD0000D12F0020D32F00204D
:1016B000E82F00207FB505464D48007810B9082076
:1016C00004B070BD4B48057001F006FB20B101204D
:1016D000494908700020F3E74848002101608180F3
:1016E00081714748407818B14248007801280DD0F0
:1016F0004348807818B13F480078012806D0404818
:10170000807888B13B48007802280DD13D480068B8
:1017100038B101203C49087008203A4909688847D7
:1017200002E00020384908702846FEF7D9FF314909
:10173000087034480068C0B108460078032803D018
:1017400008460078042810D12D48007868B12F4849
:10175000007850B900202E49087001202D490870EA
:10176000072028490968884702E0002029490870B5
:10177000002000900190029003908DF800008DF8F9
:1017800008001C48007805281CD2DFE800F0170389
:10179000080D1200684605F0D5FC044613E06846C3
:1017A00005F0E0FC04460EE0684605F0F1FC044656
:1017B00009E0684605F01CFD044604E000201649D7
:1017C000087000E000BF00BF0A48007828B16846F2
:1017D00073DF04460CB1204672E70A48006820B166
:1017E0000D480078074909688847002068E700002D
:1017F000D02F0020D32F0020D12F0020D42F002065
:10180000DC320020E42F0020DB2F0020EC2F002012
:10181000EE2F0020ED2F0020D22F002070B50546BE
:101820000C4605B104B970BD2088102804D01128D9
:1018300007D050280FD109E02146284603F0B0FA1E
:101840000AE02146284603F00FFB05E02146284622
:1018500003F04EFC00E000BF00BF00BFE3E710B59F
:1018600004462088102806D0112808D012280ED04F
:10187000502810D107E0204603F076FA0CE020460D
:1018800003F0D2FA08E0204603F00CFC04E0204606
:1018900003F05EFA00E000BF00BF10BD10B50446C3
:1018A0000348027D011D204605F007FA10BD000027
:1018B000CC33002010B504460348C17D2246001DEC
:1018C00005F0E4F910BD0000CC33002010B504464B
:1018D0000348017E2246001D05F0D8F910BD000026
:1018E000CC33002070B504462088102804D011287D
:1018F0001DD01A2840D11EE004F0FCFFA08804F09F
:1019000083FE20B900BF0420FFF7BCF80EE0E07BA7
:10191000022801D1012000E000200546A2882B46C4
:101920001649A1F1120005F0E9F900BF24E0A088F2
:1019300005F002F820E0207A0121B1EB101F01DA56
:10194000012000E000200346A2880C49491CA1F1B7
:10195000130005F0D3F9207A0221B1EB101F01DA50
:10196000012000E000200346A2880449891CA1F15F
:10197000140005F0C3F900BF00BF70BDE2330020C2
:1019800070B5044600250B48017D2246001D05F078
:101990007DF960B10748817D2246001D05F076F98A
:1019A00006460EB1022000E00120054600BF284691
:1019B00070BD0000CC33002010B50446204606F070
:1019C0005DFA10B10248005D10BD0020FCE7000088
:1019D000E533002070B505460C46204606F04EFA69
:1019E00030B10448015D2A46153805F04FF970BD45
:1019F0000020FCE7E533002070B505460C4616468E
:101A0000204606F03BFA30B10348011933462A4616
:101A1000153805F073F970BDE53300202DE9FC4160
:101A200005460C46174620880930B84202D90C20DA
:101A3000BDE8FC8168466DDF064600BF0EB130464A
:101A4000F6E700BF0820218868542088401C2080C9
:101A50001B20218868542088401C2080208828442E
:101A6000DDF801100160BDF8051081802088801D1F
:101A700020809DF80000400818B900202188685493
:101A800002E00120218868542088401C208000202A
:101A9000CEE770B50446204606F0B7F9054605F0D6
:101AA000010070BD10B502460949885C00BF4FF0C7
:101AB000A0442146D1F80435012484409C43C1F858
:101AC0000845012484401C40C1F80C4500BF10BDEE
:101AD0005484020010B504460249085D012103F058
:101AE0004CF810BD5484020010B504460249085D4C
:101AF000002103F042F810BD5484020010B50146E5
:101B0000094B585C00BF4FF0A044234600BFD3F8F8
:101B10000445C44004F001040CB1012000E00020A1
:101B2000024682F0010010BD5484020010B500246A
:101B300003E02046FFF7CEFF641C042CF9D310BD50
:101B400010B5002403E02046FFF7CEFF641C042CF0
:101B5000F9D310BD02464FF0FF30002106E0054BDF
:101B60005B5C934201D1084602E0491C0429F6D38C
:101B700000BF70475884020070B5054628881028B9
:101B800002D011282CD115E01748006860B900F088
:101B900039FC044600BF34B11448006818B120462F
:101BA00012490968884700BF0F480068401C0E4969
:101BB000086016E00C480068401E0B4908600846A3
:101BC000006860B9FEF7CEFD044600BF34B1074897
:101BD000006818B1204605490968884700BF00E041
:101BE00000BF00BF70BD0000CC2F0020C82F002018
:101BF0002DE9F04106460F464FF00008002430461C
:101C0000FFF7A8FF0446042C41D227B3012F02D0CE
:101C1000022F3BD133E004EB4400234911F800804C
:101C200004EB44000844407868B12048006800EBA9
:101C3000800041001E4A1F480068FFF763FB05460D
:101C40000DB91B48067004EB44001749084480781E
:101C5000194908551AE017480068FFF77DFB164838
:101C6000005D04EB4401104A11448978884205D193
:101C700004EB44001146084490F8028006E004EBAF
:101C800044000949084490F8018000BF00BFB8F142
:101C9000000F06D00948006818B140460749096896
:101CA0008847BDE8F0810000B0320020B42F00204A
:101CB000C02F002064840200C12F0020BC2F002010
:101CC00030B503460020042B23D2012A07D1012975
:101CD00003D103F10E04E4B200E00024224679B1FE
:101CE000012902D0022911D104E003EB43040A4D7B
:101CF0002A550DE003EB4304074D2C44627007E0C6
:101D000003EB4304044D2C44A27001E0072000BF04
:101D100000E0072030BD0000B032002070B504465E
:101D200000250548007800F0010018B1204600F0B9
:101D300005F80546284670BDB82F00202DE9F04172
:101D4000044600260025C048007820B10020BE4986
:101D50000870FFF7EBFE182C75D2DFE804F00C11C9
:101D6000123D6895BFCDD3F0EEEDECEBEAE9E8E784
:101D7000E6E5E4E3E2E1FFF7D9FEB44804705FE191
:101D800000BF0020FFF7BAFE58B10020FFF7A2FE07
:101D9000022C02D14FF4E16001E04FF47A60054675
:101DA00009E00020FFF7A0FE022C01D1C82001E0CD
:101DB0004FF4C8700546A54804706420B5FBF0F0E8
:101DC000A349096800FB01F700223946A1480068D1
:101DD000FFF798FA064633E10020FFF78FFE58B16F
:101DE0000020FFF777FE032C02D14FF4487001E08A
:101DF0004FF47A60054609E00020FFF775FE032CDA
:101E000001D1C82001E04FF4C87005468F48047026
:101E10006420B5FBF0F08E49096800FB01F7002251
:101E200039468C480068FFF76DFA064608E1002045
:101E3000FFF764FE60B10020FFF74CFE042C03D1D5
:101E40004FF47A6002E0FAE04FF47A6005460AE067
:101E50000020FFF749FE042C02D14FF4C87001E0C6
:101E60004FF4C8700546794804706420B5FBF0F063
:101E70007749096800FB01F7002239467548006878
:101E8000FFF740FA0646DBE00020FFF737FE50B1CF
:101E90000020FFF71FFE052C01D1C82001E04FF400
:101EA0007A60054609E00020FFF71EFE052C01D1EF
:101EB000C82001E04FF4C8700546644804706420EF
:101EC000B5FBF0F06249096800FB01F700223946D2
:101ED00060480068FFF716FA0646B1E00020FFF7F9
:101EE000E1FD5A4804705A480022016859480068C8
:101EF000FFF708FA0646A3E00020FFF7F5FD534878
:101F000004709DE0012050490870FFF7CBFD504858
:101F1000002201684F480068FFF7F4F906468FE099
:101F200088E086E07AE071E068E062E03EE03CE074
:101F30003AE038E036E030E01FE010E0FFE7012053
:101F400041490870FFF7AEFD4148006800EB800191
:101F5000002240480068FFF7D5F9064670E00120EE
:101F600039490870FFF79EFD394800220168394859
:101F70000068FFF7C7F9064662E0012032490870A1
:101F8000FFF790FD3248006800EB800100223148E5
:101F90000068FFF7B7F9064652E0FFF7D1FD2B487E
:101FA00004704DE000BF00BF00BF00BF2A480068BA
:101FB000FFF7D2F90646C4F11105B5B1AEB9012D4E
:101FC0000FD9C82068436421B0FBF1F020490968AB
:101FD00000FB01F7002239461F480068FFF792F91D
:101FE00006460220FFF780FD02E00220FFF772FDA7
:101FF00026E0FFF79BFD1548047021E0FFF796FDF2
:102000000020FFF771FD1148047019E0FFF78EFD05
:102010000120FFF769FD0D48047011E0FFF786FD10
:102020000020FFF761FD0120FFF75EFD0748047007
:1020300006E000BFFFF784FD0448047000E000BF25
:1020400000BF3046BDE8F081B12F0020B02F002046
:10205000B42F00205C84020060840200014688796D
:10206000012809D10879012806D1488842F60212D0
:10207000904201D1012070470020FCE70146024850
:1020800050F82100704700005838002001460148F0
:102090004056704788380020014639B104488842CC
:1020A00004D80448884201D9012070470020FCE789
:1020B000C4300020D430002070B505460E46002400
:1020C00007E055F8340001F015FD08B9002070BD97
:1020D000641CB442F5D30120F9E700000A49496CB9
:1020E00081B10949096C084A02EBC101016011463E
:1020F00091F84010491C01F0070111641146496C28
:10210000491E516470470000FC39002006490268EE
:102110008A4203D0016808310160704702493839AA
:10212000016000BFF9E70000343A0020017802297D
:1021300002D0017803290BD106490A6C817D114434
:10214000044A116411464A6C817D511A014A516456
:1021500070470000FC3900202DE9F04104460D468F
:102160004FF6FF76304684420AD14FF480712846FC
:1021700003F006FF0646B6F5807F0FD126460DE038
:10218000FF2C0BDC2146284603F0EAFE07460FB180
:10219000204601E04FF6FF70064600BF3046BDE81E
:1021A000F081000070B505460DB9094C01E0084CFE
:1021B000083409E0204601F0A5FC064606B904E013
:1021C00028467168884700BFF4E700BF70BD000073
:1021D0004C3800202DE9F04782461F48006800284F
:1021E00036D01D480068056804F0EAFB07461B4826
:1021F00004682146384605F046FBC61C184800789E
:1022000008B904F0EFFBAE4201D2284600E03046A8
:10221000044424F07F44204604F0CCFB04F0D0FBBF
:1022200080463946404605F02EFB00F10309394649
:10223000204605F028FB814509D904F0C1FB814601
:1022400004F0B8FB2F2002F083F905F073FC01E0E5
:1022500004F0E6FBBDE8F087703000207430002009
:102260008830002001460888062808DB0888B0F579
:10227000486F06DD08884FF6FF72904201D00720B4
:1022800070474888062808DB4888B0F5486F06DDA7
:1022900048884FF6FF72904201D00720F0E7088887
:1022A0004FF6FF72904208D04888904205D00888C7
:1022B0004A88904201DD0720E2E70020E0E72DE9AF
:1022C000F04106460D46144698462088801D40453C
:1022D00002D90C20BDE8F0813046FFF7C3FF074666
:1022E00000BF0FB13846F5E700BF052021886854CC
:1022F0002088401C20801220218868542088401C9F
:10230000208022885119308805F085FD21880844F5
:10231000208022885119708805F07DFD21880844AD
:1023200020800020D6E7000038B51B4801F0C4FB30
:1023300020BB1A48007848B119484069E8B100202C
:102340000090174841696846884716E015480078AC
:1023500010B91348456801E01148856800222946F4
:1023600011480068FEF7CEFF044634B10C4880697E
:1023700018B10B4881692046884709E00848406940
:1023800030B101200090064841696846884700BF87
:1023900000200249087038BDFC2F002004300020C6
:1023A00090330020F82F0020888402003EB50446B8
:1023B0002088FFF77FFAD0B1208810490978FFF70D
:1023C00009FB28B9208800220D490978FFF714FB82
:1023D0002088ADF8020005208DF800002088FFF766
:1023E00075FA8DF80400684600F06CFA05E0208864
:1023F000012241F2060100F097F83EBD4F30002067
:102400004E30002010B5012200210846FFF758FC8D
:10241000044600BF1CB1072C01D0204610BD00BFF0
:10242000072202210120FFF74BFC044600BF1CB12C
:10243000072C01D02046F1E700BF04220221002032
:10244000FFF73EFC044600BF1CB1072C01D020461C
:10245000E4E700BF0020E1E770B506460D460EB187
:10246000012070BD287920B1012809D0022813D19C
:102470000FE0284604F032F90446022028710DE0EE
:10248000284600F06FFB04460A2C01D141F61D548A
:1024900004E041F61D5401E00F2400BF00BF2046B8
:1024A000DFE770B5044620793D2802D141F23D00B6
:1024B00001E04FF48850054620880022294601F0AB
:1024C00083FC70BD014614480078144A127890428B
:1024D0001DD011480078401C0F4A1070104600783B
:1024E000022801D1002010700D480B4A127850F8D4
:1024F000220008600B4A086812681044094A1060FC
:102500001046006820F07F401060012070470020D6
:10251000086000BFFAE70000803000208130002012
:102520007830002074300020FEB504460D46164673
:10253000094A07CA8DE80700ADF80240ADF804501B
:102540008DF806600022054801782046FFF754FA0E
:10255000684600F0B7F9FEBDFC8402004E30002052
:1025600010B50446A08928DF10BD0000134800788C
:10257000062820D11148001D007800F00F00D0B9C6
:102580000E480830007800F0F000302801D101201A
:1025900070470A480830007800F0F000402801D168
:1025A0000120F5E705480830007800F0F0005028D9
:1025B00001D10120ECE70020EAE70000E00F00F085
:1025C0000A48007806280ED10848001D007800F05F
:1025D0000F0040B905480830007800F0F0003028BE
:1025E00001D1012070470020FCE70000E00F00F05F
:1025F00013480078062820D11148001D007800F00B
:102600000F00D0B90E480830007800F0F0003028F4
:1026100001D1012070470A480830007800F0F0002E
:10262000402801D10120F5E705480830007800F086
:10263000F000502801D10120ECE70020EAE700007B
:10264000E00F00F00A48007806280ED10848001D67
:10265000007800F00F0040B905480830007800F01D
:10266000F000302801D1012070470020FCE7000075
:10267000E00F00F013480078062820D11148001D13
:10268000007800F00F00D0B90E480830007800F054
:10269000F000302801D1012070470A480830007846
:1026A00000F0F000402801D10120F5E7054808308E
:1026B000007800F0F000502801D10120ECE7002064
:1026C000EAE70000E00F00F00A48007806280ED183
:1026D0000848001D007800F00F0040B90548083098
:1026E000007800F0F000302801D101207047002070
:1026F000FCE70000E00F00F00A48007806280ED141
:102700000848001D007800F00F0040B90548083067
:10271000007800F0F000302801D10120704700203F
:10272000FCE70000E00F00F00A48007806280ED110
:102730000848001D007800F00F0040B90548083037
:10274000007800F0F000502801D1012070470020EF
:10275000FCE70000E00F00F00278072A34D2DFE83F
:1027600002F0330407102029300000220A702CE008
:1027700001220A7003898B818388CB81C2688A60B9
:1027800023E002220A7003898B818388CB81C2688F
:102790008A60027C062A01D1012300E000230B7429
:1027A00013E003220A70C3888B810389CB81C2683E
:1027B0008A600AE004220A70C3888B810023CB81DF
:1027C00003E005220A7000E000BF00BF7047000070
:1027D00070B50546002409E0064850F8240020B1F1
:1027E000044850F8241028468847641C082CF3D36A
:1027F00070BD0000643900203EB505460C46DCB1D2
:10280000112C19D00020009001900290ADF80250D8
:1028100001940D2C03D10B208DF8000008E0862CCC
:1028200003D10A208DF8000002E009208DF8000095
:10283000684600F057F800BF3EBD000070B5054681
:10284000002405E0044850F8241028468847641CFA
:10285000002CF7D070BD00000830002070B5054690
:10286000002405E0044850F8241028468847641CDA
:10287000002CF7D070BD00001430002070B5054664
:10288000002405E0044850F8241028468847641CBA
:10289000022CF7D370BD0000A484020070B5054679
:1028A000002405E0054850F8241028468847641C99
:1028B000034800788442F5DB70BD0000E03700205B
:1028C0004A30002070B50546002405E0044850F861
:1028D000241028468847641C022CF7D370BD0000E2
:1028E000C484020070B50546002405E0044850F891
:1028F000241028468847641C002CF7D070BD0000C7
:1029000008850200F0B5034600241FE0124E30682F
:1029100006689E4203D90668F61A06601AE0066841
:102920009B1B06683444002606600B4E35680A4F30
:10293000C6693E60C66846B10E1926F07F464660FD
:10294000C66886601668C661156000BF02480068E8
:102950000028DBD100BFF0BD7030002010B588B07A
:102960000446022000F03AF910B9022008B010BD68
:102970004FF6FF70844201D10420F7E705208DF85F
:10298000040001208DF80800ADF80A40002211462D
:1029900001A802F0CDFB18B103F014FE0020E5E71A
:1029A0000820E3E738B504460CB9052038BD694670
:1029B000204603F0B7FEE0B10F48BDF8001000EB71
:1029C00001108089002812DDA07A80B10A48BDF884
:1029D000001000EB01108089401E0749BDF800205F
:1029E00001EB021188810020A072002502E006257B
:1029F00000E00A252846D9E7443A00207FB514466E
:102A00001D462B46224601A9684603F023FE04B06A
:102A100070BD37B50C4615462B4622466946002048
:102A200003F018FE3EBD37B50C4615462B46224630
:102A30000021684603F00EFE3EBD024602B109B910
:102A400005207047106808600020FAE738B5044692
:102A50000D4604B10DB9052038BD6946204603F086
:102A600061FEA8B161680B48BDF8002000EB0210C0
:102A70008089401C074ABDF8003002EB03129081A8
:102A8000296060680C3068600120A0720020E3E7D4
:102A90000A20E1E7443A002070B504460D460CB91F
:102AA000052070BD032300222946204605F046FB81
:102AB000F7E770B504460D4602230022294620465A
:102AC00005F03CFB70BD70B505460E4614460CB9CA
:102AD000052070BD022322463146284605F02EFB14
:102AE000F7E7F8B504460D46022000F077F808B97C
:102AF0000220F8BD0CB90520FBE76946284605F021
:102B000009FC06461EB9BDF80000208065803046ED
:102B1000EFE7000070B50446022000F05FF808B946
:102B2000022070BD0CB90520FBE72088022801DDDA
:102B30000420F6E720880A4901EB001671896088B5
:102B4000C01C081A08D42188608805F0D5FB002035
:102B500020806080002500E004252846E1E7000091
:102B6000443A00203EB504460C4B6A460021A01DA5
:102B700003F070FD05465DB9019803F041FE05467E
:102B8000012006498988064A02EB0111887303E097
:102B9000024800210160416028463EBD9C30002073
:102BA000443A00200146A1F5404080B2704710B57C
:102BB0000446A07EFF2802D0A07E01F0D3FF0020B3
:102BC00060762071201D2168884710BD0249097870
:102BD0008143014A117070478C300020014604483F
:102BE0000078084008B1012070470020FCE7000091
:102BF0008C300020024909780143014A1170704766
:102C00008C30002030B504461088C01C984201D991
:102C10000C2030BD0220158848551088401C1080BB
:102C20000120158848551088401C108015884C5587
:102C30001088401C10800020EBE700002DE9F041D7
:102C400006460C4615460027B846862C03D0112CA4
:102C500001D0002C35D1862C03D14FF0000801277C
:102C600009E0112C03D14FF00108002703E014B94B
:102C70004FF000080027C5B13A46134801783046A6
:102C8000FEF7BAFE4246114801783046FEF7B4FE20
:102C900000220F4801783046FEF7AEFE00220D48B4
:102CA00001783046FEF7A8FE0BE03A460848017866
:102CB0003046FEF7A1FE4246064801783046FEF750
:102CC0009BFEBDE8F08100006530002064300020EC
:102CD000613000206030002008B5684600F04EF8F2
:102CE000009808B1012008BD0020FCE7F8B50546B2
:102CF0000C4616461F461C48007800F0010008B933
:102D00000120F8BD2846FFF7C7F908B90220F8E707
:102D10000CB90320F5E7C4F30B0008B10620F0E777
:102D20002868A04204D804EB06306968884201D9BB
:102D30000520E6E70EB90420E3E7684603F086FBCA
:102D400008B90720DDE70098476000980560022079
:102D500000990872C4F30F300099888100980682A8
:102D600003F03CFC0020CCE7A430002070B5054601
:102D70000C46204603F09EFB70BD0000014609B9D9
:102D8000032070470248406E08600020F9E7000009
:102D9000803A00202DE9F84305460C4616461F46AA
:102DA000DDF820801F48007800F0010010B90120F4
:102DB000BDE8F8832846FFF76FF908B90220F7E766
:102DC00006B10CB90320F3E706F0030010B904F0D4
:102DD000030008B10620EBE72868A04204D804EB02
:102DE00087016868884201D20520E1E70FB9042015
:102DF000DEE7684603F02AFB08B90720D8E7009809
:102E0000C0F80480009805600120009908720098BD
:102E1000C660009804610098878203F0DFFB002001
:102E2000C6E70000A430002070B504461748006EC5
:102E300000EB4000154901EBC0051548007800F093
:102E4000020068B1022C02D0032C08D103E028460E
:102E500002F0D0F803E0284602F0B6F800BF12E016
:102E60000B48007800F0040068B10948007820F0B1
:102E70000400074908700548406E20B108460078F4
:102E800040F00200087003F067FB70BD803A00203C
:102E9000A430002070B505460DB1012070BD184862
:102EA000007B18B100201649087301E000F0D4F847
:102EB0001348007808281DD2DFE800F01C04080C35
:102EC000101C141800F03CF8044615E000F0B2F8AD
:102ED000044611E000F08EF804460DE000F044F8DE
:102EE000044609E000F01CF9044605E000F028F96A
:102EF000044601E00F2400BF00BF2046CEE70000DB
:102F0000643A00200C480089401C0B4908810020CD
:102F10004880087300BF0CE0084901EB00110978F4
:102F200009B9012200E0002203490A310A54411C78
:102F300088B20228F0DB7047643A0020443A00204F
:102F400010B5084800F032F840B900200549891E44
:102F500008704880486041F61D5010BD00F06AF8C6
:102F6000FBE70000663A002070B50D4845880D4823
:102F700000EB0510808968B90A4800EB05100023B2
:102F8000012241680848FFF7B1FE044604200449C5
:102F9000087002E000F08CF80446204670BD000086
:102FA000643A0020443A0020C430002010B50146A5
:102FB0000022002015E00D4B1B5C83B100240B4B5D
:102FC0001C540B4B03EB00139B8943B9084B03EBD9
:102FD00000139B7B012B02D10880012203E0431CDC
:102FE00098B20228E7DB00BF104610BD6E3A002001
:102FF000443A0020F8B50C4844680C4800680B4976
:10300000898800EB81056088C01C86B203200649D0
:10301000087000200090084633462946426804485C
:10302000FFF7B8FEF8BD0000643A0020943000209D
:10303000C430002010B507494888091D03F0B0FBD3
:1030400018B1FFF7D7FF044602E0FFF78DFF0446F3
:10305000204610BD643A002010B5144800780828B6
:1030600020D2DFE800F0041F1F0A1016171BFFF71D
:1030700049FF01200D49087015E000F06DF80220AD
:103080000A4908700FE000F029F806200749087087
:1030900009E000BF07200549087004E0012003494A
:1030A000087000E000BF00BF10BD0000643A0020BF
:1030B00010B5052006490870022006498880084698
:1030C0000023012201680448FFF710FE10BD000034
:1030D000643A002094300020C43000200D49086874
:1030E0000D4949880D4A02EB01114968094A1160EE
:1030F00009494988094A02EB011148600549898854
:10310000054A5288054B03EB021211810221014A44
:103110009180704794300020643A0020443A0020A7
:1031200010B50620044908704988044A02EB0111D1
:10313000486802F08FF810BD643A0020443A00203D
:1031400010B50720034908700020486002F092F88B
:1031500010BD0000643A0020054A50684288D21C25
:1031600091B2044A92880A44024B9A807047000048
:10317000643A0020943000203EB504462088502850
:1031800021D0522802D0542825D103E0A08800F095
:103190004BFF20E006208DF80000A08800F030FBF7
:1031A000ADF80200A088ADF80400BDF8020000F000
:1031B000B5F8A08800220C490978FEF71DFC684686
:1031C000FFF73CFB07E0A01DFEF748FF10B1A08809
:1031D00000F07AFF00BF00BFFEF740F904F022FEC6
:1031E00003F0AAFE3EBD00000F3000203EB50446AD
:1031F0006088ADF80200207820B101280FD00228A5
:103200002BD116E000208DF800006846FFF716FB72
:10321000608800F035FA054600F006FF1DE0012049
:103220008DF80000A088ADF804006846FFF706FBA3
:1032300013E0207980B1608800F022FA05464FF64D
:10324000FF70854207D00122054801782846FEF725
:10325000D3FB03F071FE00BF00BF00BF3EBD000006
:103260000F30002010B50446207801280DD1608869
:1032700000F0DAFE608800F01FF928B160880122B2
:1032800003490978FEF7B8FB00E000BF00BF10BD9E
:103290000F30002010B504462078072803D160883D
:1032A00000F012FF00E000BF00BF10BD10B50446E3
:1032B0000B4801782046FEF78DFB70B100210AE033
:1032C00001EB4100074A02EB80004088A04201D197
:1032D000C8B210BD491C0829F2D3FF20F9E700004D
:1032E0001F3000200034002010B500240DE004EB56
:1032F0004401084A02EB8101488807490978FEF732
:1033000069FB08B9E0B210BD641C082CEFD3FF20A4
:10331000F9E70000003400201F3000201CB50446EF
:10332000044903C9CDE9000100226946204602F0A4
:103330004EF91CBD9C8402002DE9FC47814648469D
:1033400000F05EFA0546002600274FF003084FF014
:10335000010A4FF6FF7085420CD06A4608212846C4
:1033600002F0FEF804462CB90198861D8788D0F833
:10337000008000BF00BF43463A4631464846A9DFB9
:103380000446042C01D1112415E0082C01D100249D
:1033900011E00B2C0FD14FF0000A08F0020010B121
:1033A0004FF0010807E006B927B1002600274FF0CB
:1033B000030800E003240B2CDDD0BAF1000F00D18C
:1033C0000B242046BDE8FC872DE9FC47804640469B
:1033D00000F016FA07464FF6FF70874203D143F21A
:1033E0000200BDE8FC874FF001094FF0000A00BF62
:1033F0004FF0000A4A46511C1FFA81F96B4608211A
:10340000384602F0EFF8044604BB019D0320286013
:103410002A1DA91D40462B68AADF04462CB90821A5
:10342000384602F095F904460FE00C2C02D14FF01B
:10343000010A02E0052C00D100240821384602F0E0
:103440006BF9064606B1032400BF02E0072C00D149
:103450000C24BAF1000FCBD100BF2046C1E7000019
:103460007FB50446207801281BD12079012818D186
:10347000608802AA012102F073F8054685B902208E
:103480008DF800006088ADF8020003A808B10120A3
:1034900000E000208DF804006846FFF7DFF900BF68
:1034A00000BF044800884FF6FF71884201D003F046
:1034B00079FD7FBD1A3000207CB50446204600F01F
:1034C0009FF906466A460121304602F049F8054652
:1034D0000DB100207CBD01980078FBE770B5054672
:1034E0004FF6FF7600BF4FF6FF720A480188284664
:1034F000A7DF044643F20300844204D10548008854
:10350000401C0449088043F203008442EBD020466B
:1035100070BD00001C300020014688884FF6FF7205
:10352000904203D0088808B1012070470020FCE7D2
:103530003EB504460D4620780221B1EB500F01D074
:1035400000203EBDB4F80100ADF80800E0788DF829
:103550000A00A188ADF80010A0798DF8020001AA38
:1035600069462846FDF728F9032201A902A8FBF7BE
:10357000A8FF08B90120E4E70020E2E770B506469D
:103580000C463046FFF792FE0546FF2D0CD005EBAA
:103590004500064901EB8000416821600189A18056
:1035A000807AA071002070BD0520FCE70034002067
:1035B00070B590B004462088102801D010B070BDBE
:1035C0003422211D03A8FBF758FF4FF6FF759DF825
:1035D00010000321B1EB500F35D002F0C1F99DF876
:1035E0001000400820B1012803D0022828D114E09F
:1035F00000BF09E0019800F1110104A8FCF7F8FEF2
:1036000010B1BDF8085006E06A4602A9072002F092
:1036100079F90028EED100BF13E008E00198411CC1
:1036200004A8FFF785FF10B1BDF8085006E06A4610
:1036300002A9072002F066F90028EFD100BF00E0E0
:1036400000BF00BF00BFBDF80C0004A900F074FE6D
:1036500006464FF6FF7085420FD0BDF80C00294694
:1036600000F072F8BDF80C00ADF8060001208DF8EE
:10367000040001A8FFF702F900BF00BF9EE70000A9
:10368000024600210DE001EB4100084B33F8200019
:10369000904205D101EB410003EB80004088704768
:1036A000491C0829EFD34FF6FF70F8E700340020DB
:1036B0002DE9F04104460D46601C00F00FFA10B9E8
:1036C0000020BDE8F0811022691C601CFBF7F9FEA8
:1036D00008B9012000E00020074605F1110104F1BE
:1036E0001100FCF785FE064607B90EB10120E8E798
:1036F0000020E6E70246108808B10120704700214B
:1037000005E0901C405C08B10120F7E7491C08293E
:10371000F7D30020F2E770B505460C462846FFF7C0
:10372000E9FF08B9002070BD28882188884201D0AF
:103730000020F8E70822A11CA81CFBF7C2FE08B96C
:103740000120F0E70020EEE770B504460D4629465B
:10375000204602F005FB70BD30B587B004462078E6
:1037600010B92079072801D007B030BD608804AABD
:10377000072101F0F5FE054605B1F5E702F0F0F886
:103780001EE06088BDF81810884200D118E0039947
:103790000598FFF78DFF90B16088FFF771FFADF8D6
:1037A000020000208DF800006088ADF80400BDF82C
:1037B0001810ADF806106846FFF760F807E000BF84
:1037C00002AA06A9072002F09DF80028D9D100BF5F
:1037D00000BFC9E770B506463046FFF751FF044603
:1037E000304601F0C8FE05464FF6FF70844204D013
:1037F0001DB90146204602F0B3FA284670BD00000C
:1038000070B505462846FFF751FD0446FF2C05D04C
:1038100004EB4400034931F8200070BD4FF6FF70FF
:10382000FBE70000003400203EB5044602F098F8A3
:1038300010E0019800F146012046FFF76CFF30B917
:10384000019800F12A012046FFF765FF10B1BDF88D
:1038500008003EBD6A4602A9072002F053F800287E
:10386000E7D14FF6FF70F4E72DE9F04106460C462C
:103870000F272EB10120FFF7A9F90120BDE8F08143
:10388000207930B101280AD0022833D0032864D12E
:103890003EE001F0EFFC0746012020715EE04FF0B2
:1038A0000008002516E0324800EB051000780228D9
:1038B0000ED12F4901EB0511486801F0CBFC0746FA
:1038C00000202B4901EB051108704FF0010803E0BF
:1038D000681C85B2022DE6DB00BFB8F1000F08D1ED
:1038E0000220FFF787F90120FFF770F941F61D501C
:1038F000C4E733E01F480023012201681E48FFF798
:10390000F5F9074602201B4988800020207125E038
:103910001849086801F09EFC074618484588154874
:10392000D0F80080124800EB05104068114908608B
:103930000F4800EB0510C0F80480084680880C4949
:1039400001EB0511088102200A49888000200849FE
:1039500001EB05110870207100E000BF00BF27B126
:103960000120FFF733F90E2088E7002086E70000EA
:10397000443A002094300020C4300020643A0020F3
:10398000F8B52748007800B9F8BD0025254800683B
:1039900008B9012000E00020064600BFDDB922483A
:1039A000007800B1F0E7684648DF0446052C01D1F5
:1039B00001250FE024B100BF2046FDF763F809E0C0
:1039C000009800F05FFE1948006818B11749009888
:1039D0000968884700BFDEB91348007800B1D3E713
:1039E00013480088009069461248006861DF044669
:1039F000052C01D101260AE024B100BF2046FDF7C5
:103A000041F804E00B48006806490968884700BF90
:103A10000DB106B100E0C1E700BF00BFB4E7000090
:103A2000AC300020B8300020AD300020BC30002089
:103A3000B4300020B03000202DE9F04704460E4697
:103A40009046002722E0384601F023F90546384623
:103A500001F026F981462046294642580AB1012242
:103A600000E0002282B14846D4F80413014009B1B5
:103A7000012100E0002139B12946204601F015F965
:103A80002846D6E900219047781CC7B24745DADBC3
:103A9000BDE8F08770B505460C464FF48C7128469A
:103AA00001F0E0F838B14FF48C71284601F0E1F8EC
:103AB0002046FFF77CF870BD01464888064A128808
:103AC000904206DB4888044A5288904201DC01207B
:103AD00070470020FCE70000F02F00200246002184
:103AE00004E0505C08B101207047491C1029F8D34C
:103AF0000020F9E7014601F0030008B901207047F2
:103B00000020FCE70146086808B102680A607047B7
:103B10002DE9F04107460D4690461E462DB929482D
:103B2000007810B90520BDE8F08135B1424600218A
:103B3000384603F047FC044605E042462249384631
:103B400003F040FC0446002221463846FFF776F891
:103B50001EB121463846FEF74FFE112C0DD005DC74
:103B600034B3082C27D00D2C26D122E0862C12D07D
:103B7000A4F540500238F8B91CE02A4613480178F1
:103B80003846FDF739FF4246114801783846FDF7BF
:103B900033FF002412E02A460C4801783846FDF72E
:103BA0002BFF42460A4801783846FDF725FF05E01D
:103BB00000BF00BF00BF01E0032400BF00BF2046DC
:103BC000B1E700005A30002055300020633000205B
:103BD000623000202DE9FC4107460E46904626B98A
:103BE000002138467EDFBDE8FC81307800F001001E
:103BF00008B1012000E0022001903846FFF700FEE6
:103C000005464FF6FF70854209D001A82B46424673
:103C100031460090384600F024F8044619E0307828
:103C200000F0010028B13146384600F08EF8044615
:103C30000FE0314638467EDF0446002000900CB984
:103C4000012000E00020024601232946384603F007
:103C5000DBF824B99DF80410384603F01DF920461E
:103C6000C1E72DE9FF4F85B00F4690461E46DDF8AF
:103C700048900025AA4603AA0721304601F070FCAF
:103C800004466CB9049800F11805049890F84400B3
:103C900000F0010ABAF1000F02D0049800F13405D7
:103CA000B8F1000F13D194B98DB1BAF1000F04D15E
:103CB00005F11200FFF71EFD48B12A4605F1120179
:103CC000059885DF0446002089F8000027E00CB144
:103CD000052C24D10024387800F0010060B101AB3C
:103CE00001220721304601F07DFC044624B907215A
:103CF000304601F0AFFD04461CB9394605987EDF19
:103D0000044664B10721304601F006FD8346BBF14D
:103D1000000F03D0BBF1050F00D0032400BF00202B
:103D2000009099F8000008B1012000E0002003464F
:103D30000CB9012000E0002002463146059803F04E
:103D400063F8204609B0BDE8F08F2DE9FE43074631
:103D5000884601F001FC05464FF6FF7085421CD0F5
:103D600001AB01220721284601F03CFC044624B99E
:103D70000721284601F06EFD04461CB9414638462D
:103D80007EDF044654B10721284601F0C5FC0646F3
:103D900016B1052E00D0032400E003244FF6FF7077
:103DA000854201D0012000E0002000900CB90120E4
:103DB00000E00020024601232946384603F024F89B
:103DC0002046BDE8FE8300002DE9F04107460C4681
:103DD0001546114801783846FDF7FCFDD0B138464C
:103DE000FFF70EFD06464FF6FF70864211D00B48D6
:103DF00001783846FDF7EEFD30B12B4622463146BC
:103E0000384601F049FA04E02A4621463846FEF7D2
:103E10008BFB00BFBDE8F0814E3000204F3000200A
:103E20002DE9F04786B005462846FDF7C5FD8046DA
:103E3000404602F0CFFE58B301A8FDF72FFD002445
:103E400022E002A931F814002946FDF7C3FD064619
:103E5000CEB102A931F814000F490978FDF7BAFD77
:103E6000814602A931F814000C490978FDF7B2FD2A
:103E7000824602A931F8140001234A465146FFF751
:103E800047FE074600BF641C0198A042D9D800BF76
:103E900006B0BDE8F08700006230002063300020EB
:103EA00070B504460D46294620467EDF064630465C
:103EB00070BD000070B51C4804781C48066827E0F7
:103EC0001948406804EB440100EBC105601CC4B212
:103ED00015488078A04200D100242878022802D01A
:103EE000032812D103E0686803F052FD0EE007E0FA
:103EF0000E490868002101740C4AC169116000BFB5
:103F00000A4800680028F3D100E000BF00BF00BFEE
:103F100005484078A042D3D104480068B04201D09F
:103F2000012070BD0020FCE76830002070300020C8
:103F30002DE9F0410546374807685AE015B12C468F
:103F4000E56929E034494968334A127802EB4202B4
:103F500001EBC20030490978491C2F4A1170114603
:103F600009789278914202D100212B4A117044685D
:103F70000178012901D1217C01B13AE081686160B9
:103F8000C168A1600169E1604169A16123490978C3
:103F900009B10021616000BF214960680968401AC9
:103FA00020F07F401F49884208D21D496068096897
:103FB00003F069FCA168084420600FE018486168BC
:103FC000006803F060FC0646A068B04203D9A06810
:103FD000801B206001E00020206000BF00206060A6
:103FE000A060012020740020E061204603F09CFCCA
:103FF00000BF002DA2D108480078074949788842BF
:104000009CD104480068B84202D00120BDE8F0818C
:104010000020FBE77030002068300020893000204D
:1040200074300020FFFF7F00FEB5044600264FF6E7
:10403000FF70844200D1FEBD2046FFF77DF90546A2
:1040400045B10B2D16D0112D12D0A5F540500238D8
:10405000F8B91DE002208DF800002046FFF7D0FBE4
:10406000ADF80200ADF804406846FEF7E7FB1FE03C
:1040700001261DE003208DF800002046FFF7C0FB5D
:10408000ADF80200ADF804406846FEF7D7FB0FE03C
:104090000EE009208DF800002046FFF7B1FBADF8D7
:1040A0000200ADF8044002956846FEF7C7FB00BF6A
:1040B00000BF3246034801782046FDF79DFC00BF53
:1040C000B9E700000E300020FEB504460026204669
:1040D000FFF77AF90546112D1AD003DC4DB10C2DEE
:1040E00034D117E0862D23D0A5F54050023868BBA7
:1040F0000DE001208DF80000ADF804402046FFF7E8
:104100007FFBADF802006846FEF798FB2DE02CE03F
:1041100001262AE007208DF80000ADF80440204673
:10412000FFF76EFBADF802006846FEF787FB1CE068
:1041300008208DF80000ADF804402046FFF760FB32
:10414000ADF802006846FEF779FB0EE009208DF815
:1041500000002046FFF754FBADF80200ADF8044024
:1041600002956846FEF76AFB00BF00BF324603486F
:1041700001782046FDF740FCFEBD00000D30002018
:10418000F8B504460D4600262078284080B9002066
:1041900000906846FDF70EF92078284018B920787D
:1041A0002843207001269DF80000FDF709F900BFA3
:1041B0003046F8BDFDF7E8F8FCF7DAFBFCF720FD28
:1041C000B3EE0E0A0A4880ED060AB7EE000A80ED4B
:1041D000070A9FED080A80ED080A0121FBF72CF978
:1041E000054800F0A1FB054800F09EFB00BFFEE77C
:1041F000FC300020EC51B83E00840200088402002C
:104200002DE9F04105460E4614469846A888871CBD
:104210002088801C3844404502D90C20BDE8F0813C
:10422000FE2F01D90C20F9E7781C218870542088D2
:10423000401C2080FF20218870542088401C208052
:1042400022889119288803F0E6FD218808442080FF
:10425000A88800280DDDA86808B90720DEE7AA882D
:1042600023889819A968FBF708F92088A9880844C9
:1042700020800020D2E72DE9F84F05460F4614466E
:1042800098462878012804D1687810B90720BDE83D
:10429000F88F2088801C404508D82878012807D14D
:1042A0002088801C69780844404501D90C20EEE73D
:1042B0002088A8EB0000801E86B200962188891C09
:1042C000C81969467DDF814600BFB9F1000F01D0F2
:1042D0004846DCE700BF2878022806D1BDF8000078
:1042E000B04202DC4FF0090A0BE04FF0080A2878D0
:1042F000012805D16878B04202DC6878009000E0BF
:104300000096BDF80000FE2801D90C20BFE7BDF8DB
:104310000000401C218878542088401C2080208880
:1043200007F800A02088401C20802088BDF80010DD
:10433000084420800020AAE770B505460E46FF24F9
:1043400066B34FF6FF70854228D0012214480178E9
:104350002846FDF751FB2846FEF7A8FF0446FF2C30
:1043600002D1FEF7C1FF0446FF2C17D004EB440036
:104370000C4901EB800045804FF6FF7004EB4401CF
:10438000084A22F8210004EB4400114601EB8000AA
:1043900031684160B1880181B1798172204670BD78
:1043A0001F3000200034002070B505460E464FF641
:1043B000FF70854201D1002000E0681C84B208E053
:1043C0002146304601F0F4FD08B1204670BD601C66
:1043D00084B2FF2CF4DD4FF6FF70F7E730B50246EC
:1043E0000B46D40802F00702012090401D5D2840D2
:1043F00030BD2DE9F04105460E46B488012C01DBA5
:10440000BDE8F0813088042815D0102804D03A285F
:1044100007D0552814D109E03146284600F0CEFCDB
:104420000FE03146284600F08EFD0AE0314628466E
:1044300000F03CFD05E03146284600F0F1FC00E0CC
:1044400000BF00BF04EB4401281D00EB41000079D0
:10445000C0B1002104EB4402281D00EB42000171B1
:1044600004EB4402281D30F8121020469EDF074658
:10447000112F06D1012104EB4402281D00EB42005C
:10448000017100BF00BFBBE701464FF080404058BC
:1044900008B1012070470020FCE708B500224FF06A
:1044A00080410A500958009100BF08BD01490860C9
:1044B000704700000803004000B9704700BF00BF0C
:1044C00000BF00BF00BF00BF00BF00BF00BF1E494C
:1044D00009681E4A914200D130E000BF00BF00BF12
:1044E00000BF00BF00BF00BF00BF00BF00BF00BFD4
:1044F00000BF00BF00BF00BF00BF00BF00BF00BFC4
:1045000000BF00BF00BF00BF00BF00BF00BF00BFB3
:1045100000BF00BF00BF00BF00BF00BF00BF00BFA3
:1045200000BF00BF00BF00BF00BF00BF00BF00BF93
:1045300000BF00BF00BF00BF00BF00BF401E00D0D3
:10454000BDE700BFB9E70000C03000200024F40040
:1045500000B9704700BF00BF00BF00BF00BF00BF71
:1045600000BF00BF00BF1E4909681E4A914200D12A
:1045700030E000BF00BF00BF00BF00BF00BF00BFF2
:1045800000BF00BF00BF00BF00BF00BF00BF00BF33
:1045900000BF00BF00BF00BF00BF00BF00BF00BF23
:1045A00000BF00BF00BF00BF00BF00BF00BF00BF13
:1045B00000BF00BF00BF00BF00BF00BF00BF00BF03
:1045C00000BF00BF00BF00BF00BF00BF00BF00BFF3
:1045D00000BF00BF401E00D0BDE700BFB9E700002C
:1045E000C03000200024F40010B5002416480078E4
:1045F00008B1852425E000201349886048600861DF
:10460000C86000BF00BF4109890001F1E021D1F875
:10461000001101228240114009B1012100E0002176
:1046200019B90721002000F035F800BF03F078F831
:1046300020B901200549086000BF00BF01200249E0
:104640000870204610BD00004438002018050040C6
:1046500008B5002000906846FCF7ACFE08480078DA
:1046600008B9FFF7C1FF0648C068401C0449C8608C
:10467000012088709DF80000FCF7A2FE08BD000034
:104680004438002010B5044614B90020FDF78AFD17
:1046900010BD000070B50B4601461A46002907DA26
:1046A0005407260E104C01F00F052D1F665503E030
:1046B0005407250E0D4C655400BF00BF00F01F02CB
:1046C000012191400A4A440942F8241000BF00BF6A
:1046D00000F01F02012191404209920002F1E02204
:1046E000C2F8001100BF70BD18ED00E000E400E06A
:1046F00080E200E00146C1F3073250B27047014644
:1047000001F06040B0F1005F01D10120704700204E
:10471000FCE700002DE9FC5F81460C46934699F8C2
:1047200005004B4901EB4017387E20B14FF0080AD5
:104730005046BDE8FC9FC7F800B0207B012803DC91
:10474000207800F0F9F902E0207800F00BFA01215E
:104750004048227840F822106078FF2808D094F86A
:104760000180404600F0E8F9404600F0B5F901E06C
:104770004FF0FF38A078FF280CD0A6780025002045
:1047800000902B46024601460190304600F077F932
:1047900000BF01E04FF0FF36E078FF2805D0E07859
:1047A00000F0E0F9E07800F097F9E07899F805106A
:1047B000274A02EB41118876D9F800502846217823
:1047C000C0F80815C0F80C854FF4A262165000BF5F
:1047D000A068C5F8240500BF217B627B0AB10123D4
:1047E00000E00023184631B1012906D0022907D084
:1047F000032908D000BF00BF08E040F0020005E038
:1048000040F0040002E040F0060000BF00BFC5F821
:10481000540500BF6079C5F8C00500BF386818B1FD
:104820004021284600F02FFA00BF0720C5F80005F8
:1048300000BF386820B1217999F90400FFF72AFFF9
:1048400000207876012038764FF0000A504670E755
:1048500000390020000700502DE9FF4107460C46B3
:1048600015461E46DDF82880009402968DF8045007
:104870008DF80C8000226946384600F003F804B039
:10488000BDE8F0812DE9F04105460E4617466879EE
:10489000164901EB40144FF00008607E20B14FF044
:1048A00011084046BDE8F081206820B107F01400EF
:1048B00008B90120607696E80E10C4E9043CC4E90A
:1048C0000212607F20F001006077607F20F002001C
:1048D0006077A07EFF2802D0A07E00F02DF93B4635
:1048E00032462146286802F02DFFDBE70039002020
:1048F0002DE9F04105460C4616461F46204600F0BD
:10490000CFF9804627B14146286800F0D8F903E086
:104910004146286800F0D0F9286800F5A86141F800
:10492000246000BFBDE8F08110B504460021206876
:1049300000F0CEF90220217901EB4101024A02EB9D
:104940008101087210BD0000403900202DE9F041BE
:1049500005460E4617461C46DDF818804FF4807257
:10496000B2400123B34042EA0301286800F0AAF9EB
:104970002868D0F800122143C0F8001200BF434657
:104980003A4631462846FFF7B3FFBDE8F081000004
:104990002DE9F04704460D469146207900EB400092
:1049A000254901EB8006307A18B108273846BDE862
:1049B000F087B9F1000F02D107273846F7E7C6F8AC
:1049C0000090686870604FF000080BE0404600F00F
:1049D00060F982465146206800F067F908F101004D
:1049E00000F0FF0860794045F0DC2068FFF782FEA8
:1049F0008246E978FFF74EFE69782068D0F80425F2
:104A000061F30102C0F8042500BFA9782068D0F83E
:104A1000082561F30102C0F8082500BF2978206845
:104A2000D0F8102561F30302C0F8102500BF012063
:104A3000307200273846BAE74039002010B50246E8
:104A40001368D3F8100500BF03464FF47A544C4363
:104A5000DC40204610BDF0B5DDE9054500BF4FF054
:104A6000A0473E4641EA420747EA830747EA042750
:104A700047EA054C06F5E06747F820C0F0BDF0B501
:104A8000DDE9054500BF4FF0A0473E4641EA420739
:104A900047EA830747EA042747EA054C06F5E0673B
:104AA00047F820C0F0BD7CB505460C4600200090BC
:104AB00023460246014601902846FFF7CCFF7CBD05
:104AC0001CB50446002000900346012211460190C7
:104AD0002046FFF7C0FF1CBD1CB504460020009017
:104AE00003460122114601902046FFF7C8FF1CBD76
:104AF00010B50A4600BF4FF0A043194601F5E06328
:104B000053F8203023F4403401F5E06343F82040AB
:104B100053F8203043EA024401F5E06343F82040B3
:104B200010BD00BF4FF0A0410A46012303FA00F177
:104B3000C2F80C1500BF704700BF4FF0A0410A46F5
:104B4000012303FA00F1C2F80C1500BF704700BF43
:104B50004FF0A0410A46012303FA00F1C2F80815FC
:104B600000BF704700BF4FF0A0410A46012303FA7F
:104B700000F1C2F8081500BF704710B561B900BF59
:104B800000BF4FF0A0421346012404FA00F2C3F81C
:104B90000C2500BF00BF0CE000BF00BF4FF0A042DB
:104BA0001346012404FA00F2C3F8082500BF00BF31
:104BB00000BF10BD38B50B46074C24680094014671
:104BC00006E05DF82140D4F810551560121D491C0F
:104BD000C4188C42F5D838BD0C8502000146014846
:104BE000084470470060004038B504462046FFF78F
:104BF000F5FF002101602046FFF7F0FF00680090FC
:104C000000BF38BD10B504462046FFF7E7FF006837
:104C1000012800D110BD0020FCE70000024A10600E
:104C2000121D1160704700002C76004001460348B9
:104C3000085808B1012070470020FCE700700040D0
:104C400008B50021034A815011464158009100BF28
:104C500008BD0000007000400121014A81507047EA
:104C6000007000400246505808B1012070470020F3
:104C7000FCE708B5002242504258009200BF08BD30
:104C8000C0F808137047C0F804137047012242505F
:104C9000704701464FF4A07000EB810080B270476E
:104CA00001464FF480308840704708B500224250DA
:104CB0004258009200BF08BDC0F808137047C0F802
:104CC00004137047D0F800228A43C0F800227047CE
:104CD0000122425070470146D1F88004C1F8800497
:104CE00070470246505808B1012070470020FCE789
:104CF00008B5002242504258009200BF08BDC0F8DB
:104D0000081370470246D2F80403084008B1012096
:104D100070470020FCE70122425070470146D1F85D
:104D20008004C1F8800470470246505808B1012041
:104D300070470020FCE708B500224250425800921C
:104D400000BF08BD014640F23C504058704700008B
:104D500010B504460349A2680A60E0684860FDF7A0
:104D6000E3FA10BDFC2F002010B50446A0880849C6
:104D70000880084922690A60606948600020064985
:104D800008700648C08908B9FDF7CEFA10BD0000CA
:104D9000FA2F0020FC2F0020F82F00209033002055
:104DA0008A88428270470000C17B012902D1818834
